:020000040800F2
:10000000100B0020AD6A0008D1670008D367000814
:10001000D5670008D7670008D9670008000000000E
:10002000000000000000000000000000DB67000886
:10003000DD67000800000000DF670008E1670008D6
:10004000D16A0008D56A0008D96A0008DD6A00088C
:10005000E16A0008E56A0008E96A0008ED6A00083C
:10006000F16A0008F56A0008F96A0008E567000807
:10007000EB670008FD6A0008016B0008056B0008CB
:10008000096B00080D6B0008F1670008116B000890
:10009000156B0008196B00081D6B0008216B000828
:1000A000256B0008296B00082D6B0008316B0008D8
:1000B000356B0008F7670008396B00083D6B0008D6
:1000C000416B0008456B0008496B00084D6B000848
:1000D000516B00083168000837680008556B00084C
:1000E000596B00085D6B000800000000616B0008A0
:1000F000656B0008696B00086D6B0008716B000888
:10010000756B0008796B00087D6B0008816B000837
:10011000856B0008896B00088D6B0008916B0008E7
:10012000956B0008996B00089D6B0008A16B000897
:10013000A56B0008A96B0008AD6B0008000000006B
:10014000B16B0008B56B0008B96B0008BD6B000807
:10015000C16B0008C56B0008C96B0008CD6B0008B7
:10016000D16B0008D56B0008D96B0008DD6B000867
:10017000E16B0008E56B00080000000000000000D3
:10018000E96B0008ED6B0008F16B0008F56B0008E7
:10019000F96B0008016C000800000000000000007E
:1001A0000000000000000000FD6B0008056C000866
:1001B000096C0008000000000D6C000838B5040050
:1001C00009D004F17C05696809B900F01EF800F057
:1001D00021F8012801D1012032BDA06A08B100F048
:1001E0002AF800F00AF821F02A01FFE7816000F008
:1001F0001BF8BDE8324000F004BF2068416821F4DC
:100200009041416020688168704700202870204636
:1002100001F0D5B8242169602068026852085200B4
:100220000260204600F054B92068016841F00101E5
:10023000016020467047204600F080BE70B504463D
:1002400004F17C0513466868202836D149B31800AC
:1002500027D02878012830D001222A7004F15406D2
:100260002165338073800020E86021216960306A55
:10027000C8B1DFF83812C162DFF83402316A0863AE
:10028000316ADFF8300248630020316A88632068F1
:10029000216D00F12802306A01F09AF918B100F0DE
:1002A0000EF8012070BD21684020086200222A70EB
:1002B0002068816841F0800108E0022070BD1020B4
:1002C000E8600021297020226A6070478160002068
:1002D00070BD206881684A067047F8B5044640F64C
:1002E0000F022368DD691F689E682A4007F020001E
:1002F00005F020010CD1002911D010B9F00040F117
:100300009180E16E00295AD02046BDE8F4400847AC
:10031000694A164204BFDFF8A4C117EA0C0F00F0C7
:1003200081805FEAC57C48BF5FEAC75E09D54FF0B0
:10033000010CC3F820C0D4F8883043F00103C4F89E
:100340008830AB070CD5F3070AD5D4F800E00223B8
:10035000CEF82030D4F8883043F00403C4F8883055
:100360006B070CD5F3070AD5D4F800E00423CEF8C8
:100370002030D4F8883043F00203C4F888302B07CB
:100380000CD5002808BF164208D0236808221A623C
:10039000D4F8882042F00802C4F888202A050BD53A
:1003A0007B0109D525684FF400622A62D4F88820C1
:1003B00042F02002C4F88820D4F88820002A6DD0AA
:1003C00031B108B9F00003D5E16E09B12046884784
:1003D000D4F8880021688A68510602D410F0280FEA
:1003E00019D0204600F08BFEFFF773FF0ED500F00A
:1003F00056F858B132498163A06F01F028F90028FE
:100400004CD0A06F816BBDE8F44008472046BDE8A2
:10041000F24000F03FBF204600F03CFF0020C4F84F
:100420008800F1BDE80209D5710207D54FF48010AC
:1004300018622046BDE8F24001F088BA280609D5C6
:10044000390601D4300205D5216F39B32046BDE805
:10045000F440084768060FD579060DD51A6822F0D2
:1004600040021A602020C4F8800000222267204643
:10047000BDE8F24000F020BF280206D5790004D57F
:100480002046BDE8F24001F062BAE80148BF002F03
:1004900004D52046BDE8F24001F05ABAF1BD8168AA
:1004A00021F040018160A06F7047000069110008D1
:1004B000971100089D1100080100001020010004A0
:1004C000EB11000800F18001086849680843704793
:1004D0002DE9F84F0446DFF8301AD4F800A0DFF811
:1004E0002CBADAF80020A068DFF8247A0A402169E3
:1004F000024360690A43E1690243606E0A430243B2
:10050000CAF800200026DAF80410E068DFF8042AB0
:1005100021F440510143CAF804109245A1691CBF5F
:10052000206A0143DAF80820DFF8EC0902401143A1
:10053000CAF80810B046DAF82C10606A090940EAD7
:100540000111CAF82C10DA454FF400404FF48075C1
:100550004FF400714FF480624FF400634FF4805CFD
:100560004FF4005E4FF4804933D13F6807F0030B2E
:10057000BBF1030F3BD8DFE80BF00270608301276B
:1005800000974FF6F077D4F81CB0DFF890A9BBF5D0
:10059000004FDDF800B040F08783BBF1000F10D0B2
:1005A000BBF1010F00F09882BBF1020F00F0C48292
:1005B000BBF1040F00F0FD82BBF1080F00F03183A6
:1005C00064E301F090FD0146606A002840F0598222
:1005D00080E2DFF84CB9DA4520D13F6817F00C070C
:1005E00061D0042F39D0082F27D00C2F48D01027E6
:1005F000DFF820B9DA45C3D14FB1022F00F0928065
:10060000042F00F0CB80082F00F0FB8088E001F081
:100610006AFD0146606A002847D172E0DFF804B93C
:10062000DA450CD13F6817F030073CD0102F14D0BA
:10063000202F02D0302F23D0D9E70227D8E7DFF8C8
:10064000E8B8DA450BD13F6817F0C0072BD0402F30
:1006500003D0802FF1D0C02FEDE70427C8E7DFF8E3
:10066000CCB8DA450ED13F6817F440771BD0B7F508
:10067000807FF2D0B7F5007FDFD0B7F5407FB6D1ED
:100680000827B5E7DFF88CB8DA45B0D13F6817F432
:10069000406708D0B7F5806FDFD0B7F5006FCCD0DA
:1006A000B7F5406FC7E70027A2E7012808BF02207F
:1006B00028D0022808BF042024D0032808BF062021
:1006C00020D0042808BF08201CD0052808BF0A2015
:1006D00018D0062808BF0C2014D0072808BF102007
:1006E00010D0082808BF20200CD0092808BF4020BF
:1006F00008D00A2808BF802004D00B2808BF28464D
:1007000000D00120B1FBF0F0002800F0F183626816
:1007100002EB4201884203D31303834280F0B0808E
:1007200000F0E4BB606AB0B3012808BFDFF8EC0753
:10073000EDD0022808BFDFF8E809E8D0032808BF99
:10074000DFF8E009E3D0042808BFDFF8DC09DED0D9
:10075000052808BFDFF8D409D9D0062808BFDFF87C
:10076000D009D4D0072808BFDFF8C809CFD008289F
:1007700008BFDFF8C409CAD0092808BFDFF8BC09E0
:10078000C5D00A2808BFDFF8B809C0D00B2808BFB9
:100790004FF22440BBD0DFF8AC09B8E701F05AFCB7
:1007A0000146606A0028ACD0012808BF0220A9D009
:1007B000022808BF0420A5D0032808BF0620A1D026
:1007C000042808BF08209DD0052808BF0A2099D01A
:1007D000062808BF0C2095D0072808BF102091D00C
:1007E000082808BF20208DD0092808BF402089D0C4
:1007F0000A2808BF802085D00B2808BF2846FAD0D9
:100800007FE7D4F824A0BAF1000FC6D0BAF1010FE7
:1008100008BF4846C1D0BAF1020F08BF70462ED0BB
:10082000BAF1030F08BF41F2555028D0BAF1040FB6
:1008300008BF604623D0BAF1050F08BF40F6CC4090
:100840001DD0BAF1060F08BF40F6AA2017D0BAF1A2
:10085000070F08BF184612D0BAF1080F08BF10469C
:100860000DD0BAF1090F08BF084608D0BAF10A0F37
:1008700008BF284603D0BAF10B0F00D1802046E70D
:1008800047B1022F36D0042F00F07180082F00F0FE
:10089000A680EAE001F027FC0146606A40B3012827
:1008A00008BF02251ED0022808BF04251AD003283D
:1008B00008BF062516D0042808BF082512D0052831
:1008C00008BF0A250ED0062808BF0C250AD0072825
:1008D00008BF102506D0082808BF202502D0092807
:1008E00008BF402572D00A280CBF80250B286DD088
:1008F00001256BE0606A002836D0012808BFDFF8C8
:1009000048682BD0022808BFDFF8406826D00328AB
:1009100008BFDFF83C6821D0042808BFDFF834683E
:100920001CD0052808BFDFF8306817D0062808BF9C
:10093000DFF8286812D0072808BFDFF824680DD038
:10094000082808BFDFF81C6808D0092808BFDFF8AE
:10095000AC6803D00A2808BFDFF8A4687BD00B2856
:1009600008BFDFF8E06776D0DFF8986873E001F041
:1009700071FB0146606A40B3012808BF022525D0FB
:10098000022808BF042521D0032808BF06251DD052
:10099000042808BF082519D0052808BF0A2515D046
:1009A000062808BF0C2511D0072808BF10250DD038
:1009B000082808BF202509D0092808BF402505D0F0
:1009C0000A280CBF80250B2800D001256268B1FBE6
:1009D000F5F6370E5008002110EB06203FE0606A64
:1009E000002836D0012808BF4FF4800633D00228F3
:1009F00008BF4FF400162ED0032808BFDFF80868A0
:100A000029D0042808BF4FF4801624D0052808BF39
:100A1000DFF8F8671FD0062808BFDFF8F4671AD0A0
:100A2000072808BF4FF4002615D0082808BF4FF448
:100A3000802610D0092808BF4FF400360BD00A28B2
:100A400008BF4FF4803606D00B2808BF4FF400468D
:100A500001D04FF400060027002116EB5200794127
:100A6000002301F0AFFB064601E04FF00108A6F5B8
:100A70004070DFF8A017884280F038822268D66084
:100A800036E2012808BF022525D0022808BF042528
:100A900021D0032808BF06251DD0042808BF08253B
:100AA00019D0052808BF0A2515D0062808BF0C252F
:100AB00011D0072808BF10250DD0082808BF202511
:100AC00009D0092808BF402505D00A280CBF802579
:100AD0000B2800D001259BE001F00DFB0146606A68
:100AE00040B3012808BF0225F5D0022808BF04251D
:100AF000F1D0032808BF0625EDD0042808BF08253B
:100B00000AD0052808BF0A2506D0062808BF0C25EC
:100B100002D0072808BF10257AD0082808BF202552
:100B200076D0092808BF402572D00A280CBF80253E
:100B30000B286DD001256BE0606A90B301280CBFD3
:100B4000DFF800A602282ED0032808BFDFF8C8A6C9
:100B500029D0042808BFDFF8C8A524D0052808BF7D
:100B6000DFF8B8A61FD0062808BFDFF8B8A51AD04E
:100B7000072808BFDFF8B0A515D0082808BFDFF8A0
:100B8000B4A510D0092808BFDFF8ACA50BD00A28FF
:100B900008BFDFF8A8A506D00B2808BFDFF8A0A57E
:100BA00001D0DFF85CA660680AEB5001B1FBF0F6FB
:100BB0006AE001F04FFA0146606A40B3012808BFBD
:100BC000022525D0022808BF042521D0032808BF0C
:100BD00006251DD0042808BF082519D0052808BF00
:100BE0000A2515D0062808BF0C2511D0072808BFF4
:100BF00010250DD0082808BF202509D0092808BFD6
:100C0000402505D00A280CBF80250B2800D00125DF
:100C10006068B1FBF5F1420802EB4102B2FBF0F66D
:100C200032E0666A66B3012E2CD0022E08BF484619
:100C300028D0032E08BF42F6AA2023D0042E08BFD6
:100C400070461FD0052E08BF41F698101AD0062E08
:100C500008BF41F2545015D0072E08BF604611D08E
:100C6000082E08BF18460DD0092E08BF104609D01F
:100C70000A2E08BF084605D00B2E08BF284601D013
:100C80004FF4803000F054F9B6B201E04FF00108A3
:100C9000A6F11000B84280F029813740C6F3420027
:100CA00007432068C76023E1BBF1000F0ED0BBF102
:100CB000010F3BD0BBF1020F68D0BBF1040F00F075
:100CC000A180BBF1080F00F0D48006E101F00BFA1F
:100CD0000146606A40B3012808BF022525D00228DA
:100CE00008BF042521D0032808BF06251DD00428ED
:100CF00008BF082519D0052808BF0A2515D00628E1
:100D000008BF0C2511D0072808BF10250DD00828D2
:100D100008BF202509D0092808BF402505D00A288A
:100D20000CBF80250B2800D001259AE001F0E3F9E3
:100D30000146606A40B3012808BF0225F5D00228A9
:100D400008BF0425F1D0032808BF06250AD00428CF
:100D500008BF082506D0052808BF0A2502D00628A6
:100D600008BF0C257DD0072808BF102579D008289A
:100D700008BF202575D0092808BF402571D00A2852
:100D80000CBF80250B286CD001256AE0606A98B3FF
:100D9000012833D0022808BFDFF884A32ED003280F
:100DA00008BFDFF880A329D0042808BFDFF878A3A4
:100DB00024D0052808BFDFF874A31FD0062808BF79
:100DC000DFF86CA31AD0072808BFDFF868A315D096
:100DD000082808BFDFF860A310D0092808BFDFF893
:100DE0005CA30BD00A2808BFDFF854A306D00B2859
:100DF00008BF4FF2244A01D0DFF848A360680AEB2D
:100E0000500133E001F026F90146606A40B3012841
:100E100008BF022525D0022808BF042521D00328B9
:100E200008BF06251DD0042808BF082519D00528AD
:100E300008BF0A2515D0062808BF0C2511D00728A1
:100E400008BF10250DD0082808BF202509D0092883
:100E500008BF402505D00A280CBF80250B2800D0EC
:100E600001256068B1FBF5F101EB5001B1FBF0F633
:100E700031E0666A6EB3012E08BF484629D0022EC3
:100E800008BF704625D0032E08BF41F2555020D030
:100E9000042E08BF60461CD0052E08BF40F6CC408B
:100EA00017D0062E08BF40F6AA2012D0072E08BF82
:100EB00018460ED0082E08BF10460AD0092E08BFCB
:100EC000084606D00A2E08BF284602D00B2E08BFBF
:100ED000802000F02DF8B6B201E04FF00108A6F135
:100EE0001000B84202D22168CE6001E04FF0010844
:100EF00004F1680001210023418001804360836088
:100F00004046BDE8F28F0000F369FFCF0038014092
:100F10008810024000800040FFF4FF1100127A00A8
:100F20000044004000480040004C00400050004099
:100F3000616800EB5100B0FBF1F6704790F82810A3
:100F4000CA0706D502685368C16A23F400330B430D
:100F5000536090F828108A0706D502685368016B21
:100F600023F480330B43536090F828104A0706D5CA
:100F700002685368416B23F480230B43536090F85D
:100F800028100A0706D502685368816B23F40043D2
:100F90000B43536090F82810CA0606D50268936880
:100FA000C16B23F480530B43936090F828108A069A
:100FB00006D502689368016C23F400530B439360D9
:100FC00090F828104A0610D502685368416C23F443
:100FD00080130B435360436CB3F5801F05D15368F6
:100FE000816C23F4C0030B43536090F828100A0669
:100FF00006D501684A68C06C22F4002202434A60A8
:101000007047F8B5044604F17C050020E8606FF0F5
:101010007E4701F05BF90646206801680A0708D59B
:101020000097334600224FF40011204600F016F8D6
:1010300060B9206801684A070AD500973346002244
:101040004FF48001204600F009F808B10320F2BDFA
:1010500020206860A86000202870F2BD2DE9F041D2
:10106000069C05460E4690461F462868C1693140D9
:10107000B1420CBF01200020404520D114F1010FE6
:10108000F3D001F023F9C01B844200D334B900F03F
:1010900018F8002101700320BDE8F081286801687C
:1010A0004A07E2D5C1690805DFD54FF400612A6817
:1010B0001162002200F005F8C1600270EBE7002029
:1010C000EAE72868016821F4D07101602868816826
:1010D00049084900816005F17C0020214160816060
:1010E000704701680A6822F0C0020A6001688A68D5
:1010F00022F400028A602021C0F880107047016845
:101100000A6822F490720A60DFF81411026893688A
:101110000B4093602022C0F884200021C1667047F4
:1011200000093D00AAB0280080841E00006A180053
:101130005558140040420F0020A1070090D0030032
:1011400048E801000024F4000000127A0000093D84
:1011500000AAB0280080841E00006A1800555814A8
:101160000040420F0020A107816A006802689306D0
:1011700044BF084600F0A0B80020A1F85600086857
:10118000826822F0800282600868FFE7016841F00F
:10119000400101607047806A01F09EB8F8B5846A2A
:1011A00004F1800504F1560728686E6821688A6892
:1011B000110606D5212804D1002038802046FFF7EB
:1011C00090FF21688868410606D5222E04D10020B0
:1011D00038812046FFF793FFA86840F01000A86010
:1011E0002046BDE8F24000F055B8806A00F1560193
:1011F00000220A810A8000F04DB800000090D00360
:101200000048E801000024F40055150000CC0C0053
:1012100000AA0A0000FD0F005461510000D4300004
:10122000FEFFFFEF70B50646A64DA74C2846FFF718
:1012300049F9C0B2212818BF232812D104F10800AF
:1012400001F04CF80246C2F16402314604F1080094
:1012500001F04EF82588304601F040F84519258008
:1012600070BD6422314604F1080001F055F80020F9
:10127000208004F1080001F031F804F1080182B285
:1012800011446160284604F10801BDE87040FEF792
:10129000D5BF00008D49884200D0704700B585B0A9
:1012A000D0F8883090A21421684601F0A0FE68466C
:1012B000FFF7B8FF05B000BD38B5044681498C4240
:1012C0002ED1814D288840B36A682B8805F16C01C6
:1012D0001344994205F108000ED200F0FFFF05F11A
:1012E00008010022014405F108002A806960C1F16B
:1012F0006402821892B20BE000F0F0FF29882A887D
:10130000284449420844002300F108012B80696009
:101310002046BDE83840FEF791BF05F1080068603F
:1013200031BD10B5674C6A4800F033F808B102F0DF
:101330005AF90021204600F09FFA08B102F053F953
:101340000021204600F0A3FA08B102F04CF9204633
:1013500000F074FA00B12EE010BD10B55B4C5D4892
:1013600000F017F808B102F03EF90021204600F025
:1013700083FA08B102F037F90021204600F087FA1D
:1013800008B102F030F9204600F058FA00B112E03E
:1013900010BD20604FF4E1310C20002260616160DB
:1013A000A260E2602261A261E26122626262A262E4
:1013B0002046FEF703BFBDE8104002F014B938B56F
:1013C00086B004461421684602F01CF92168404AA0
:1013D0004148914236D14169404D41F480414161DB
:1013E000416901F4804105910599026842F00202C9
:1013F0000260C021006800F00200059002220598FA
:10140000374800F055F802F001F9364828601A21F3
:10141000696000201022E86080216861A861E861AD
:101420002862AA602961284600F068F808B102F035
:10143000DAF86567AC6200220021252002F0EEF99F
:10144000252031E0234A914230D1C16841F4003176
:10145000C160C16801F4003105910599026842F04C
:10146000010202600421006800F0010005900222E0
:10147000059800F01DF84FF0904002F0C7F80221E7
:1014800001914FF400400321009000220391049148
:10149000029269464FF0904002F0B8F80022002115
:1014A000262002F0BBF9262002F0D5F907B030BDA6
:1014B00000910192002102910322072104910392DD
:1014C000694670473803002050040020C403002000
:1014D00000380140004400404C10024084050020C8
:1014E000000400481C00024075617274312065726E
:1014F000726F722025640D0A0000000038B50400E8
:1015000001D1012032BD2168DFF80823914204F1A6
:10151000240500F044F80221697020680268A06880
:10152000E16823686FF30E12024320690A43616980
:101530000243A0690A43E1690243206A0A43024365
:101540001A60204600F03BF9A068B0F5804F04BF58
:1015500000216160696A207900F014F838B105282B
:1015600005D2204600F048F900F012F803E0002010
:1015700028636863A8630021A9610120687029704D
:10158000002032BD0860A96AE86A48606068704758
:10159000296B00200860696BA86B486070470BD20C
:1015A000DFF8740241181423B1FBF3F18900DFF86E
:1015B0006C222962EA617047DFF864024118142244
:1015C000B1FBF2F18900DFF85C022962E861704743
:1015D000F8B5044604F1240600253078012801D12D
:1015E0000220F2BD012030707778012F2BD102202C
:1015F0007070B561206807687F087F00076020462B
:1016000000F0C1F82168F06820B10A6842F00E02CB
:101610000A6008E0086820F004000860206801689B
:1016200041F00A010160706A0168CA0301D500F047
:1016300044F8306B08B100F040F82068016841F0D0
:101640000101016001E0357002252846F2BD38B580
:1016500000F1240200245178022903D00420906173
:10166000012428E001680B6823F00E030B60016879
:101670000D686D086D000D60516A0B6823F480736E
:101680000B60012192F82030D56903F01C039940CA
:101690006960936AD16A5960116B31B10B6823F4A8
:1016A00080730B60516B936B4B600123537014700C
:1016B000516901B18847204632BD016841F480710B
:1016C00001607047F8B500F124010423CA69146869
:1016D0000268156891F8206006F01C0603FA06F708
:1016E0003C4210D06F070ED51468A50603D41468C9
:1016F00024F00404146000F03DF8C968002938D0D3
:10170000BDE8F4400847022303FA06F73C4213D031
:10171000AF0711D51468A50605D4146824F00A048F
:10172000146001224A7000F025F800220A708968CE
:10173000F9B1BDE8F4400847082303FA06F634423D
:1017400017D02B0715D5146824F00E04146001225D
:1017500091F82030CC6903F01C039A4062600122AA
:101760008A614A7000220A70096911B1BDE8F4402B
:101770000847F1BD91F82020CC6902F01C0293408B
:1017800063607047000070B5C56C046D6C60446D9B
:1017900014B1856DC46D6C60012490F84450066CE2
:1017A00005F01C05AC407460046863608068102814
:1017B00002D1A260E16070BDA160E26070BD10B5B1
:1017C000416C0268134B89089A4239BF164C04EBEE
:1017D0008101164B03EB8101816402F0FF02083A9C
:1017E0001421B2FBF1F1012301F01F01104AC26480
:1017F00003FA01F1016510BD01790E4A0E4B8365B4
:1018000002EB81024265491E012201F003018A4078
:10181000C265704708040240F8FFFDBF00000240A7
:10182000F8FBFDBF00040240000802401C08024013
:1018300080080240FC0802404009024010B500F157
:101840007C010A78012A01D1022010BD01220A7010
:1018500024234B60026813681468640864001460F1
:101860000022426623F000530068036020224A6091
:1018700000230B70002010BD70B500F01FF801D1DF
:10188000022070BD00F020F822F0604209E070B53F
:1018900000F014F801D1022070BD00F015F822F01C
:1018A000606211438160204600F01CF820680660E9
:1018B0002021696000222A70002070BD044604F1D6
:1018C0007C052878012870470120287024226A604E
:1018D0002068066802685208520002602068826828
:1018E00070470000FFB500BF14A200BF15A6D2E9E3
:1018F000003402A900F16802C1E90034D6E90071A0
:10190000CDE90071416E11B90120508014E00068EA
:1019100081688068400F02AC490E255C1DF800000C
:10192000ED0001F0070195FBF0F05080645C1DF8BC
:101930000100E40094FBF0F01080FFBD0101010301
:101940000701000008040204080101017047704704
:10195000704730B4002513E050F8042BD30744BF80
:10196000A9F101039A18091F042942F8045BFAD26D
:1019700013468C0744BF15809B1CC90748BF1D70C8
:1019800050F8041B0029E7D130BC70472DE9FC4713
:10199000050065D0DFF8E877DFF8F467BC68F86821
:1019A00000F003082878C10604F00C0448D524B1DF
:1019B0000C2C08BFB8F1010F2CD13868810702D573
:1019C000E86900284CD0396808074EBF396871684B
:1019D0000909686A01F0F001814206D200F097FB24
:1019E00000283DD100F047FA07E000F044FA24B99E
:1019F000686A00F08CFB002832D100F02BFBBA683B
:101A000000F01EFBDFF88007006801F04FFF0100C7
:101A100016D02AE2E86928B3396841F0010139603B
:101A200000F054FC81463868810707D400F04EFC72
:101A3000A0EB09000328F6D3032016E200F01BFAFE
:101A40002878C10756D5082C04D00C2C08BFB8F153
:101A5000030F18D1386881034CD56868002849D134
:101A6000012002E2386840084000386000F02EFC97
:101A7000814638688107E3D500F028FCA0EB090017
:101A80000328F6D3D8E76868B0F5803F04D13868FA
:101A900040F48030386011E0B0F5A02F386806D1EE
:101AA00040F480203860396841F4803105E020F44A
:101AB00080303860396821F480213960686860B10D
:101AC00000F004FC81463868810313D400F0FEFB6B
:101AD000A0EB09006528F6D3AEE700F0F7FB8146DE
:101AE0003868810306D500F0F1FBA0EB09006528FA
:101AF000F6D3A1E72878810713D5042C04D00C2C49
:101B000008BFB8F1020F2FD13868410502D5E86847
:101B10000028A5D07868296920F0FE4040EA0160DD
:101B200078602878010768D568690028706854D003
:101B3000A96900F0100291423ED000F00303022B8D
:101B40008ED0C00732D5716849084900716000F035
:101B5000BDFB80467068810728D500F0B7FBA0EB7D
:101B600008001228F6D367E7E86878B1396841F4CD
:101B70008071396000F0AAFB804638684105C9D4FD
:101B800000F0A4FB00F073F9F7D355E7386820F4B0
:101B90008070386000F09AFB804638684105C0D5F7
:101BA00000F094FB00F063F9F7D345E77168A8698A
:101BB00021F0100101437160706840F00100706015
:101BC00000F084FB80467068810716D400F07EFB2D
:101BD000A0EB08001228F6D32EE740084000706002
:101BE00000F074FB80467068810706D500F06EFB3C
:101BF000A0EB08001228F6D31EE72878410773D51A
:101C0000B86DC1004FF000080AD4B86D40F08050A4
:101C1000B8654FF00108B86D00F080500090009852
:101C2000DFF87095D9F80000C10513D4D9F8000089
:101C300040F48070C9F8000000F048FB8246D9F8F3
:101C40000000C10506D400F041FBA0EB0A00032808
:101C5000F5D3F1E6A868C10715D5326822F08002F5
:101C600000F0800010433060287A4107306807D5C3
:101C700040F004003060316841F0010131600AE059
:101C800040F0010006E031684908490031603068E1
:101C900020F004003060A86841F2893960B100F09A
:101CA00015FB82463068810717D400F00FFBA0EBCC
:101CB0000A004845F6D3BFE600F008FB82463068CC
:101CC000810706D500F002FBA0EB0A004845F6D3D9
:101CD000B2E6306820F080003060B8F1000F03D029
:101CE000B86D20F08050B8652878810621D5A86AA3
:101CF0000028B0680ED040F00100B06000F0E6FAB5
:101D00008046B068810714D400F0E0FA00F0AFF824
:101D1000F7D391E640084000B06000F0D7FA804663
:101D2000B068810705D500F0D1FA00F0A0F8F7D32C
:101D300082E6E86A002800F09780022874D1F868EB
:101D40002A6B00F00301914201BF00F0F0016A6BC1
:101D5000521EB1EB021F1BD1AA6B00F4FE41B1EB86
:101D6000022F02BF00F07841EA6BB1EBC26F0FD1D6
:101D70002A6C520800F4C001521EB1EB425F07D139
:101D8000696C490800F0C060491EB0EB416F47D054
:101D90000C2C4AD03868410101D43868C1003FF5A5
:101DA0005FAE386820F08070386000F08FFA04462B
:101DB0003868810105D500F089FA001B0328F7D3A4
:101DC0003AE6F868DFF8D0132A6B0840696B1043D5
:101DD000491E40EA01102A6CA96B520840EA012012
:101DE000696C521E490840EA4250491E40EA41606F
:101DF000E96B40EAC160F860386840F08070386094
:101E0000F96841F08071F96000F060FA04463868C2
:101E1000810129D400F05AFA001B0328F7D30BE6FE
:101E20003868810120D4E7E70C2C3FF419AE3868FC
:101E300020F080703860396811F0205F03D1F868B5
:101E400080088000F860F968DFF850030140F9600D
:101E500000F03CFA04463868810105D500F036FAF6
:101E6000001B0328F7D3E7E50020BDE8F687A0EBC9
:101E7000080003287047386840F008003860396867
:101E8000686A21F0F001014339607968286A21F419
:101E90007F4141EA0021796070472DE9F84304460B
:101EA0000027002C88465FD0DFF8F462306800F02D
:101EB0000F00404502D200F0B9F855D12078DFF884
:101EC000C052C10778D56068DFF8D892032841D1A5
:101ED0002868810148D5E868002100F00300012846
:101EE0000FD12868010705D4DFF8A0020168C1F30B
:101EF000032002E02868C0F30310DFF8AC1251F8A9
:101F00002010E86800F00300022804D0032804D160
:101F1000DFF8981201E0DFF89812EA68E868EB68E9
:101F2000C0F306204143C2F30310401CB1FBF0F0A4
:101F3000C3F34161491C4900B0FBF1F0484521D38E
:101F4000A96811F0F00F16D0207881071AD5A06883
:101F5000C0B910E0022802D12868810303E00028FC
:101F6000286802D1810702D43EE041053CD500F04B
:101F700071F8484506D3A86820F0F00040F08000D2
:101F8000A8608027A9686068890840EA8101A96083
:101F900000F09CF98146A868616800F00C00B0EB85
:101FA000810F09D000F092F9A0EB090041F28931CC
:101FB0008842F0D3032037E02078810706D5AA684D
:101FC000A06822F0F0020243AA6005E0802F03D14E
:101FD000A86820F0F000A860306800F00F0080458D
:101FE00004D200F023F801D001201DE02078410741
:101FF00005D5AA68E06822F4E0620243AA6021786D
:10200000080706D5A968206921F4605141EAC0019A
:10201000A96000F01FF8AA6800F012F8BDE8F243CA
:102020005948006801F042BCBDE8F28331680909F3
:1020300048EA01113160306800F00F0040457047F8
:102040005C49C2F30312895C4E4A01F01F01C8408B
:102050001060704770B54A4A544B9068D6680025A6
:10206000002110F00C0006F00306514C03D00C28A0
:1020700012D1012E1AD115682E0704D4434D2E68B3
:10208000C6F3032502E01568C5F30315464E56F85E
:10209000255048B9294624E0042808BF214620D00D
:1020A00008281ED119461CE00C281AD1D06800F06F
:1020B0000300022803D0032808BF1D4600E0254680
:1020C000D168D068D268C0F306204543C1F303103D
:1020D000C2F34161401C491CB5FBF0F04900B0FB64
:1020E000F1F1084670BD2748334A00681368334948
:1020F000C3F3022206E023482F4A006813682F49E1
:10210000C3F3C222895C01F01F01C84070477CB54F
:102110002B4E054630680024C10002D501F0E8FBD3
:102120000EE0306840F080503060316801F080513E
:102130000091009801F0DCFB316821F080513160A2
:10214000B0F5007F04D1802D09D9A12D06D301E07F
:10215000802D01D3022402E0702D00D1012410480B
:102160000168090944EA01110160006800F00F00EC
:10217000A04201D0012076BD002076BD0000000005
:102180000010024030030020280300209410024079
:1021900090100240007000400C809D01FFFFEEFE99
:1021A0000020024001B4C404C869000800127A008B
:1021B0000024F4003069000808100240C86A0008D2
:1021C00058100240D3BBD9B1B2F5803F5BD2022A8E
:1021D0001ED98C46B1FBF2F102FB11C31B0443EA8A
:1021E0001043B3FBF2FC02FB1C3380B240EA034312
:1021F000B3FBF2F002FB103240EA0C4000237047C0
:10220000022A05D98446B0FBF2F002FB10C27047E7
:102210004AB105D100F0010249085FEA3000704779
:1022200000220023704701F0C7BB0B000200002111
:1022300000207047F7D3002200237047904271EBD3
:10224000030CF2D370B5B1FA81F4B3FA83F52C1B09
:10225000A340C4F1200532FA05F63343A2405FF0F3
:102260000046E64002E05B085FEA3202841A71EB46
:10227000030524BF204629467641F4D302000B0013
:102280003000002170BD70B5B1FA81F4B2FA82F568
:10229000C4F120046419B4F12006DAD3B2405FF02F
:1022A0000044F440002502E052085FEA3303C61AF6
:1022B00071EB020E24BF3046714664416D41F3D389
:1022C00002000B002000290070BD000001480068DA
:1022D000704700BF240300207047000000F1010395
:1022E00010F8011B11B110F8011BFBE7C01A704771
:1022F00030B4044600E0641C2378002BFBD13AB1D3
:102300000B782BB111F8015B04F8015B521EF6E764
:102310000021217030BC704701B55AB111F8013B62
:10232000521E00F8013B03B1F8D111001CBF00227E
:1023300001F044FB01BD00009A4238BF8854704749
:10234000704730380A288041C00F704710B50146E9
:1023500000200A2405E0531C0B601278303A04FB7D
:1023600000200A681378303B0A2BF4D310BD2DE906
:10237000F84F0B9C0C9E0D9F154617F0030F8146DE
:102380008A469846009510D1A346B3450DD200F079
:102390001BF86D1C0BF1010BF7E70A98641E43460E
:1023A000005D2A465146C8476D1C002CF5D1B80780
:1023B00007D5009C02E000F007F86D1C281BB04216
:1023C000F9D32846BDE8F28F43462A4651462020DD
:1023D00048472DE9F84384B08146129FDDF830C0AC
:1023E0000D980E9EDDF840E09046119ABC071CD473
:1023F00062B1FC070AD5002E08BF17F00C0F05D0FC
:10240000521E03E030240CF80040401C704538BFD9
:102410002028F7D3FC0708D5302502E00CF800503F
:10242000401C904238BF2028F8D3FC0627D50F9CCB
:102430007D050AD448B1704518BF904205D1401EB1
:1024400003D0102C08BF401E01D0102C09D1451C10
:10245000BC061CD420280CD278240CF80040284656
:1024600007E0022C05D1202803D262240CF800409A
:10247000401C202803D230240CF80040401C2028A7
:1024800013D2451C3EB12D260CF800600CE020282C
:10249000EFD25824E1E77E0748BF2B2402D43E0741
:1024A00003D520240CF80040284602920190CDF874
:1024B00000C0039742464846FFF759FF05B0BDE804
:1024C000F0832DE9F8418FB0804616981B9E0027B7
:1024D00008B926F01006189D740500D5C8B1B0FBE8
:1024E000F5FC05FB1C00C4B2BE460A2C0EF1010728
:1024F000B8BF303005DBB4064CBF4124612400195D
:102500000A3807AC04F80E005FEA0C0001D0202F57
:10251000E5D31A9805900696039507A8199E9DF88D
:102520005C5000900496029501974046FFF751FFDA
:1025300010B0BDE8F0812DE9F34F8FB00027DDE941
:102540001A45229E002D04BF002C26F01006DDE95E
:102550001EAB70059146984603D5002D08BF002C90
:1025600021D02046294652465B46FFF72BFE3846CF
:10257000471CD1B20A29B8BF303205DBB1064CBFC7
:102580004121612152180A3A07A95B460A542046A4
:1025900029465246FFF716FE04460D0008BF002CE0
:1025A00001D0202FDDD310990F980696CDF80CA0FE
:1025B0004346219C209D059404954A469DF8704011
:1025C0000294019707AC0094FFF703FF11B0BDE838
:1025D000F08F2DE9F34F81B092462DED068B994691
:1025E000B0EE408AF0EE608A8CB053EC182B51ECC0
:1025F000180B1F9C209D002601F0EAF9009606D0DA
:10260000039502948BA503240194009517E000F034
:102610009EFA06D204200395029401900FF65C21E5
:102620000CE000F08BFA11D8680759BF032082A193
:1026300004200FF650210395029401900091149903
:1026400013984B465246FFF792FEEDE00122DFF869
:10265000BC391E9F01F0CCF905D90022DFF8B03952
:1026600001F0DEF909D214991398029501940097AC
:102670004B46524600F0E8F8D6E0002301F0D0F9CE
:10268000934605D281F000414FF0010B41EC180B4D
:10269000680504AE02D406211E910AE00021302014
:1026A0000A2F04D37054491C7F1E2029F8D31E978B
:1026B000009151EC180B01F0CBF91E9ADFF8541978
:1026C00001EBC201074691ED009B01F0DFF900F03C
:1026D000B5F853EC192B01F0EBF941EC1A0B01F0B2
:1026E000B9FA804601F0CAFA02460B4651EC1A0BC1
:1026F00001F0D2FA41EC1A0B08F10100019001221D
:1027000051EC1A0BDFF8103901F072F90DD8DDF831
:102710000480404601F0B2FA53EC192B01F068F93D
:102720000FD84FF000087F1C0BE0002201F078F971
:1027300007D3B8F1000F02D05FEAC87001D5DDF809
:1027400004801E9890B9384601F0A0F900F076F8A0
:102750000022DFF8C43801F063F903D2012201F04E
:1027600047F923D8F80721D57F1C1FE002460099BE
:1027700040464FF00A0C20290AD20A23B0FBF3F39B
:102780000CFB130030307054521E491C1800F2D15B
:10279000202919D21046421E4B1C00281EBF302093
:1027A00070541946F4D12E22725400930A220099D3
:1027B000202909D20A2097FBF0F002FB107730376E
:1027C0007754491C0700F3D105F0030001280FD10D
:1027D00054B1BBF1000F08BF15F00C0F04D0641EFC
:1027E00002E030207054491CA14238BF2029F8D3A0
:1027F00020290ED2481CBBF1000F18BF2D2206D194
:102800006B0748BF2B2202D42B0702D5202272541B
:10281000014604A80191009003951499139802941D
:102820004B465246FFF7A3FD0CB0BDEC068BBDE84E
:10283000FE8F00006E616E00666E690002460B46F8
:1028400051EC180B01F028BA2DE9FB4F2DED048B4C
:10285000824693462DED020B88B0DDE90823DDE9C1
:10286000080101F0B5F81A9E1C9F05D100F066F929
:1028700002D900F06CF907D21B98109B0F990190B8
:10288000029700F060F94EE10022002301F0C8F841
:102890003DBF4FF0010881F00041CDE908019046AD
:1028A000DDE908237805DFF87417DFF8745758BF9F
:1028B00006264FF0FF30194010400D43CDE90405C6
:1028C000DDE908014800400DA0F2FF3001F0DEF81C
:1028D000DFF85027DFF8503701F0EAF8DFF84C272F
:1028E000DFF84C3701F04AFADDE9042304460D46CF
:1028F0000020DFF8401701F041FADFF83C27DFF84D
:102900003C3701F0D5F822462B4601F037FA01F0AA
:102910009FF8054601F0BAF8DFF82427DFF82437DE
:1029200001F0C6F80022DFF8F03601F027FA01F0D6
:102930008FF80446284601F0A9F8DFF80C27DFF8E5
:102940000C3701F0B5F8CDE90001204601F09EF802
:10295000DFF8FC26DFF8FC3601F0AAF802460B4649
:10296000DDE9000101F098F941EC180B53EC182B4C
:1029700001F09EF841EC190B04F2FF300105002034
:10298000CDE9040153EC182B4FF0804101F090F891
:10299000CDE9020153EC182B00204FF0804101F0EB
:1029A0007BF9CDE90001002251EC190BDFF8A836C4
:1029B00001F0A2FA0022DFF8A43601F0DFF900F0FE
:1029C000B7F80022DFF8983601F0D8F900F0B0F837
:1029D000DDE9002301F0D2F902460B46DDE90201F0
:1029E00001F08AFA0022DFF8383601F0C7F9DDE994
:1029F000042301F05DF8CDE90401DDE90423DDE9FC
:102A0000080101F00DF809D2DDE904010022DFF828
:102A10004C3601F071FACDE904016D1E05F1630039
:102A2000C72834BF042405243A051CD5DDE9080174
:102A3000DFF83026DFF8303600F0DAFF0FD800225A
:102A4000DFF8283600F0ECFF09D2B542BABF761B9A
:102A5000761E002647F480670024002503E016B1A7
:102A6000780548BF761E1B98844234BFA0EB04094A
:102A70004FF00009B80702D50CB14FF000093DB185
:102A8000DDE90801DDE9042301F036FACDE90801AA
:102A9000CDF818B0B8F1000F1DBFDDE9080181F0D5
:102AA000004141EC100B9DED080B27F400600290F3
:102AB000109B0F99CDF8049000F045F806468CB3B2
:102AC000B806109B0F994CBF452065203246D04771
:102AD000002D46BF01206D42002005210A230591EB
:102AE000002202930392019006F10108641E109BDC
:102AF0000F990494009542465046FFF7E2FC0646C3
:102B0000B8070FD50F9C109D1B9FDDF8188005E0BE
:102B10002B46324621462020D047761CA6EB0800E3
:102B2000B842F5D330460AB0BDEC048BBDE8FE8F49
:102B300002460B4651EC190B01F0DEB90022DFF81A
:102B4000303500F055BF00965A46504641E54FF0EB
:102B5000FF326FF4801300F063BF2DE9FF4F89B09F
:102B60004FF0000BDDF85880C1B9DFF80815099166
:102B700014E000F021FA0BF1010B00F018FAF8D381
:102B800009940A95CDF82C9005E00B9B0A99099CB5
:102B90005A46A047BB460C98411C0C910C980078F3
:102BA000002800F0F08125280BF10107EDD10C98E9
:102BB000411C0C91002503E045F01005411C0C91CF
:102BC00045F002040C980178202910D02329F3D075
:102BD0002B2909D02D2905D0302908BF45F0010542
:102BE000ECD007E02546E9E745F00405E6E745F0C7
:102BF0000805E3E70846FFF7A4FB002620B10CA870
:102C0000FFF7A4FB06460BE00C9801782A2907D1B0
:102C100058F8046B002E44BF25467642411C0C91A7
:102C200000240C9801782E2918D1411C0C9145F4F0
:102C300080650878FFF785FB20B10CA8FFF786FBBD
:102C400004460BE00C9801782A2907D158F8040BA8
:102C50000028C8BF04460C98411C0C9145F48070B4
:102C60000C990A78682A12D06A2A0CD06C2A04D0EF
:102C7000742A18BF7A2A16D018E0491C0C91054610
:102C800009786C2912D10C9845F4007509E0491CAB
:102C90000C91084645F080050178682906D145F079
:102CA0004005411C01E00546491C0C9108F1070054
:102CB00020F0070C0C980078252845F020023FF4FE
:102CC00064AF452812D046280DD047280ED058288A
:102CD00018BF62281BD0632800F0C380642816D078
:102CE000652803D0662800F0A280672800F0A7803E
:102CF000692818BF6F280AD0702800F03481732823
:102D000000F0DF80752818BF78287FF43EAF782860
:102D100008BF102113D0582802D1102115460EE00B
:102D20006F2808BF08210AD0622808BF022106D0F8
:102D30000A21692818BF642825F0100501D025F064
:102D40000C056A0544BF6D086D000027692818BF8F
:102D500064284DD1A80520D5DCE90023002B0CF117
:102D6000080812D54FF0010C524263EB430300F008
:102D700018F9CDF808C0CDE900230A990B9B0998F2
:102D80005A46FFF7D8FB834605E70120BB42BC4605
:102D9000EADBECDC8242E7D3E9E7EA0515D558F82F
:102DA000040B00280ED5012240420595049602919D
:102DB000009001920B9B0A99099803945A46FFF7D9
:102DC00080FBE0E73A46EFDDEFE7680603D558F809
:102DD000040BC0B204E0280658F8040B48BF00B248
:102DE000002802D501224042DFE73A46FBDDDCE75E
:102DF000A80507D500F0D5F80297DCE900230CF10F
:102E00000808B8E7E80504D558F8040B00F0D9F82D
:102E1000D4E7680603D558F8040BC0B204E02806CE
:102E200058F8040B48BF80B200F0CBF8C6E746283C
:102E300008BF154600F0CFF8FFF7CBFBA3E745F43A
:102E40000061672808BF0D4606D047280CBF0D4615
:102E5000452801D145F0200500F0BDF8FFF7F4FC4E
:102E600091E7A8074FF0010A12D4099C0A9FDDF8E8
:102E70002C9006E04B465A4639462020A0470BF1DD
:102E8000010B00F094F8F5D309940A97CDF82C9033
:102E90005A4658F8040B0B9B0A99099CC0B2A047EC
:102EA000A8070BF1010B56D5099C0A9DDDF82C9063
:102EB00000F07DF8BFF464AE00F07EF80BF1010B7A
:102EC000F6E758F8040B0190002C14BF21464FF090
:102ED000FF31024600E0521C107800281EBF084651
:102EE000411E0028F7D10198121A6905009204D5F5
:102EF0001046A04288BF20460090A807DDF8249025
:102F0000DDF828A00B9F17D40098411CB042009117
:102F100012D23B465A4651462020C8470BF1010BBE
:102F2000F2E70198401C01903B46401E5A4600784B
:102F30005146C8470BF1010B0199087828B1680583
:102F4000EFD52046441E0028EBD1CDF82490CDF8D3
:102F500028A0AA070B977FF51EAE099C0A9DDDF8F5
:102F600000A0B94609E608210023102258F8040BF6
:102F7000049101930090029245F021050B9B0A9960
:102F80000998059519E70B980A99099C834534BF60
:102F90005A46421E03460020A04758460DB0BDE8E1
:102FA000F08F08950796CDE90417069470475046B0
:102FB000B04200F1010A70474B465A46294620208C
:102FC00020470595049603940291019700900B9B6E
:102FD0000A99099870470295019600940B9B0A99EB
:102FE00009989CED000B0CF108085A46704708B48C
:102FF000C0B5134603AA009200F003F806BC5DF8C2
:1030000008FB0A4601461C48A7E5000065CDCD41F6
:1030100065CDCDC1406900080000E03FFFFF0F0013
:103020000000F03FFB799F501344D33FB3C8608B3F
:10303000288AC63F0000F8BF61436F63A787D23F6D
:1030400071A379094F930A401655B5BBB16B024085
:10305000EF39FAFE422EE63F00002C4000002440EB
:10306000000018402D431CEBE2361A3F80842E41AD
:103070000000F07F4123000839230008666E692DA7
:1030800000000000666E692B00000000DFF83804C5
:10309000016821F080710160026842F08072026074
:1030A000DFF828040168490849000160002102682E
:1030B00042F001020260416000BF00BF00BF4068F3
:1030C000401E8041C00F7047DFF8041408680028D4
:1030D00048BF012013D40868420048BF02200ED424
:1030E0000868820048BF032009D40868C20048BFAE
:1030F000042004D4086842014CBF062000200A685E
:1031000042F400020A6070472DE9F84F2DED088B5C
:10311000AEB001F015F8FFF7D7FF044600F016FA3D
:1031200001F01EF801F080F801F0A6F801F074F942
:1031300001F0FEF901F07FFAFEF7F3F8FEF70DF962
:1031400001F0C8FADFF88C537F21284601F0D6FB46
:10315000DFF88413284601F0D1FB01F0A7F9FFF74F
:1031600095FF00902346DD4A37211FA8FFF73FFF58
:103170001FA8FEF757F801F07CFBC82001F05EFBAA
:103180004FF4487001F063FB0322D549284601F053
:1031900054FD18B10FF25040FEF744F8D148DFF863
:1031A00048B302F084F9D149D14B0020088018803F
:1031B0000027D04B18705F708146DFEDB9AA9FEDF4
:1031C000B8BA0025804682469870DF709FEDB58AB8
:1031D000DFEDB58A9FEDB59ADFEDB59A9FEDB5AA03
:1031E000ADF81000059010E00395CDF80890CDF8EB
:1031F000048036B2009623B2BF4A3C2106A8FFF7EE
:10320000F6FE06A8FEF70EF80127BC49087800284C
:10321000FBD0BB49086800220A6000EE108AB7495B
:103220000A70B8EEC00AB74A13681988B64AB74B95
:1032300000EE901A20EE0A0AF8EE600A00EEA90AE3
:10324000FDEEC00A10EE908A0FFA88F8414600EEB3
:10325000901AF8EEE00A9FED980A80EE800ABDEE23
:10326000C00A10EE104A148001EE105A19680D8839
:10327000A7490B681988A5F50065B8EEC11A00EEDC
:10328000105A21EE0A1AB8EEC00A00EE291ABDEE55
:10329000C10A10EE105A2DB2641B24B200FB04F2D6
:1032A00000EE102AB8EEC00ADFED840AC0EE200A54
:1032B000A1F5006230EE8BBA00EE109A12B2B8EEB1
:1032C000C00A00EE902A20EE0A0AF8EEE00A00EEAC
:1032D000A90A9049904A0E88FDEEC00A10EE909A15
:1032E0000FFA89F9A6EB090636B2704301EE100A0F
:1032F000B8EEC11A9FED710A81EE000A107870EEE7
:103300002AAA38B39FED6E0A2AEE800ABDEEC00AE3
:103310007748824BB0F9002010EE101A09B20591DF
:1033200000EE902A734A1170F8EEE00A059960EEFB
:10333000AA0AFDEEE00A091210EE90AA51700FFAE7
:103340008AFA4FEA2A20D07082F802A074497548A0
:1033500002F0D4FD002200F0F5F8002200F0ECF8B5
:10336000F4EE49AAF1EE10FA04DB00F0EAF8F0EE10
:1033700068AA08E0F4EE48AAF1EE10FA03D500F0CE
:10338000E0F8F0EE48AAB4EE49BAF1EE10FA04DB28
:1033900000F0D7F8B0EE68BA08E0B4EE48BAF1EE43
:1033A00010FA03D500F0CDF8B0EE48BA4F48B0F9A6
:1033B000000000EE100A5848017864007600B8EE6C
:1033C000C00A00EE904A01EE106ADFED3E1A0129B4
:1033D00020EE0B0AF8EEE00AB8EEC11A6BEE211AE5
:1033E00012D105A8B0F9001002EE101AB8EEC22AE8
:1033F00030EE020A30EE010ABDEEC00A10EE104AAD
:10340000514600EE101A13E0474A4849B2F900004D
:10341000B1F9003002EE900AF8EEE22A70EE222AAC
:1034200032EE811ABDEEC11A11EE104A00EE103ACA
:10343000B8EEC00A31EE800A30EE200A20B2BDEEAE
:10344000C00AB0F57A7F10EE106AA8BF40F2E734E8
:1034500003DA37498842B8BF0C4630B2E728A8BF24
:10346000E62604DA10F1E60FB8BF6FF0E506BDF905
:10347000101030B2401A02F0BAFD332802DB0122EC
:1034800000F05AF830B201F0D9F920B201F0DFF9BA
:103490002848ADF8106087423FF4A6AE7F1CB4E622
:1034A000000000008FC2F5BC8FC2F53C90C2F53C15
:1034B000CDCC4C3ECDCC4C3F48E12A404054894CC9
:1034C00000E0AB4600409C45FCED00E0001000E051
:1034D00094100240BC04002000007F408068000877
:1034E000F0060020640600200004004804070020C5
:1034F0000607002024000020BC6800080807002000
:10350000041000E008000020000700200400002054
:10351000000000200207002028000020FC060020F8
:103520000C000020A4060020D0060020D2060020B7
:1035300019FCFFFF400D03004FF48071584600F066
:103540003AB901222021584600F035B900B5BDB086
:10355000482105A800F056F81421684600F052F8FA
:10356000982117A800F04EF8002000F0D6F94FF48B
:103570008031069102220321119110921E21139194
:1035800001200590129007220221149215911691A4
:1035900005A8FEF7FBF90F200321009001910022FE
:1035A00002920392049205216846FEF776FC002100
:1035B00003222691279118924FF0805108223791CB
:1035C0001A920121022219911C921D9244F20300C9
:1035D000179007214FF080721B911E9217A802F0DE
:1035E0000BFD3DB000BD70474661696C6564207499
:1035F0006F20496E697469616C697A652041444342
:103600000D0A0000002202F0D9BF00002DE9F84F9A
:1036100000276B4A6B4B4FF00F0805460E4634E00F
:10362000694CA54214BF082407248C40674944EA2A
:103630000E0441F82C40C143146801EA040C74687C
:10364000E40348BF40EA0C0CC2F800C0546801EA29
:10365000040C7468A40348BF40EA0C0CC2F804C010
:10366000946801EA040C7468E40248BF40EA0C0C58
:10367000C2F808C0D46801EA040C7168890248BF26
:1036800040EA0C0CC2F80CC07F1C316831FA07F01C
:1036900000F08F800124BC4014EA0100F4D04FEA0E
:1036A000470C032101FA0CF16FEA010E7168012940
:1036B00018BF022903D0112918BF122912D1A968F5
:1036C000D6F80C900EEA010109FA0CF949EA010159
:1036D000A960696821EA04047168C1F30011B94066
:1036E0000C436C60E968B4680EEA010104FA0CF45A
:1036F0002143E960B9007468022C18BF122C12D162
:10370000FC0805EB840401F01C09D4F820A008FA99
:1037100009FB2AEA0B0AD6F810B00BFA09F949EAB4
:103720000A09C4F820902C680EEA040E347904F0DB
:10373000030404FA0CF444EA0E042C607468E400F8
:10374000A2D51C6844F001041C604FEA970C1C6869
:1037500004F00104009401F00C01009C1B4C54F88F
:103760002C4008FA01FE24EA0E0EB5F1904F08BF76
:1037700000241DD0164CA54208BF012418D0154CBA
:10378000A54208BF022413D0134CA54208BF03244E
:103790000ED0124CA54208BF042409D0104CA542FB
:1037A00008BF052404D00F4CA5427FF439AF06248E
:1037B0003BE7BDE8F18F0AB18161704781627047D4
:1037C0000004014060100240001C00480800014055
:1037D0000004004800080048000C004800100048A1
:1037E00000140048001800480901020002D42948CA
:1037F00081547047284B02F00F021A4402F8041C4F
:103800007047264B19684FF6FF020002114000F482
:10381000E0600843224908431860704770B51F4BA9
:103820001C68C4F302230124C3F10705052D2EBF34
:103830000F2504FA05F56D1E1E1D072E34BF00234B
:10384000DB1E2940994004FA03F3BDE870405B1E7B
:103850001A401143C8E7010007D4012200F01F01FC
:10386000104B8A40400943F82020704710B5401E95
:10387000B0F1807F01D3012010BD0B4C60600F219F
:103880004FF0FF30FFF7B0FF0021A160072020605C
:10389000002010BD00E400E018ED00E00CED00E0B9
:1038A0000000FA0500E100E010E000E070B50E4E07
:1038B0000446B0680025A0B14FF47A710B4AB1FB01
:1038C000F0F11068B0FBF1F0FFF7D0FF48B9102C11
:1038D00007D2002221464FF0FF30FFF79FFF7460B0
:1038E00000E00125284670BD24030020300300209D
:1038F000DFF8B400016801F4C061B1F5806F02D156
:103900004FF480607047DFF8A4000168CA0502D553
:103910004FF4007070470020704710B53222DFF876
:103920009030DFF88840DFF8801048B900F01EF8CA
:1039300020F48070206017D100F01FF80CD413E041
:10394000B0F5007F0AD100F011F840F480702060DB
:103950000AD100F012F807D5032010BD0A6822F43E
:10396000C06242F480620A60002010BD086800F462
:10397000C060B0F5806F206870470C6824F4C064A4
:1039800044F400740C601868DFF828304243B2FB3E
:10399000F3F0401C00E0401E4A69530501D50028A1
:1039A000F9D14869410570470070004080700040BF
:1039B0003003002040420F00704700004018491CAF
:1039C0001CBFB1F1010100F8012DF9D170470000D1
:1039D00090420CD141EA030C50EA4C0C07D09942BA
:1039E00005D14FF4001C1CEB410F38BF89427047D2
:1039F0004FF4001C1CEB410F94BF1CEB430F09E07C
:103A000041EA030C50EA4C0C52EA0C0C03D28B42F4
:103A100008BF8242704714BF99429042704700002D
:103A20004FF4001C1CEB410F94BF1CEB430F09E04B
:103A300041EA030C50EA4C0C52EA0C0C03D29942B6
:103A400008BF9042704714BF8B428242704700000B
:103A5000C1F30A5340F2FE329B1A14DDD3F1200366
:103A60004FEAE17208DDC90241EA505141F00040DD
:103A7000D84080185040704703F2E13010B1D24373
:103A800082F000407047002070470000C11768B105
:103A90004840401AB0FA80F29040D21CC907C2F5E3
:103AA000846241EA025202EBD021400570470000D7
:103AB000B0B581EA030C0CF0004C40F2FF7515EA3A
:103AC00011541DBF15EA1357AC42AF4239E0E41957
:103AD00023EA455343F48013C90241F0004141EA0F
:103AE000505EC7021100A7FB020200284FF0000041
:103AF000EEFB01204FF00001E3FB072118BF42F06D
:103B00000102401800214941E3FB0E01A4F5806445
:103B10000F0302D252004041494154F101046CDDCF
:103B2000470872F1004250F1000051EB0451A1F539
:103B300080115CBF41EA0C01B0BD4CEA0551002088
:103B4000B0BD05EA1357AC4214BFAF4241E050EAA2
:103B5000410E1CBF52EA430E02E061460020B0BD98
:103B600024423C441BD15FEA070EF6D0090302BF92
:103B700001460020AEF1140EB1FA81F7AEEB070456
:103B800001FA07FE0C37C7F1200100FA07F7C84019
:103B90004EEA000E23EA455343F48013A2E733F0C4
:103BA0000043B3FA83F704BFB2FA82FE77440B3FB7
:103BB000E41BB7F1200E2FBF02FA0EF3BB40C7F192
:103BC000200E22FA0EFE38BF43EA0E03BA40641CF0
:103BD00082E750EA410E14BF52EA430E6FF0000133
:103BE0004FF4001717EB430F8ABF194617EB410F2D
:103BF000B5E74CEA05510020B0BDD4F10104B4F1A1
:103C000020070FDAC4F12007520828BF42F0010252
:103C100010FA07F501FA07F7E1BF2A43E0403843FD
:103C2000E1400FE0352C98DCC7F1200452EA400255
:103C300020FA07F218BF42F0010231FA07F0A14062
:103C40000A43002172F1004250F1000051EB0C01D7
:103C5000B0BD0000400D491840EA81200CD2490D4A
:103C6000A1F58061491C40F0004005DBD1F11F0146
:103C700054BFC840C017704700207047014648B184
:103C8000B0FA80F18840C91CC1F58461090501EBD7
:103C9000D02140057047000070B44FF0004591EA14
:103CA000030F40F173806B40841A71EB030603D25B
:103CB000001BB141121973414FF4001C1CEB410F62
:103CC00034BF7CEB430442E00C0DA4EB1356352EBD
:103CD0004FDC45EAC323DB0A45EAC121C912B6F12C
:103CE00020050DDD63FA05F6EB4086EA0305124276
:103CF00018BF45F00105C01851F100010CD213E0C6
:103D000062FA06F5F2405540F3415A40B340F340A1
:103D10005A408018594107D349085FEA30005FEAEA
:103D2000350528BF45F0010501F58011420875F100
:103D3000004250F1000041EB04514E0016F5001F07
:103D400070BC38BF70470020090D090570471CEB97
:103D5000410F10D252EA43060BD0BCEB410F05D8FD
:103D60000C0DAB43661E342EB6DD02E0AB4380186B
:103D7000594170BC704770BC7047000070B44FF080
:103D8000004591EA030F7FF58FAF6B40841A71EB0A
:103D9000030604D26E40001BB141121973414FF467
:103DA000001C1CEB410F34BF7CEB430683E00C0D81
:103DB000A4EB1356362E00F37C80012E45EAC32374
:103DC00041DC43EA525312BFD20292025B0824053F
:103DD00045EAC12141EA5051D2EBC020994125D496
:103DE00007D1B0FA80F610FA06F162D00020203632
:103DF00008E0B1FA81F6B140C6F1200220FA02F2E1
:103E00001143B0404FEAF474B4EB465434F0010669
:103E10004FEA74040AD8D6F50016760D04F0004473
:103E2000F04061FA06F25040F1404840C00A40EAD2
:103E3000415021F0004128BF5FEA500550F10000D9
:103E400044EBD12135E0DB0A45EAC121C90AB6F1CC
:103E500020050EDD42EA0242120CC5F1200603FAEB
:103E600006F6EB4042EA06056D42984161F1000119
:103E70000DE062FA06F5F240554063FA06FC82EA6C
:103E80000C02F3405A406D42904161EB030111F482
:103E9000801F05D1641E620502D06D00404149417A
:103EA00021F48011430875F1004350F1000041EB0B
:103EB000045170BC70471CEB410F15D223F0004336
:103EC00052EA43060BD04FEA4C0CBCEB410F04D82E
:103ED0000C0D661E342EB7DDEBE7801A994150EACF
:103EE000410608BF0021E4E708BF1CEB430F28BFD1
:103EF0006FF00001DDE70000F0B540F2FF7581EAE8
:103F0000030C0CF0004C15EA11541DBF15EA1357B1
:103F1000AC42AF42E5E0BC41C1F31301C3F313036C
:103F2000801A994143F4801304D2641E4000494131
:103F300080185941C90241EA5051B1FBF3F603FB25
:103F40001611A2FB0675D7EBC020A94102D2761E3E
:103F500080185941C90241EA5051B1FBF3FE03FBFD
:103F60001E11A2FB0E75D7EBC020A94103D2AEF102
:103F7000010E80185941890241EA9051760546EABE
:103F80008E2EB1FBF3F603FB1611A2FB0675D7EBE1
:103F90008020A94102D2761E80185941C90241EA07
:103FA00050514EEA060EB1FBF3F603FB1611A2FBCD
:103FB0000675D7EBC020A94102D2761E8018594160
:103FC000C90241EA5051B1FBF3F703FB1711A2FB01
:103FD0000735D3EBC020A94167F100070CBF0042B1
:103FE00047F0010766F3D5274FEA1E31B80814F5EC
:103FF000806412DDBD0775F1004250EB0E5051EBAD
:10400000045111F5801F5CBF41EA0C01F0BD4CF07A
:104010007F6141F0E0410020F0BDBD076D0840EA3E
:104020000E5041F48011D4F10104B4F120060ADAF3
:10403000C4F120060200E04001FA06F3E140184313
:10404000B24015430EE0342C13DCC6F1200445EADF
:1040500040056D0820FA06F2154321FA06F0A1404A
:104060000D43002175F1004250F1000051EB0C01AD
:10407000F0BD00205FEA0C01F0BDCFB992185B41A2
:10408000B3FA83F704BFB2FA82F6BF190B3FB7F158
:1040900020062FBF02FA06F3BB40C7F1200622FA22
:1040A00006F638BF3343BA401CB1E419641E33E747
:1040B0007F4231F00041B1FA81F404BFB0FA80F6DA
:1040C000A4190B3CB4F120062FBF00FA06F1A14061
:1040D000C4F1200620FA06F638BF3143A0403C1B4D
:1040E0001AE7AC421ABF05EA1357AF4212E050EA92
:1040F00041061CBF52EA4306BFE750EA410730467B
:1041000061461CBF41EA0551F0BD52EA430C08BFAD
:10411000C143F0BD00204FF4001616EB410F98BFCD
:1041200016EB430F08BF16EB410F24BFC14305E058
:1041300016EB430F0CBF61464CEA0551F0BD000081
:10414000032010B5FFF75DFB0020FFF7AFFB002455
:10415000002814BF012402F04BFA204610BD0000D5
:1041600038B586B014220021684602F059FA274873
:10417000274D0168274C41F004010160026802F0FC
:10418000040205920599026842F080020260036809
:1041900003F0800305930599026842F00102026072
:1041A000036803F0010305930599026842F00202D7
:1041B00002600022006800F0020005904FF40051F8
:1041C00005982846FFF7F7FA00224FF4E4612046ED
:1041D000FFF7F1FA4FF4005100F01EF82846FFF700
:1041E00015FA0A20032100900191002202926946EB
:1041F0004FF09040FFF70AFA4FF4E46100F00CF83A
:104200002046FFF703FA07B030BD00004C10024013
:10421000000800480004004800910122002102919A
:10422000039101926946704780B51248016841F0D8
:1042300004010160026802F0040200920099026821
:1042400042F0010202600022006800F001000090CC
:10425000002100980B20FFF7E1FA0B20FFF7FBFA93
:10426000002200210C20FFF7D9FABDE802400C2003
:10427000FFF7F1BA4810024018B589B00C220021AE
:1042800006A802F0CDF918220021684602F0C8F90C
:104290000021564C6160E160012155482060216198
:1042A000042060610321E161012000226076012188
:1042B000A260227684F820206162A26204F13000BC
:1042C00000210122E162027041600172204600F08B
:1042D000EAFB08B1FFF787F90020069006A92046FF
:1042E00000F054FB08B1FFF77EF942490091062225
:1042F0000192052102917F22039204210491002260
:10430000059200F01AF808B1FFF76DF93A483B4AF8
:1043100000900C21019100F00FF808B1FFF763F94C
:1043200037480090122101917F2200F005F808B172
:10433000FFF759F90AB010BD03926946204600F014
:1043400017BE38B586B004461422002101A802F039
:1043500067F921682648814240D12A482A4D0168E0
:1043600041F400510160026802F400520092009989
:10437000026842F0010202607121006800F0010051
:1043800000900B22009801910292002103914FF0BE
:10439000904001A9FFF73AF91C482860052169609F
:1043A0004FF48070802168612961202000224FF441
:1043B0008061E861AA60EA60A9612A622846FDF787
:1043C0009DF808B1FFF70FF92565AC6200220021C6
:1043D0001220FFF723FA1220FFF73DFA07B030BD95
:1043E0000B4901200870704700000000BC04002049
:1043F000000004502000F0140002B02500007F40AF
:104400000008302E4C100240240500200800024015
:10441000080700207047000080B54148414901600D
:104420000F22426000234FF440324FF4401183606A
:10443000C360026141618361838301F049FC18B16B
:10444000BDE80140FFF7CFB801BD10B586B0044606
:104450001422002101A802F0E3F8216831488142CA
:1044600022D13148C16841F00071C160C16801F0DA
:10447000007100910099026842F0010202604FF45D
:10448000C051006800F001000090022200980191E4
:10449000029200210391032209210591049201A9AE
:1044A0004FF09040FFF7B2F806B010BD38B51F4C82
:1044B0001B4D0020606300210120A163E0632162A5
:1044C0006162A162E16221630122226404F12001A0
:1044D000284601F077FC08B1FFF785F8284601F07F
:1044E000D2FC08B1FFF77FF8207F012806D0022117
:1044F000284601F06EFD08B1FFF775F8022020761E
:104500000521617640F2213020600021E160002029
:104510000122A060042120756260216131BD00008C
:10452000A4060020006400404C1002400C00002053
:1045300018B599B01022002115A802F071F800F00A
:10454000C4F800F073F82C2200210AA802F068F8E1
:10455000DFF88443DFF8840320600021616021617B
:1045600061614FF4FA702022E0608021A260A161B5
:10457000204600F08FFF08B1FFF735F84FF4805068
:10458000159015A9204601F063F908B1FFF72BF843
:10459000204600F0B1FF08B1FFF725F80020009099
:1045A000019002906946204602F066F808B1FFF7D4
:1045B0001AF8DFF82C030390FA21049100220592E7
:1045C000069207920892099200F07BF808B1FFF773
:1045D0000AF8042200F075F808B1FFF704F8082281
:1045E00000F06FF808B1FEF7FEFF00F069F808B1BF
:1045F000FEF7F9FF00204FF400510A900B900C9049
:104600000D900E900F91109011904FF0007213903A
:10461000149012920AA9204602F06BF808B1FEF736
:10462000E2FF204600F0BAF81AB010BD1C220021AB
:1046300003A801F0F5BF10B58EB0102200210AA822
:1046400001F0EEFF00F041F8FFF7F0FFA54C4FF04E
:104650008040206000214FF47A70E060616080202B
:10466000A061A1602161204600F014FF08B1FEF7AF
:10467000BAFF4FF480500A900AA9204601F0E8F8EA
:1046800008B1FEF7B0FF204600F036FF08B1FEF794
:10469000AAFF00F049F808B1FEF7A5FF60210391D9
:1046A0004FF4FA72002104920591079100F008F886
:1046B00008B1FEF798FF204600F070F80EB010BD6C
:1046C0000C2203A9204601F01EB80C2200216846E6
:1046D00001F0A6BF18B587B01022FFF7A8FFFFF7BB
:1046E000F4FF814C8148206040F2E7311020002225
:1046F000E0606160A2602261A261204600F0CAFE13
:1047000008B1FEF770FF4FF48050039003A92046D4
:1047100001F09EF808B1FEF766FF00F005F808B159
:10472000FEF761FF08B010BD002100910291204604
:10473000694601F0A1BF80B50068684A6C499042A3
:1047400008D1886840F400608860886800F40060E0
:1047500000900AE0B0F1804F09D1086840F00100F4
:104760000860096801F001010091009801BD5F4AED
:10477000904212D1086840F00200086000220968E7
:1047800001F002010091002100981D20FFF746F87A
:10479000BDE802401D20FFF75EB801BD10B586B030
:1047A00004461422FFF792FF21684C4B5148524AAD
:1047B000994225D1116841F002011160136803F09C
:1047C000020305930599136843F001031360022364
:1047D000126802F0010205924FF4204200F024F822
:1047E000FEF714FF00224FF4A06002210292039210
:1047F000009001910122049269464FF090400FE031
:10480000B1F1804F0ED1116841F002011160022315
:10481000126802F0020205924FF4006200F004F800
:10482000FEF7F4FE06B010BD059900920193002238
:104830000292039269460122049270472649096850
:1048400000F1FA02CA63C0F1FA0008647047254912
:10485000284B0968012804DBC0F57A70086401223E
:1048600002E04042086400224FF480611846FEF7DF
:10487000A2BF10B5184C0021204600F04AFE08B136
:10488000FEF7B1FE0021204601F0E0FE08B1FEF780
:10489000AAFE0821204600F03CFE08B1FEF7A3FE68
:1048A0000821204601F0D2FE08B1FEF79CFE2068E8
:1048B0000C4CFA2141638163C163016420460C21E1
:1048C00000F027FE08B1FEF78EFE21684FF4FA7063
:1048D000086410BD00000000E4050020002C014029
:1048E000600001002406002064060020000400404F
:1048F00058100240000400484C1002407CB50446A9
:10490000002004F154060D4600903178012901D1B0
:10491000022076BD0120307000F035F8010070688B
:104920002AD120F4885040F00200706005F08045E4
:104930002268DFF8F800936803401D4345F0004506
:10494000956020688068C00F10D00098401C0090CF
:104950000098B0F5912FF4D3706820F0020040F079
:104960001000706000203070012076BD706820F06B
:10497000020040F0010001E040F0100070600020F3
:104980003070084676BD204600F0FABCF0B500F164
:10499000540400222378012B01D10220F0BD012311
:1049A00023700568264EB54225D1264FDFF898C002
:1049B0003B68DCF800506D0730D45B072ED40B68E1
:1049C000224D1B4EE3B1336890F8300023F4604E63
:1049D0004B6843EA0E0343EA40303060DCF80000E5
:1049E0003B681843C3071CD43768086889683D4092
:1049F00005430D4310E000F01DF822700120F0BDCA
:104A0000306820F460403060DCF80000396808430A
:104A1000C00706D431680D40356002E000F00AF8A6
:104A20000122002020701046F0BD0000C0FFFF3FB3
:104A300008030450606840F0200060607047000088
:104A4000000004500801045008000450E0F0FFFF8B
:104A500070470000603000EB8100006800F0F84013
:104A60007047603000EB8100016821F000410A438B
:104A700002607047C06800F44060401E8041C00F73
:104A80007047CB0D10B5143003F004031818090D4E
:104A900001F01F01036807248C40A34302FA01F1CF
:104AA0001943016010BDF8B50025044600950CB906
:104AB0000120F2BD04F15406706820B92046FFF7CA
:104AC00040FCB560357021688868800004D58A682C
:104AD000DFF8640402408A6021688868C00015D449
:104AE0008A68DFF85804024042F080528A60DFF89A
:104AF0005014DFF850240868B0FBF2F2009202E094
:104B00000098401E009000980028F9D12068816824
:104B1000C90008D4726842F0100272600125B168C1
:104B200041F00101B16081687268D30600D4490781
:104B30007CD4726822F4807242F002027260806853
:104B4000C00710D4DFF80014DFF8002408681168EB
:104B50000843C00707D4DFF8F8130A68606822F436
:104B60007C1202430A6004F13002607E5368E168FF
:104B700094F8207043EA4033A0680B430343012FAD
:104B800043EA074303D1606A401E43EA4043A06AF8
:104B900020B1E16A00F47070084303432168DFF834
:104BA000B403CF6807403B43CB602368996898689B
:104BB000490726D4000724D4DF68DFF89C13D069A6
:104BC0000F40217E0743107847EA813747EA4007C4
:104BD000DF60107A01280FD123681F69D16810693E
:104BE0006FF38A070F435169074390690F430743E7
:104BF00047F001071F6104E0206801694908490086
:104C00000161206901282068016B05D1E269090969
:104C1000521E42EA011101E00909090101637068AD
:104C200020F0020040F00100706004E0706840F085
:104C30001000706001252846F2BD2DE9F0410E46B6
:104C40000546DFF80C030468296888684007904629
:104C500004F01F045AD405F154073978012955D0BE
:104C60000120002C1CBF052C092C38704BD1284684
:104C700000F051FB010043D17968DFF85C07014087
:104C800041F480717960DFF864062968814200D1BF
:104C90001CB9786820F48010786043467868C104B5
:104CA00046BFB86820F006000020B8600FF25971C6
:104CB000286DC162286D0FF2BD710163286D0FF27E
:104CC000BD7141631C212A68116000203870324692
:104CD0002868416841F0100141602868C16841F0CE
:104CE0000101C160286800F14001286DFCF770FCEB
:104CF0002A68924993680B4043F00403936006E0EE
:104D00000021397003E000223A7000E00220BDE883
:104D1000F0812DE9F0470646DFF8349230680768E5
:104D20004568D9F80040B80704F01F040ED5A9075C
:104D30000CD5B06DC10603D4B06D40F40060B06511
:104D4000304601F035FD3168022008607807DFF851
:104D5000A0A501D5690703D438073AD5290738D566
:104D6000B06DC10603D4B06D40F40070B06530681A
:104D7000FFF780FE38B33068DFF87015884204D141
:104D8000002C1CBF052C092C01D1C16801E0DAF808
:104D90000010890417D40368190714D581684907DE
:104DA0000FD4426822F00C024260B06D20F4807093
:104DB000B065B06DC10406D4B06D40F00100B065BF
:104DC00001E000F0CBF83046FFF70AFB31680C2019
:104DD0000860B80601D5A90603D478064AD5690645
:104DE00048D5B06DC10603D4B06D40F40050B06535
:104DF0003068C16C01F0C001B1F1010868EB08082E
:104E0000FFF738FE3168DFF8E42491424FEAD878A2
:104E100004D1002C1CBF062C072C01D1CA6801E06C
:104E2000DAF80020B8F1000F04D193011CD4D8B1F6
:104E3000900419D40868400616D5920214D48868E4
:104E400000070FD44A6822F060024A60B06D20F477
:104E50008050B065B06DC10506D4B06D40F0010062
:104E6000B06501E000F07AF83046FFF7F1FD3168F7
:104E70006020086038060BD5290609D5B06D40F4CE
:104E80008030B065304601F094FC316880200860C5
:104E9000F8050CD5E9050AD5B06D40F40030B065D1
:104EA000304601F087FC31684FF480700860B80527
:104EB0000CD5A9050AD5B06D40F48020B065304608
:104EC00001F079FC31684FF400700860F8061CD5D9
:104ED000E9061AD5706B50B12CB1D9F8000010F466
:104EE000604F04D10EE03068C168C8070AD5B16DC3
:104EF00041F48061B165F06D40F00200F06530462C
:104F000001F05AFC316810200860780512D5690557
:104F100010D5B06D40F48040B0654FF48061F06D05
:104F200040F00800F065306801603046BDE8F047A9
:104F300001F043BCBDE8F087C0FFFF5FC0FFFF7F0B
:104F400030030020400D0300080004500801045005
:104F50000803045007C0F0FFF9BFFFFFB06D40F039
:104F60001000B065F06D40F00100F0657047000082
:104F7000F8B50646002406F154050F46009429783A
:104F8000012901D10220F2BD012028703168886812
:104F9000400700F1A1817868062812D2801E0328FC
:104FA0000DD8DFE800F0020406080C2008E012210A
:104FB00003E0182004E04FF48071796001E00620DE
:104FC00078607968326838688B09303203F00C03F6
:104FD0009A1801F01F01D2F800C01F238B40C0F3C4
:104FE00084602CEA030300FA01F119431160306870
:104FF00082688168520732D4090730D4BA68B2F1A6
:10500000004F08D139680022FFF73BFD3068416945
:1050100041F0004106E03968FFF733FD306841692F
:1050200021F0004141613068C1683A69042A17D013
:1050300060303B6800EB820CDFF8A003DCF8002056
:10504000024003F0F8431343C9087A69480000F0AE
:1050500006008240134343F00043CCF8003076E072
:105060000021FFF7F7FC40033068214604D1FFF729
:10507000F1FCC0F3846003E0FFF7ECFC00F03AF9C8
:1050800039684A030EBFC1F3846191FAA1F1B1FA04
:1050900081F1884204D1306800220021FFF7E1FC51
:1050A00000F035F9400304D100F031F9C0F3846019
:1050B00003E000F02CF900F01DF939684A030EBF37
:1050C000C1F3846191FAA1F1B1FA81F1884204D16E
:1050D000306800220121FFF7C4FC00F014F94003FE
:1050E00004D100F010F9C0F3846003E000F00BF984
:1050F00000F000F939684A030EBFC1F3846191FAE8
:10510000A1F1B1FA81F1884204D130680022022174
:10511000FFF7A7FC00F0F3F8400304D100F0EFF82C
:10512000C0F3846003E000F0EAF800F0E3F83968C7
:105130004A030EBFC1F3846191FAA1F1B1FA81F182
:10514000884204D1306800220321FFF78AFC3168CD
:105150008868C00771D4FA683B68D1F8B0C0DFF83E
:1051600080E202F01802C3F312002EFA02F22CEAD7
:10517000000013400343C1F8B030F868DFF8641250
:1051800088425AD1386841030EBFC0F3846290FA56
:10519000A0F1B1FA81F2521C012102F01F020A2A89
:1051A00023D2420308D13A683B68C0F38460C2F35B
:1051B0008462C3F3846307E090FAA0F3B3FA83F048
:1051C000B3FA83F2B3FA83F3401C521C800602F058
:1051D0001F025B1C00F0F840914003F01F030143E5
:1051E00003EB430341EA035123E0420306D1C0F33A
:1051F0008462C0F38463C0F3846007E090FAA0F097
:10520000B0FA80F2B0FA80F3B0FA80F0521C5B1C66
:10521000401C920603F01F0300F01F0002F0F8424A
:1052200099400A38114300EB400041EA005141F037
:105230000071BA683068FFF724FC3B68DFF8A8010A
:1052400003424ED0DFF88C01DFF8A0710168DFF86F
:10525000A021BB4201F0E0711DD10B0241D43668A0
:1052600096423ED10268DFF88C3122F0E0721143A1
:1052700041F4000101600C20DFF87C110A68B2FBE8
:10528000F3F343430093009800281EBF0098401E8C
:105290000090F8D125E0DFF86471BB420BD1CB015F
:1052A0001FD4366896421CD1026822F0E072114386
:1052B00041F080710EE0DFF84871BB4211D14B0222
:1052C0000FD4366896420CD1026822F0E072114386
:1052D00041F48001016004E0686840F020006860EB
:1052E0000124002028702046F2BD00000001045077
:1052F0000C00045090FAA0F0B0FA80F070473068CB
:105300000321FFF7A7BB30680221FFF7A3BB30687A
:105310000121FFF79FBB70B5044621688868C2076A
:105320001FD488686FF39E10D0B98868354D284027
:1053300040F001008860FCF7C9FF0646206801685C
:10534000CA070ED48068C00705D420688168294048
:1053500041F001018160FCF7B9FF801B0328EDD308
:1053600001E0002070BD00F001F870BDA06D40F0BC
:105370001000A065E06D40F00100E065012070477D
:1053800038B50446216888688A68D2071ED5800728
:105390001CD48A6802F00D02012A14D18A681948C7
:1053A000024042F002028A60032120680160FCF79B
:1053B0008DFF054621688868C10707D5FCF786FF81
:1053C000401B0328F6D3FFF7D1FF32BD002032BDCA
:1053D0000000000008030450FEF1FFFF00F0FF038F
:1053E000FFFF070000007F4000000880000052C758
:1053F00000000450400D030030030020000084CB67
:1054000001000080C0FFFF7F10B5846AA16D11F01C
:10541000500F22D1A06D40F40070A065216808688B
:105420000207084606D5FFF725FB88B12068C1684A
:10543000880401E0C16888070AD4A16D21F4807155
:10544000A165A06DC10403D4A06D40F00100A0656A
:105450002046BDE81040FEF7C3BFA16DCA0604D5C3
:105460002046BDE8104001F0A7B9216D4A6BBDE8A8
:1054700010401047806AFEF7CDBF0000806A816D42
:1054800041F040018165C16D41F00401C16501F049
:1054900093B9000038B5040001D1012032BD00F0FD
:1054A00071F818B900F06AF8FFF745F913E00168E0
:1054B000C86840F00100C8608A68DFF8D000024088
:1054C000062A18BFB2F5803F03D0086840F00100FB
:1054D00008600020704702206870211D206800F0DD
:1054E00014FA01206870002032BD03D0086840F033
:1054F00001000860002010BD38B5040001D1012072
:1055000032BD00F03FF818B900F038F801F056F954
:10551000E1E710B500F02DF800F020F81CBFDFF82F
:105520007020914209D000F010F81FBFDFF864200E
:105530009142DFF86400814201D100F00AF800F0E6
:1055400012F818BFB2F5803FCFE7DFF85000814274
:1055500070474A6C42F400424A6470472168DFF8A1
:105560004000814270478A68DFF820000240062A26
:10557000704704460122206800F09BBB002129707F
:105580002046704704F13C05687870470700010029
:105590000034014000440140004801400040014007
:1055A000002C014010B50446206801698A0715D512
:1055B000C1688A0712D56FF00201016101222277CA
:1055C000806910F0030F204602D001F0F8F803E0E4
:1055D00001F0F6F800F094F80020207720680169C7
:1055E0004A0715D5C1684A0712D56FF00401016159
:1055F00002222277806910F4407F204602D001F019
:10560000DEF803E001F0DCF800F07AF80020207703
:10561000206801690A0715D5C1680A0712D56FF01D
:105620000801016104222277C06910F0030F2046AF
:1056300002D001F0C4F803E001F0C2F800F060F815
:105640000020207720680169CA0615D5C168CA06FE
:1056500012D56FF01001016108222277C06910F4A1
:10566000407F204602D001F0AAF803E001F0A8F83C
:1056700000F046F80020207720680169CA0708D5A5
:10568000C168CA0705D56FF001010161204601F02C
:1056900098F8206801690A0608D5C1680A0605D588
:1056A0006FF080010161204601F08CF820680169EB
:1056B000CA0508D5C1680A0605D56FF48071016175
:1056C000204601F080F8206801694A0608D5C168C3
:1056D0004A0605D56FF040010161204601F074F8DB
:1056E000206801698A060AD5C1688A0607D56FF065
:1056F000200101612046BDE8104001F066B810BDF0
:10570000204601F063B870B500F090F801D1022096
:1057100070BD00F098F852B1042A1BD0082A2CD092
:105720000C2A3DD0102A4ED0142A60D073E0306885
:10573000294600F040F93068816941F0080100F025
:1057400071F821F00401816131688A692869024396
:105750008A6160E03068294600F06EF9306881693E
:1057600041F4006100F05EF821F4806100F05AF825
:105770002A6941EA022181614DE03068294600F042
:1057800094F93068C16941F0080100F047F821F050
:105790000401C1613168CA6928690243CA613AE0FB
:1057A0003068294600F0B9F93068C16941F40061F8
:1057B00000F034F821F4806100F030F82A6941EA01
:1057C0000221C16127E03068294600F0CDF9306838
:1057D000416D41F0080141653068416D21F00401DF
:1057E000416531684A6D286902434A6513E03068B3
:1057F000294600F0E3F93068416D41F400614165EC
:105800003068416D21F4806141653068416D2A69DD
:1058100041EA0221416500F010F870BDC1613068B5
:10582000C16970478161306881697047064606F139
:105830003C040D462078012870470120607000214B
:105840002170002070470120207002216170704794
:1058500038B500F04EF801D1022032BD0120207091
:1058600002226270DFF8B0032A68936803409360F5
:105870000868020018BF10282DD0202818BF302833
:1058800029D0402823D0502816D0602818D070285E
:1058900003D0B0F5005F07D021E000F025F82868BC
:1058A000816841F0770105E000F01EF82868816802
:1058B00041F48041816012E000F012F850210BE0C9
:1058C000CA684968286800F0D0F9602104E000F057
:1058D00007F8402100E00146286800F0D8F90EE002
:1058E000CA6849682868B1E1CB684A68896828684D
:1058F000D5E1054605F13C042078012870470120D8
:10590000607000212170002032BD2DE9F043DFF8E6
:105910000C73D0F800C0DFF80833DFF80843DFF875
:105920000853DFF80863DFF808E3DFF80883DFF8DF
:105930000893B84218BFB0F1804F07D0484518BF50
:10594000404503D0704518BFB0420ED14A68B842F6
:105950002CF0700C18BFB0F1804F42EA0C0C0CD048
:1059600048451CBF4045704507D0B04218BFA8420B
:1059700003D0A04218BF984204D1CA682CF4407CDE
:1059800042EA0C0C4A692CF0800C42EA0C020260DC
:10599000B8428A68C26218BFB0420A68826204D004
:1059A000A8421CBFA042984201D1096901630122AB
:1059B0004261BDE8F0832DE9F041026ADFF85C82C4
:1059C000DFF868E2DFF85C72DFF85CC25208520070
:1059D0000262066A44688569DFF860220B6826F077
:1059E000020615408A6816431D43404518BF70459E
:1059F0008B4B04D060451CBFB84298420DD1CA6899
:105A000026F008061643404518BF704526F00406E8
:105A100005D0604518BFB84201D0984205D14B6906
:105A20008A6924F440741C431443446085614968C6
:105A300041630662BDE8F081F0B5026A22F010020F
:105A40000262056A436884697D4A0E6814408A6868
:105A500044EA062425F0200545EA02156F4E734AF4
:105A6000B04218BF904208D1CF6825F0800545EAC2
:105A70000715B04225F040050AD090421CBF6A4A83
:105A8000904205D0674EB0421CBF654A904206D195
:105A90004E698A6923F44063164343EA86034360F0
:105AA0008461496881630562F0BDF0B5026A634BA9
:105AB00022F480720262066A4468C5690A6826F4A4
:105AC00000761D408B6846EA03261543534B574A20
:105AD000984218BF904208D1CF6826F4006646EA83
