:020000040800F2
:1000000070060020593B0008313B0008353B0008D2
:10001000373B0008393B00083B3B0008000000006C
:100020000000000000000000000000003D3B000850
:100030003F3B000800000000413B0008433B000834
:100040008D3B0008913B0008953B0008993B000858
:100050009D3B0008A13B0008A53B0008A93B000808
:10006000AD3B0008B13B0008B53B0008B93B0008B8
:10007000BD3B0008C13B0008C53B0008C93B000868
:10008000CD3B0008D13B0008D53B0008D93B000818
:10009000DD3B0008E13B0008E53B0008E93B0008C8
:1000A000ED3B0008F13B0008F53B0008F93B000878
:1000B000FD3B0008013C0008053C0008093C000825
:1000C0000D3C0008113C0008153C0008193C0008D4
:1000D0001D3C0008213C0008253C0008293C000884
:1000E0002D3C0008313C000800000000353C0008B1
:1000F000393C00083D3C0008413C0008453C0008F4
:10010000493C00084D3C0008513C0008553C0008A3
:10011000593C00085D3C0008613C0008653C000853
:10012000693C00086D3C0008713C0008753C000803
:10013000793C00087D3C0008813C0008000000007C
:10014000853C0008893C00088D3C0008913C000873
:10015000953C0008993C00089D3C0008A13C000823
:10016000A53C0008A93C0008AD3C0008B13C0008D3
:10017000B53C0008B93C0008000000000000000089
:10018000BD3C0008C13C0008C53C0008C93C000853
:10019000CD3C0008D53C0008000000000000000035
:1001A0000000000000000000D13C0008D93C00081D
:1001B000DD3C000800000000E13C000838B5040008
:1001C00009D004F17C05696809B900F01EF800F057
:1001D00021F8012801D1012032BDA06A08B100F048
:1001E0002AF800F00AF821F02A01FFE7816000F008
:1001F0001BF8BDE8324000F0BABD2068416821F428
:100200009041416020688168704700202870204636
:1002100000F065BF2421696020680268520852001E
:100220000260204600F00AB82068016841F0010130
:10023000016020467047204600F036BD2DE9F84F9A
:100240000446DFF8301AD4F800A0DFF82CBADAF848
:100250000020A068DFF8247A0A402169024360691F
:100260000A43E1690243606E0A430243CAF8002070
:100270000026DAF80410E068DFF8042A21F440517F
:100280000143CAF804109245A1691CBF206A0143CA
:10029000DAF80820DFF8EC0902401143CAF8081028
:1002A000B046DAF82C10606A090940EA0111CAF870
:1002B0002C10DA454FF400404FF480754FF4007174
:1002C0004FF480624FF400634FF4805C4FF4005EA3
:1002D0004FF4804933D13F6807F0030BBBF1030FA4
:1002E0003BD8DFE80BF002706083012700974FF6E0
:1002F000F077D4F81CB0DFF890A9BBF5004FDDF81B
:1003000000B040F08783BBF1000F10D0BBF1010FAC
:1003100000F09882BBF1020F00F0C482BBF1040F21
:1003200000F0FD82BBF1080F00F0318364E301F0BF
:10033000F8FA0146606A002840F0598280E2DFF84E
:100340004CB9DA4520D13F6817F00C0761D0042F73
:1003500039D0082F27D00C2F48D01027DFF820B92C
:10036000DA45C3D14FB1022F00F09280042F00F084
:10037000CB80082F00F0FB8088E001F0D2FA014624
:10038000606A002847D172E0DFF804B9DA450CD181
:100390003F6817F030073CD0102F14D0202F02D028
:1003A000302F23D0D9E70227D8E7DFF8E8B8DA45BD
:1003B0000BD13F6817F0C0072BD0402F03D0802F00
:1003C000F1D0C02FEDE70427C8E7DFF8CCB8DA4555
:1003D0000ED13F6817F440771BD0B7F5807FF2D07D
:1003E000B7F5007FDFD0B7F5407FB6D10827B5E776
:1003F000DFF88CB8DA45B0D13F6817F4406708D011
:10040000B7F5806FDFD0B7F5006FCCD0B7F5406F90
:10041000C7E70027A2E7012808BF022028D002284A
:1004200008BF042024D0032808BF062020D00428B9
:1004300008BF08201CD0052808BF0A2018D00628AD
:1004400008BF0C2014D0072808BF102010D008289F
:1004500008BF20200CD0092808BF402008D00A2857
:1004600008BF802004D00B2808BF284600D00120F8
:10047000B1FBF0F0002800F0F183626802EB42016A
:10048000884203D31303834280F0B08000F0E4BBC2
:10049000606AB0B3012808BFDFF8EC07EDD002288E
:1004A00008BFDFF8AC09E8D0032808BFDFF8A409CB
:1004B000E3D0042808BFDFF8A009DED0052808BF74
:1004C000DFF89809D9D0062808BFDFF89409D4D0FE
:1004D000072808BFDFF88C09CFD0082808BFDFF84D
:1004E0008809CAD0092808BFDFF88009C5D00A28C2
:1004F00008BFDFF87C09C0D00B2808BF4FF22440AA
:10050000BBD0DFF87009B8E701F0C2F90146606AB4
:100510000028ACD0012808BF0220A9D0022808BFBB
:100520000420A5D0032808BF0620A1D0042808BFB6
:1005300008209DD0052808BF0A2099D0062808BFAA
:100540000C2095D0072808BF102091D0082808BF9C
:1005500020208DD0092808BF402089D00A2808BF54
:10056000802085D00B2808BF2846FAD07FE7D4F832
:1005700024A0BAF1000FC6D0BAF1010F08BF484657
:10058000C1D0BAF1020F08BF70462ED0BAF1030FE6
:1005900008BF41F2555028D0BAF1040F08BF604699
:1005A00023D0BAF1050F08BF40F6CC401DD0BAF1F8
:1005B000060F08BF40F6AA2017D0BAF1070F08BFF0
:1005C000184612D0BAF1080F08BF10460DD0BAF184
:1005D000090F08BF084608D0BAF10A0F08BF28461D
:1005E00003D0BAF10B0F00D1802046E747B1022FAC
:1005F00036D0042F00F07180082F00F0A680EAE0CA
:1006000001F08FF90146606A40B3012808BF022556
:100610001ED0022808BF04251AD0032808BF0625CB
:1006200016D0042808BF082512D0052808BF0A25BF
:100630000ED0062808BF0C250AD0072808BF1025B1
:1006400006D0082808BF202502D0092808BF402569
:1006500072D00A280CBF80250B286DD001256BE0D5
:10066000606A002836D0012808BFDFF80C682BD05C
:10067000022808BFDFF8046826D0032808BFDFF887
:10068000006821D0042808BFDFF8F8671CD00528CF
:1006900008BFDFF8F46717D0062808BFDFF8EC675B
:1006A00012D0072808BFDFF8E8670DD0082808BF78
:1006B000DFF8E06708D0092808BFDFF8DC6703D05F
:1006C0000A2808BFDFF8D4677BD00B2808BFDFF803
:1006D000A46776D0DFF8C86773E001F0D9F8014667
:1006E000606A40B3012808BF022525D0022808BF50
:1006F000042521D0032808BF06251DD0042808BFE3
:10070000082519D0052808BF0A2515D0062808BFD6
:100710000C2511D0072808BF10250DD0082808BFC8
:10072000202509D0092808BF402505D00A280CBF7C
:1007300080250B2800D001256268B1FBF5F6370E45
:100740005008002110EB06203FE0606A002836D0F8
:10075000012808BF4FF4800633D0022808BF4FF4A9
:1007600000162ED0032808BFDFF8386729D00428E8
:1007700008BF4FF4801624D0052808BFDFF828678B
:100780001FD0062808BFDFF824671AD0072808BF43
:100790004FF4002615D0082808BF4FF4802610D04B
:1007A000092808BF4FF400360BD00A2808BF4FF4C1
:1007B000803606D00B2808BF4FF4004601D04FF416
:1007C00000060027002116EB52007941002301F0BA
:1007D00047F9064601E04FF00108A6F54070DFF842
:1007E000D016884280F038822268D66036E201282E
:1007F00008BF022525D0022808BF042521D00328E0
:1008000008BF06251DD0042808BF082519D00528D3
:1008100008BF0A2515D0062808BF0C2511D00728C7
:1008200008BF10250DD0082808BF202509D00928A9
:1008300008BF402505D00A280CBF80250B2800D012
:1008400001259BE001F075F80146606A40B301287C
:1008500008BF0225F5D0022808BF0425F1D00328DF
:1008600008BF0625EDD0042808BF08250AD00528B2
:1008700008BF0A2506D0062808BF0C2502D0072885
:1008800008BF10257AD0082808BF202576D009286F
:1008900008BF402572D00A280CBF80250B286DD0D8
:1008A00001256BE0606A90B301280CBFDFF8C4A596
:1008B00002282ED0032808BFDFF8F8A529D0042885
:1008C00008BFDFF88CA524D0052808BFDFF8E8A50D
:1008D0001FD0062808BFDFF87CA51AD0072808BF5C
:1008E000DFF874A515D0082808BFDFF878A510D068
:1008F000092808BFDFF870A50BD00A2808BFDFF869
:100900006CA506D00B2808BFDFF864A501D0DFF87E
:100910008CA560680AEB5001B1FBF0F66AE000F0CC
:10092000B7FF0146606A40B3012808BF022525D001
:10093000022808BF042521D0032808BF06251DD0A2
:10094000042808BF082519D0052808BF0A2515D096
:10095000062808BF0C2511D0072808BF10250DD088
:10096000082808BF202509D0092808BF402505D040
:100970000A280CBF80250B2800D001256068B1FB38
:10098000F5F1420802EB4102B2FBF0F632E0666A92
:1009900066B3012E2CD0022E08BF484628D0032E65
:1009A00008BF42F6AA2023D0042E08BF70461FD0ED
:1009B000052E08BF41F698101AD0062E08BF41F246
:1009C000545015D0072E08BF604611D0082E08BF1E
:1009D00018460DD0092E08BF104609D00A2E08BFB0
:1009E000084605D00B2E08BF284601D04FF48030B2
:1009F00000F054F9B6B201E04FF00108A6F1100082
:100A0000B84280F029813740C6F34200074320688E
:100A1000C76023E1BBF1000F0ED0BBF1010F3BD04B
:100A2000BBF1020F68D0BBF1040F00F0A180BBF155
:100A3000080F00F0D48006E100F073FF0146606A01
:100A400040B3012808BF022525D0022808BF04258D
:100A500021D0032808BF06251DD0042808BF08257B
:100A600019D0052808BF0A2515D0062808BF0C256F
:100A700011D0072808BF10250DD0082808BF202551
:100A800009D0092808BF402505D00A280CBF8025B9
:100A90000B2800D001259AE000F04BFF0146606A68
:100AA00040B3012808BF0225F5D0022808BF04255D
:100AB000F1D0032808BF06250AD0042808BF08255E
:100AC00006D0052808BF0A2502D0062808BF0C2535
:100AD0007DD0072808BF102579D0082808BF202519
:100AE00075D0092808BF402571D00A280CBF802581
:100AF0000B286CD001256AE0606A98B3012833D0D6
:100B0000022808BFDFF848A32ED0032808BFDFF86B
:100B100044A329D0042808BFDFF83CA324D005282B
:100B200008BFDFF838A31FD0062808BFDFF830A3BE
:100B30001AD0072808BFDFF82CA315D0082808BF53
:100B4000DFF824A310D0092808BFDFF820A30BD0BA
:100B50000A2808BFDFF818A306D00B2808BF4FF2F9
:100B6000244A01D0DFF80CA360680AEB500133E09F
:100B700000F08EFE0146606A40B3012808BF0225DE
:100B800025D0022808BF042521D0032808BF062548
:100B90001DD0042808BF082519D0052808BF0A253C
:100BA00015D0062808BF0C2511D0072808BF10252E
:100BB0000DD0082808BF202509D0092808BF4025E6
:100BC00005D00A280CBF80250B2800D001256068BD
:100BD000B1FBF5F101EB5001B1FBF0F631E0666AD3
:100BE0006EB3012E08BF484629D0022E08BF7046BA
:100BF00025D0032E08BF41F2555020D0042E08BF47
:100C000060461CD0052E08BF40F6CC4017D0062EFB
:100C100008BF40F6AA2012D0072E08BF18460ED0F3
:100C2000082E08BF10460AD0092E08BF084606D075
:100C30000A2E08BF284602D00B2E08BF802000F0E5
:100C40002DF8B6B201E04FF00108A6F11000B8424D
:100C500002D22168CE6001E04FF0010804F1680083
:100C60000121002341800180436083604046BDE84C
:100C7000F28F0000F369FFCF003801408810024076
:100C800000800040FFF4FF1100127A000044004091
:100C900000480040004C004000500040616800EBFC
:100CA0005100B0FBF1F6704790F82810CA0706D53E
:100CB00002685368C16A23F400330B43536090F811
:100CC00028108A0706D502685368016B23F4803325
:100CD0000B43536090F828104A0706D50268536802
:100CE000416B23F480230B43536090F828100A07CC
:100CF00006D502685368816B23F400430B435360AD
:100D000090F82810CA0606D502689368C16B23F4D0
:100D100080530B43936090F828108A0606D502682A
:100D20009368016C23F400530B43936090F82810F0
:100D30004A0610D502685368416C23F480130B43B4
:100D40005360436CB3F5801F05D15368816C23F465
:100D5000C0030B43536090F828100A0606D50168BB
:100D60004A68C06C22F4002202434A607047F8B51A
:100D7000044604F17C050020E8606FF07E4700F037
:100D800009FF0646206801680A0708D50097334620
:100D900000224FF40011204600F016F860B92068D8
:100DA00001684A070AD50097334600224FF48001B4
:100DB000204600F009F808B10320F2BD2020686049
:100DC000A86000202870F2BD2DE9F041069C054680
:100DD0000E4690461F462868C1693140B1420CBF9B
:100DE00001200020404520D114F1010FF3D000F084
:100DF000D1FEC01B844200D334B900F018F80021A2
:100E000001700320BDE8F081286801684A07E2D537
:100E1000C1690805DFD54FF400612A68116200221C
:100E200000F005F8C1600270EBE70020EAE72868EF
:100E3000016821F4D071016028688168490849007F
:100E4000816005F17C0020214160816070470000D5
:100E500000093D00AAB0280080841E00006A180026
:100E60005558140040420F0020A1070090D0030005
:100E700048E801000024F4000000127A0000093D57
:100E800000AAB0280080841E00006A18005558147B
:100E90000040420F0020A1070090D0030048E80165
:100EA000000024F40055150000CC0C0000AA0A0034
:100EB00000FD0F005461510000D43000DFF8E4025F
:100EC00081B0816841F001018160816801F0010118
:100ED00000910099026842F080520260006800F0C0
:100EE00080500090009801B0704710B586B000F0B7
:100EF00070F82168DFF8B002814211D1DFF8AC024E
:100F0000016841F400510160026802F4005200924D
:100F100000F035F8702100F02CF80B2200F04FF8AB
:100F200006B010BD10B586B000F053F82168A04897
:100F300081421CD19D48C16841F00071C160C16807
:100F400001F0007100F01AF84FF4C05100F011F8F0
:100F500002220098019102920021039103220921AB
:100F60000591049201A94FF0904000F019FE06B0DF
:100F700010BD006800F001000090704700910099DA
:100F8000026842F001020260704710B586B000F0BE
:100F900020F82168874881420FD18448C16841F018
:100FA0008041C160C16801F08041FFF7E7FF0B217C
:100FB000FFF7DFFF032200F002F806B010BD009833
:100FC00001910292002103914FF0904001A900F09D
:100FD000E7BD04461422002101A800F0CBBE10B5E5
:100FE00086B0FFF7F6FF2068734A7049904209D136
:100FF000486940F400604861486900F4006000906E
:1010000000981CE0B0F1804F19D1C86840F0010091
:10101000C860C86800F001000090009800F0A8F8CF
:1010200000914FF480610098644801910292002180
:10103000039104910121059101A900F0B1FD06B0D1
:1010400010BD10B586B000F09CF821685A4B5B4883
:10105000564A994225D1116841F002011160136886
:1010600003F0020305930599136843F0010313602D
:101070000223126802F0010205924FF4204200F0B0
:1010800024F800F08DFD00224FF4A06002210292AE
:101090000392009001910122049269464FF0904022
:1010A0000FE0B1F1804F0ED1116841F002011160E3
:1010B0000223126802F0020205924FF4006200F06F
:1010C00004F800F06DFD06B010BD05990092019383
:1010D000002202920392694601220492704710B5E1
:1010E00086B000F04EF82068354A3049904211D160
:1010F000486940F480404861486900F480400590A8
:10110000059800F035F80591C02105982B4800F0AE
:101110003EF829E02B4A904228D1C86840F40030BC
:10112000C860C86800F40030059005980A6842F06D
:1011300001020A600222096801F0010105910421FF
:10114000059800F024F84FF0904000F029FD0221AE
:1011500001914FF40040032100900391049100227B
:10116000029269464FF0904000F01AFD06B010BDA3
:101170000A6842F002020A600222096801F00201D4
:101180007047044614220021684600F0F3BD009128
:1011900001920021029103220721049103926946E2
:1011A0007047000058100240000004504C100240EC
:1011B0000064004000780040002C0140000400481A
:1011C00000380140004400402DE9FC47050065D08F
:1011D000DFF80878DFF81468BC68F86800F00308E6
:1011E0002878C10604F00C0448D524B10C2C08BFA3
:1011F000B8F1010F2CD13868810702D5E8690028C1
:101200004CD0396808074EBF396871680909686AA7
:1012100001F0F001814206D200F0A8FB00283DD188
:1012200000F047FA07E000F044FA24B9686A00F0D9
:101230009DFB002832D100F02BFBBA6800F01EFBAA
:10124000DFF8A007006800F09FFD010016D02AE239
:10125000E86928B3396841F00101396000F09AFC6F
:1012600081463868810707D400F094FCA0EB0900A0
:101270000328F6D3032016E200F01BFA2878C107F2
:1012800056D5082C04D00C2C08BFB8F1030F18D188
:10129000386881034CD56868002849D1012002E2F2
:1012A000386840084000386000F074FC81463868B7
:1012B0008107E3D500F06EFCA0EB09000328F6D30C
:1012C000D8E76868B0F5803F04D1386840F48030D2
:1012D000386011E0B0F5A02F386806D140F48020C6
:1012E0003860396841F4803105E020F4803038609E
:1012F000396821F480213960686860B100F04AFCE7
:1013000081463868810313D400F044FCA0EB090047
:101310006528F6D3AEE700F03DFC814638688103CE
:1013200006D500F037FCA0EB09006528F6D3A1E74D
:101330002878810713D5042C04D00C2C08BFB8F1F1
:10134000020F2FD13868410502D5E8680028A5D0E2
:101350007868296920F0FE4040EA016078602878CA
:10136000010768D568690028706854D0A96900F041
:10137000100291423ED000F00303022B8ED0C00732
:1013800032D5716849084900716000F003FC80465D
:101390007068810728D500F0FDFBA0EB080012283B
:1013A000F6D367E7E86878B1396841F4807139604D
:1013B00000F0F0FB804638684105C9D400F0EAFB34
:1013C00000F073F9F7D355E7386820F4807038607F
:1013D00000F0E0FB804638684105C0D500F0DAFB3C
:1013E00000F063F9F7D345E77168A86921F01001AF
:1013F00001437160706840F00100706000F0CAFB4A
:1014000080467068810716D400F0C4FBA0EB08008A
:101410001228F6D32EE740084000706000F0BAFBB7
:1014200080467068810706D500F0B4FBA0EB080089
:101430001228F6D31EE72878410773D5B86DC1008E
:101440004FF000080AD4B86D40F08050B8654FF0F6
:101450000108B86D00F0805000900098DFF890957A
:10146000D9F80000C10513D4D9F8000040F4807009
:10147000C9F8000000F08EFB8246D9F80000C105D3
:1014800006D400F087FBA0EB0A000328F5D3F1E6B1
:10149000A868C10715D5326822F0800200F08000EC
:1014A00010433060287A4107306807D540F00400C7
:1014B0003060316841F0010131600AE040F0010024
:1014C00006E03168490849003160306820F00400C6
:1014D0003060A86841F2893960B100F05BFB824658
:1014E0003068810717D400F055FBA0EB0A0048458F
:1014F000F6D3BFE600F04EFB82463068810706D582
:1015000000F048FBA0EB0A004845F6D3B2E630688D
:1015100020F080003060B8F1000F03D0B86D20F0EB
:101520008050B8652878810621D5A86A0028B0685F
:101530000ED040F00100B06000F02CFB8046B06897
:10154000810714D400F026FB00F0AFF8F7D391E642
:1015500040084000B06000F01DFB8046B068810785
:1015600005D500F017FB00F0A0F8F7D382E6E86A93
:10157000002800F09780022874D1F8682A6B00F0E8
:101580000301914201BF00F0F0016A6B521EB1EB02
:10159000021F1BD1AA6B00F4FE41B1EB022F02BF68
:1015A00000F07841EA6BB1EBC26F0FD12A6C5208A0
:1015B00000F4C001521EB1EB425F07D1696C4908CB
:1015C00000F0C060491EB0EB416F47D00C2C4AD0F0
:1015D0003868410101D43868C1003FF55FAE386812
:1015E00020F08070386000F0D5FA04463868810138
:1015F00005D500F0CFFA001B0328F7D33AE6F868C8
:10160000DFF8F0132A6B0840696B1043491E40EA6B
:1016100001102A6CA96B520840EA0120696C521E25
:10162000490840EA4250491E40EA4160E96B40EAFD
:10163000C160F860386840F080703860F96841F047
:101640008071F96000F0A6FA04463868810129D457
:1016500000F0A0FA001B0328F7D30BE638688101DD
:1016600020D4E7E70C2C3FF419AE386820F08070E6
:101670003860396811F0205F03D1F8688008800075
:10168000F860F968DFF870030140F96000F082FA51
:1016900004463868810105D500F07CFA001B032858
:1016A000F7D3E7E50020BDE8F687A0EB08000328A4
:1016B0007047386840F0080038603968686A21F07F
:1016C000F001014339607968286A21F47F4141EAD9
:1016D0000021796070472DE9F84304460027002C6B
:1016E00088465FD0DFF81463306800F00F00404593
:1016F00002D200F0B9F855D12078DFF8E052C107E6
:1017000078D56068DFF8F892032841D12868810114
:1017100048D5E868002100F0030001280FD12868AF
:10172000010705D4DFF8C0020168C1F3032002E01D
:101730002868C0F30310DFF8CC1251F82010E868D5
:1017400000F00300022804D0032804D1DFF8B81207
:1017500001E0DFF8B812EA68E868EB68C0F3062039
:101760004143C2F30310401CB1FBF0F0C3F34161ED
:10177000491C4900B0FBF1F0484521D3A96811F09C
:10178000F00F16D0207881071AD5A068C0B910E0F4
:10179000022802D12868810303E00028286802D1CA
:1017A000810702D43EE041053CD500F071F8484580
:1017B00006D3A86820F0F00040F08000A8608027E1
:1017C000A9686068890840EA8101A96000F0E2F92F
:1017D0008146A868616800F00C00B0EB810F09D069
:1017E00000F0D8F9A0EB090041F289318842F0D32A
:1017F000032037E02078810706D5AA68A06822F088
:10180000F0020243AA6005E0802F03D1A86820F00F
:10181000F000A860306800F00F00804504D200F0AE
:1018200023F801D001201DE02078410705D5AA68E2
:10183000E06822F4E0620243AA602178080706D536
:10184000A968206921F4605141EAC001A96000F053
:101850001FF8AA6800F012F8BDE8F243614800687A
:1018600000F092BABDE8F2833168090948EA011133
:101870003160306800F00F00404570476449C2F3A2
:101880000312895C564A01F01F01C840106070477E
:1018900070B5524A5C4B9068D6680025002110F064
:1018A0000C0006F00306594C03D00C2812D1012E6F
:1018B0001AD115682E0704D44B4D2E68C6F30325A4
:1018C00002E01568C5F303154E4E56F8255048B989
:1018D000294624E0042808BF214620D008281ED12C
:1018E00019461CE00C281AD1D06800F00300022829
:1018F00003D0032808BF1D4600E02546D168D06804
:10190000D268C0F306204543C1F30310C2F341611E
:10191000401C491CB5FBF0F04900B0FBF1F1084652
:1019200070BD2F483B4A006813683B49C3F302224D
:1019300006E02B48374A006813683749C3F3C222D0
:10194000895C01F01F01C84070472448016841F4D8
:1019500000210160704710B5304C2068C10504D5E6
:1019600000F060F84FF48070606010BD7CB52C4EC4
:10197000054630680024C10002D500F027FA0EE0C9
:10198000306840F080503060316801F08051009143
:10199000009800F01BFA316821F080513160B0F5F9
:1019A000007F04D1802D09D9A12D06D301E0802D1F
:1019B00001D3022402E0702D00D101240F480168F8
:1019C000090944EA01110160006800F00F00A0421B
:1019D00001D0012076BD002076BD0000001002403D
:1019E0000C000020040000209410024090100240DF
:1019F000007000400C809D01FFFFEEFE00200240C1
:101A000001B4C404483A000800127A000024F4002B
:101A1000383A000808100240843B00081C100240BD
:101A200058100240704730B4002513E050F8042BE2
:101A3000D30744BFA9F101039A18091F042942F8EA
:101A4000045BFAD213468C0744BF15809B1CC90760
:101A500048BF1D7050F8041B0029E7D130BC704707
:101A6000D3BBD9B1B2F5803F5BD2022A1ED98C46D6
:101A7000B1FBF2F102FB11C31B0443EA1043B3FBB9
:101A8000F2FC02FB1C3380B240EA0343B3FBF2F0EA
:101A900002FB103240EA0C4000237047022A05D9AD
:101AA0008446B0FBF2F002FB10C270474AB105D188
:101AB00000F0010249085FEA30007047002200236D
:101AC000704700F0E7B90B000200002100207047CA
:101AD000F7D3002200237047904271EB030CF2D33E
:101AE00070B5B1FA81F4B3FA83F52C1BA340C4F1AD
:101AF000200532FA05F63343A2405FF00046E64087
:101B000002E05B085FEA3202841A71EB030524BF2E
:101B1000204629467641F4D302000B003000002114
:101B200070BD70B5B1FA81F4B2FA82F5C4F1200447
:101B30006419B4F12006DAD3B2405FF00044F440F7
:101B4000002502E052085FEA3303C61A71EB020E69
:101B500024BF3046714664416D41F3D302000B004F
:101B60002000290070BD30B40EE0026843680244D2
:101B70000830DC0744BFA9F10104E31852F8045B04
:101B800043F8045B091FF9D150F8041B0029ECD17C
:101B900030BC704701480068704700BF000000205B
:101BA0002DE9F84F0027694A694B4FF00F080546A9
:101BB0000E4634E0674CA54214BF082407248C402D
:101BC000654944EA0E0441F82C40C143146801EA17
:101BD000040C7468E40348BF40EA0C0CC2F800C06F
:101BE000546801EA040C7468A40348BF40EA0C0C72
:101BF000C2F804C0946801EA040C7468E40248BFA7
:101C000040EA0C0CC2F808C0D46801EA040C716800
:101C1000890248BF40EA0C0CC2F80CC07F1C316836
:101C200031FA07F000F08F800124BC4014EA010073
:101C3000F4D04FEA470C032101FA0CF16FEA010ED0
:101C40007168012918BF022903D0112918BF122970
:101C500012D1A968D6F80C900EEA010109FA0CF924
:101C600049EA0101A960696821EA04047168C1F3C5
:101C70000011B9400C436C60E968B4680EEA0101D8
:101C800004FA0CF42143E960B9007468022C18BF0F
:101C9000122C12D1FC0805EB840401F01C09D4F8C5
:101CA00020A008FA09FB2AEA0B0AD6F810B00BFAB2
:101CB00009F949EA0A09C4F820902C680EEA040ED2
:101CC000347904F0030404FA0CF444EA0E042C60A2
:101CD0007468E400A2D51C6844F001041C604FEA5B
:101CE000970C1C6804F00104009401F00C01009CA6
:101CF000194C54F82C4008FA01FE24EA0E0EB5F1F6
:101D0000904F08BF00241DD0144CA54208BF0124E9
:101D100018D0134CA54208BF022413D0114CA54281
:101D200008BF03240ED0104CA54208BF042409D0DC
:101D30000E4CA54208BF052404D00D4CA5427FF4EB
:101D400039AF06243BE7BDE8F18F000000040140F5
:101D500060100240001C00480800014000040048D8
:101D600000080048000C004800100048001400481B
:101D70000018004810B5044610460A4601462046A1
:101D800000F08AF8204610BD70B50E4E0446B068CB
:101D90000025A0B14FF47A710B4AB1FBF0F1106845
:101DA000B0FBF1F000F0E3F848B9102C07D20022A4
:101DB00021464FF0FF3000F0BDF8746000E00125CF
:101DC000284670BD000000200C000020DFF8B400A1
:101DD000016801F4C061B1F5806F02D14FF48060F9
:101DE0007047DFF8A4000168CA0502D54FF40070FF
:101DF00070470020704710B53222DFF89030DFF8CE
:101E00008840DFF8801048B900F01EF820F4807098
:101E1000206017D100F01FF80CD413E0B0F5007F5C
:101E20000AD100F011F840F4807020600AD100F06F
:101E300012F807D5032010BD0A6822F4C06242F4EC
:101E400080620A60002010BD086800F4C060B0F530
:101E5000806F206870470C6824F4C06444F40074F8
:101E60000C601868DFF828304243B2FBF3F0401CE6
:101E700000E0401E4A69530501D50028F9D14869A0
:101E80004105704700700040807000400C00002049
:101E900040420F007047000062F30F2262F31F42BE
:101EA000401810F0030308D0C91A1FD3DB0748BF3E
:101EB00000F8012D28BF20F8022D130030B414467D
:101EC0001546103928BF20E93C00FAD8490728BF39
:101ED00020E90C0048BF40F8042D890028BF20F8F5
:101EE000022D48BF00F8012D30BC7047C91818BF3B
:101EF00000F8012DCB0728BF00F8012D7047000026
:101F00000901020002D4244881547047234B02F097
:101F10000F021A4402F8041C7047214B19684FF64F
:101F2000FF020002114000F4E06008431D4908432D
:101F30001860704770B51A4B1C68C4F30223012463
:101F4000C3F10705052D2EBF0F2504FA05F56D1EFB
:101F50001E1D072E34BF0023DB1E2940994004FAC2
:101F600003F3BDE870405B1E1A401143C8E710B58B
:101F7000401EB0F1807F01D3012010BD0A4C60608B
:101F80000F214FF0FF30FFF7BBFF0021A1600720BA
:101F90002060002010BD000000E400E018ED00E02B
:101FA0000CED00E00000FA0510E000E038B5040098
:101FB00001D1012032BD00F021F818B900F01AF863
:101FC000FFF70DF8FFE702206870211D206800F080
:101FD0001BF901206870002032BD38B5040001D122
:101FE000012032BD00F00AF818B900F003F800F043
:101FF000E3FAE8E7002129702046704704F13C0528
:102000006878704770B500F090F801D1022070BD7B
:1020100000F098F852B1042A1BD0082A2CD00C2AC0
:102020003DD0102A4ED0142A60D073E03068294683
:1020300000F040F93068816941F0080100F071F862
:1020400021F00401816131688A69286902438A614B
:1020500060E03068294600F06EF93068816941F42B
:10206000006100F05EF821F4806100F05AF82A69FE
:1020700041EA022181614DE03068294600F094F97F
:102080003068C16941F0080100F047F821F004010F
:10209000C1613168CA6928690243CA613AE030689F
:1020A000294600F0B9F93068C16941F4006100F0D7
:1020B00034F821F4806100F030F82A6941EA022105
:1020C000C16127E03068294600F0CDF93068416DE4
:1020D00041F0080141653068416D21F0040141651E
:1020E00031684A6D286902434A6513E03068294621
:1020F00000F0E3F93068416D41F4006141653068FA
:10210000416D21F4806141653068416D2A6941EA81
:102110000221416500F010F870BDC1613068C169ED
:1021200070478161306881697047064606F13C045A
:102130000D46207801287047012060700021217031
:10214000002070470120207002216170704738B56F
:1021500000F04EF801D1022032BD01202070022291
:102160006270DFF8B4032A689368034093600868DC
:10217000020018BF10282DD0202818BF302829D0E1
:10218000402823D0502816D0602818D0702803D0BB
:10219000B0F5005F07D021E000F025F828688168DD
:1021A00041F0770105E000F01EF82868816841F4ED
:1021B0008041816012E000F012F850210BE0CA6803
:1021C0004968286800F0D1F9602104E000F007F8C0
:1021D000402100E00146286800F0D9F90EE0CA6805
:1021E00049682868B2E1CB684A6889682868D6E1FE
:1021F000054605F13C0420780128704701206070F5
:1022000000212170002032BD2DE9F043DFF80C736E
:10221000D0F800C0DFF80833DFF80843DFF80853D0
:10222000DFF80863DFF808E3DFF80883DFF80893D6
:10223000B84218BFB0F1804F07D0484518BF40459D
:1022400003D0704518BFB0420ED14A68B8422CF096
:10225000700C18BFB0F1804F42EA0C0C0CD048450E
:102260001CBF4045704507D0B04218BFA84203D0FC
:10227000A04218BF984204D1CA682CF4407C42EABC
:102280000C0C4A692CF0800C42EA0C020260B84245
:102290008A68C26218BFB0420A68826204D0A8424B
:1022A0001CBFA042984201D1096901630122426129
:1022B000BDE8F0832DE9F041026ADFF86082DFF8C3
:1022C0006CE2DFF86072DFF860C25208520002620E
:1022D000066A44688569DFF864220B6826F0020606
:1022E00015408A6816431D43404518BF70458C4B06
:1022F00004D060451CBFB84298420DD1CA6826F090
:1023000008061643404518BF704526F0040605D060
:10231000604518BFB84201D0984205D14B698A691F
:1023200024F440741C43144344608561496841634C
:102330000662BDE8F081F0B5026A22F01002026286
:10234000056A436884697E4A0E6814408A6844EAD4
:10235000062425F0200545EA0215704E734AB04266
:1023600018BF904208D1CF6825F0800545EA0715CF
:10237000B04225F040050AD090421CBF6A4A904204
:1023800005D0684EB0421CBF654A904206D14E69E6
:102390008A6923F44063164343EA860343608461F9
:1023A000496881630562F0BDF0B5026A634B22F4AF
:1023B00080720262066A4468C5690A6826F400767B
:1023C0001D408B6846EA03261543544B574A9842F2
:1023D00018BF904208D1CF6826F4006646EA072667
:1023E000984226F480660AD090421CBF4E4A904222
:1023F00005D04C4B98421CBF494A904206D14B69CC
:102400008A6924F44054134344EA03144460C561C8
:102410004968C1630662F0BD70B5026A22F4805259
:102420000262036A4468C569454A00F06DF823F406
:10243000005343EA0233B0421CBF3C4A904207D0EB
:10244000394EB0421FBF374A9042354EB04204D198
:102450004A6924F4804444EA82144460C5614968AE
:102460000164036270BD70B5026A364B22F480329B
:102470000262046A4568466D0A681E4016438B680E
:10248000264A24F4003444EA034490421CBF274BFC
:10249000984207D0244A90421FBF224B9842204ABC
:1024A000904204D14A6925F4803545EA0225456009
:1024B000466549688165046270BD70B5026A22F4A0
:1024C00080120262036A4468456D1F4A00F01CF8DE
:1024D00023F4001343EA0253B0421CBF134A904254
:1024E00007D0114EB0421FBF0E4A90420C4EB04270
:1024F00004D14A6924F4802444EA82244460456576
:102500004968C165036270BD0E68154045EA06253D
:102510008A68024E704700008800FEFF002C0140D0
:1025200000480140004401400040014000340140A7
:10253000000C004000080040000400408CFFFEFF3B
:10254000FF8CFFFE8FFFFEFFFF8FFFFE10B5036ABB
:10255000046A64086400046223F00A03846924F0B6
:10256000F00444EA0214846123E010B5036A23F006
:10257000100303628369046A23F4704343EA02335D
:1025800024F0A004836144EA0114046210BD82684F
:1025900022F07002114341F007018160704710B5CD
:1025A000846824F47F442143114341EA032181607C
:1025B00010BD1943016210BD70470000603000EB90
:1025C0008100006800F0F8407047603000EB810047
:1025D000016821F000410A4302607047CB0D10B53D
:1025E000143003F004031818090D01F01F010368EB
:1025F00007248C40A34302FA01F11943016010BD86
:10260000F8B50025044600950CB90120F2BD04F18F
:102610005406706820B92046FEF767FCB560357037
:1026200021688868800004D58A68DFF86801024064
:102630008A6021688868C00015D48A68DFF858016C
:10264000024042F080528A60DFF85011DFF85021DA
:102650000868B0FBF2F2009202E00098401E009081
:1026600000980028F9D120688168C90008D47268F0
:1026700042F0100272600125B16841F00101B160C1
:1026800081687268D30600D449077CD4726822F44A
:10269000807242F0020272608068C00710D4DFF8D6
:1026A0000411DFF80421086811680843C00707D443
:1026B000DFF8F8100A68606822F47C1202430A60AE
:1026C00004F13002607E5368E16894F8207043EAB8
:1026D0004033A0680B430343012F43EA074303D170
:1026E000606A401E43EA4043A06A20B1E16A00F4F8
:1026F0007070084303432168DFF8B400CF680740D7
:102700003B43CB60236899689868490726D4000743
:1027100024D4DF68DFF89C10D0690F40217E074386
:10272000107847EA813747EA4007DF60107A0128CE
:102730000FD123681F69D16810696FF38A070F43AF
:102740005169074390690F43074347F001071F6131
:1027500004E02068016949084900016120690128F5
:102760002068016B05D1E2690909521E42EA011194
:1027700001E0090909010163706820F0020040F0DE
:102780000100706004E0706840F010007060012586
:102790002846F2BDC0FFFF5FC0FFFF7F0C00002096
:1027A000400D0300080004500801045008030450C1
:1027B00007C0F0FFF9BFFFFFF8B50646002406F199
:1027C00054050F4600942978012901D10220F2BD59
:1027D0000120287031688868400700F1A18178687D
:1027E000062812D2801E03280DD8DFE800F002046C
:1027F00006080C2008E0122103E0182004E04FF442
:102800008071796001E00620786079683268386804
:102810008B09303203F00C039A1801F01F01D2F833
:1028200000C01F238B40C0F384602CEA030300FA2E
:1028300001F119431160306882688168520732D40F
:10284000090730D4BA68B2F1004F08D139680022C4
:10285000FFF7C4FE3068416941F0004106E0396885
:10286000FFF7BCFE3068416921F0004141613068EA
:10287000C1683A69042A17D060303B6800EB820CCB
:10288000DFF8D802DCF80020024003F0F8431343DD
:10289000C9087A69480000F006008240134343F0FB
:1028A0000043CCF8003076E00021FFF787FE4003BC
:1028B0003068214604D1FFF781FEC0F3846003E055
:1028C000FFF77CFE00F036F939684A030EBFC1F30A
:1028D000846191FAA1F1B1FA81F1884204D13068A2
:1028E00000220021FFF771FE00F031F9400304D10E
:1028F00000F02DF9C0F3846003E000F028F900F047
:1029000019F939684A030EBFC1F3846191FAA1F144
:10291000B1FA81F1884204D1306800220121FFF729
:1029200054FE00F010F9400304D100F00CF9C0F39C
:10293000846003E000F007F900F0FCF839684A030E
:102940000EBFC1F3846191FAA1F1B1FA81F188421D
:1029500004D1306800220221FFF737FE00F0EFF8C3
:10296000400304D100F0EBF8C0F3846003E000F012
:10297000E6F800F0DFF839684A030EBFC1F384615E
:1029800091FAA1F1B1FA81F1884204D130680022B4
:102990000321FFF71AFE31688868C00771D4FA680E
:1029A0003B68D1F8B0C0DFF8B8E102F01802C3F319
:1029B00012002EFA02F22CEA000013400343C1F881
:1029C000B030F868DFF89C1188425AD1386841036A
:1029D0000EBFC0F3846290FAA0F1B1FA81F2521CEA
:1029E000012102F01F020A2A23D2420308D13A68C9
:1029F0003B68C0F38460C2F38462C3F3846307E07E
:102A000090FAA0F3B3FA83F0B3FA83F2B3FA83F344
:102A1000401C521C800602F01F025B1C00F0F840B4
:102A2000914003F01F03014303EB430341EA0351C9
:102A300023E0420306D1C0F38462C0F38463C0F391
:102A4000846007E090FAA0F0B0FA80F2B0FA80F368
:102A5000B0FA80F0521C5B1C401C920603F01F036E
:102A600000F01F0002F0F84299400A38114300EBD1
:102A7000400041EA005141F00071BA683068FFF748
:102A8000ADFD3B68DFF8E00003424ED0DFF8C80040
:102A9000DFF8D8700168DFF8D820BB4201F0E071A0
:102AA0001DD10B0241D4366896423ED10268DFF850
:102AB000C43022F0E072114341F4000101600C20A7
:102AC000DFF8B4100A68B2FBF3F3434300930098B5
:102AD00000281EBF0098401E0090F8D125E0DFF8C6
:102AE0009C70BB420BD1CB011FD4366896421CD1DF
:102AF000026822F0E072114341F080710EE0DFF8CD
:102B00008070BB4211D14B020FD4366896420CD173
:102B1000026822F0E072114341F48001016004E098
:102B2000686840F02000686001240020287020467A
:102B3000F2BD000090FAA0F0B0FA80F07047306863
:102B40000321FFF73BBD30680221FFF737BD306836
:102B50000121FFF733BD00000803045000F0FF031C
:102B6000FFFF070000007F4000000880000052C700
:102B700000000450400D03000C000020000084CB36
:102B8000010000802DE9F84F064600253068DFF887
:102B9000D873DFF8D8430105A84620D5F06E68B198
:102BA000202817D0402804D0602818BF802809D0DA
:102BB00013E0F96841F48031F96004E0002100F08D
:102BC000CFF9054655B96169F06E21F0E001014386
:102BD000616104E000F0BEF9F3E70125A846306822
:102BE000C10424D5306FC0B1B0F5807F1AD0B0F5E4
:102BF000007F06D0B0F5407F18BFB0F5806F04D0DD
:102C000013E0F96841F48031F9607DB96169306F92
:102C100021F4E0610143616109E0002100F0A0F9C5
:102C20000546F2E700F096F9FAE70125A846306874
:102C3000810306F184092DD5B86DC1004FF0000A5B
:102C40000AD4B86D40F08050B8654FF0010AB86DF5
:102C500000F0805000900098DFF81413086840F4EA
:102C600080700860FEF796FF8346DFF80403016872
:102C7000CA0500F18B80FEF78DFFA0EB0B00032847
:102C8000F3D30325A846BAF1000F03D0B86D20F0A6
:102C90008050B8653078C10705D52268F06B92087E
:102CA00040EA820222603178880705D52168306CBD
:102CB00021F00C01014321603178480705D52168D6
:102CC000706C21F03001014321603178080705D58F
:102CD0002168B06C21F0C001014321603178C80641
:102CE00005D52168F06C21F44071014321603178F1
:102CF000880605D52168306D21F4406101432160CB
:102D00003168880505D52168706E21F440210143A2
:102D100021603168480505D52168B06E21F4401165
:102D2000014321603178480605D52168706D21F492
:102D30004051014321603178080605D52168B06D06
:102D400021F44041014321603168C80505D521685F
:102D5000F06D21F44031014321603168C80205D58E
:102D60006169306E890840EA8101616131688804D7
:102D700043D52168706F21F0406101432160706F7D
:102D8000B0F1006F32D100F0DCF836E0002D7FF4B6
:102D900079AFA06810F440701CBFD9F810108842B9
:102DA0000BD0A068A16841F48031A16020F440708C
:102DB000A16821F48031A160A060C0070ED5FEF7A4
:102DC000E9FE8346A068810708D4FEF7E3FEA0EB86
:102DD0000B0041F289318842F4D352E7A168D9F857
:102DE000100021F440710143A1604CE7B0F1806F05
:102DF00003D100F0B4F800F0A9F83068010328D539
:102E0000B06FB0F5804F606903D140F480406061DD
:102E100008E020F4804060612168B06F21F04061DB
:102E200001432160B06FB0F1006F03D1F86840F446
:102E3000801005E0B0F5804F04D1F86840F4803090
:102E4000F86006E0B0F1806F03D100F088F800F080
:102E50007DF83068410313D52268F06F22F040629C
:102E600002432260F06FB0F1006F02D100F069F808
:102E700006E0B0F1806F03D100F071F800F066F861
:102E80003068410410D52268D6F8800022F0405204
:102E900002432260D6F88010B1F1805F04D1022194
:102EA00000F05EF800F052F83068C10306D56269A0
:102EB000D9F8000022F004020243626131688802FE
:102EC00006D56169D9F8040021F018010143616158
:102ED0003168480221D5396821F080513960FEF708
:102EE00059FE83463868810007D5FEF753FEA0EBF4
:102EF0000B000328F6D303250EE065B96169D9F804
:102F0000080021F440310143616106F120000221F3
:102F100000F088F8054605B1A8463068C1010DD516
:102F20006269D9F80C0022F4401202436261D9F8B8
:102F30000C10B1F5001F01D100F003F84046BDE8C8
:102F4000F28FF86840F48010F8607047054600B1D1
:102F5000A8467047002106F1200000F063B8012167
:102F6000301D00F007B80000001002408810024039
:102F7000007000402DE9F04100F0D4F806D0F96867
:102F800001F00301814228D160B926E0012804D074
:102F900023D303281BD016D31FE039688A071CD51A
:102FA00000F0BAF8386820F0806000F0B2F880468F
:102FB0003868010113D5FEF7EDFDA0EB08000328EA
:102FC000F6D303252DE039684A05E9D405E03968D0
:102FD0008A03E5D439684A03E2D4012521E0716807
:102FE000B268491E1CB93B6900F076F803E0012C79
:102FF0003B6900F079F842EA01113961386840F024
:10300000806000F086F804463868010105D4FEF7B8
:10301000C1FD001B0328F7D3D3E73869B169084322
:10302000386156E02DE9F04100F07CF806D0F968EF
:1030300001F00301814228D160B926E0012804D0C3
:1030400023D303281BD016D31FE039688A071CD569
:1030500000F062F8386820F0805000F05AF880469E
:103060003868810013D5FEF795FDA0EB0800032812
:10307000F6D303252DE039684A05E9D405E039681F
:103080008A03E5D439684A03E2D4012521E0716856
:10309000B268491E1CB97B6900F01EF803E0012CE0
:1030A0007B6900F021F842EA01117961386840F04B
:1030B000805000F02EF804463868810005D4FEF7F1
:1030C00069FD001B0328F7D3D3E77869B16908438A
:1030D00078612846BDE8F0811848F468034043EA67
:1030E000022242EAC462704709D13469144803409D
:1030F000640843EA0222641E42EA4452704774693B
:1031000010480340640843EA0222641E42EA446213
:1031100070473860FEF73EBDF968890840EA8100D3
:10312000F86070470646044F30680C46F968002581
:1031300011F0030F70470000001002400F80FF07DE
:103140000F809FFF0F80FFF92DE9F84199B000F043
:10315000BFF900F068F9A548A54C016841F080016D
:10316000016004F13005026802F08002009204F56B
:10317000D4760099026842F001020260036803F00D
:10318000010300930099026842F0020202600C22DF
:10319000006800F0020000900021009806A8FEF7E9
:1031A000E9FD182200F090F9924820604FF4802148
:1031B00061600420002260610121A260E26022615E
:1031C0002283E16184F820206162A262E2622A70B7
:1031D0006A602A722046FFF713FA0020069006A9BB
:1031E000204600F085F984490091062201920021D1
:1031F00002910421814A03920491002205926946BA
:103200002046FFF7D9FA7E48A86310210020E96321
:10321000286468644FF4A0014FF4A020A864E96416
:1032200004F1800500202860A88004F1680000F007
:10323000BFF974483060002108227160F26071614A
:103240003161B161B160F161304600F041FA1022A4
:10325000002115A8FEF78EFD00F035F900F0DEF82C
:103260002C2200210AA8FEF785FD67487063002123
:10327000B163F16331647164B164F16404F5EE78B3
:103280004046FEF793FE4FF48057159715A9404628
:10329000FEF75DFF4046FEF7A0FE00200090019083
:1032A00002906946404600F08DFA602000210390AC
:1032B000049100220691089105920792099200F06C
:1032C000A9F8042200F0A6F8082200F0A3F80C22C6
:1032D00000F0A0F800204FF400510A900B900C90E1
:1032E0000D900E900F91109011904FF0007213906E
:1032F000149012920AA9404600F0A1FA4046FDF748
:10330000A0FE102200210AA8FEF734FD00F0DBF831
:1033100000F084F84FF080407067002104F50A70D7
:10332000B167F16701604160C16004F5077630461E
:10333000FEF73CFE0A970AA93046FEF708FF304622
:10334000FEF74BFE0021009102913046694600F0E5
:1033500039FA60210022039104920592079203A991
:103360000C223046FEF74EFE3046FDF76AFE274837
:1033700028614FF4E13600200C216E61A861E861FC
:1033800028626962A862E86228636863A86304F13E
:1033900090052846FCF712FF0021284600F0BCFAF1
:1033A0000021284600F0C3FA284600F097FA04F5F9
:1033B0008E741748206000210C206061A160E160DC
:1033C0002161A161E16121626162A16266602046C2
:1033D000FCF7F4FE0021204600F09EFA0021204672
:1033E00000F0A5FA204600F079FAFEE74C10024002
:1033F00010000020000004500002B02500007F40B3
:103400000064004000780040002C0140003801407A
:103410000044004003A94046FEF7F4BD1C220021F1
:1034200003A8FEF7A7BC00B5BDB04822002105A83F
:10343000FEF7A0FC142200F047F89822002117A8FC
:10344000FEF798FC0020FEF7D6FC4FF48031069181
:1034500002220321119110921E2113910120059047
:1034600012900722022114921591169105A8FDF7DA
:10347000ABFE0F20032100900191002202920392E3
:10348000049205216846FEF726F9002103222691C1
:10349000279118924FF080511E2237911A920121E4
:1034A000022219911C921D9244F2030017900721E9
:1034B0004FF080721B911E9217A8FFF763FBFEF777
:1034C00044FA3DB000BD0C2200216846FEF752BC14
:1034D000032010B5FEF721FD0020FEF755FC002467
:1034E000002814BF0124FDF7E9FC204610BD0000B0
:1034F000F0B500F1540400222378012B01D1022001
:10350000F0BD012323700568254EB54225D1254F16
:10351000DFF894C03B68DCF800506D0730D45B07DF
:103520002ED40B68214D1A4EE3B1336890F8300069
:1035300023F4604E4B6843EA0E0343EA40303060A8
:10354000DCF800003B681843C3071CD437680868E0
:1035500089683D4005430D4310E000F01BF82270E0
:103560000120F0BD306820F460403060DCF80000DD
:1035700039680843C00706D431680D40356002E061
:1035800000F008F80122002020701046F0BD000075
:1035900008030450606840F020006060704700003D
:1035A000000004500801045008000450E0F0FFFF40
:1035B00038B5040022D094F8200010B92046FDF759
:1035C000B1FC00F077F8FEF7E5FA0546206841689F
:1035D000880705D5FEF7DEFA401B0B28F6D30BE073
:1035E00000F06EF8054620684168C80708D4FEF769
:1035F000D1FA401B0B28F6D300F054F8012032BD5D
:10360000207E012805D12168086840F0800008600C
:1036100004E02068016821F080010160607E00F014
:103620003DF80CBF41F0400121F040010160A07E57
:1036300000F034F80CBF41F0200121F020010160BE
:10364000E07E00F02BF80CBF21F0100141F01001DA
:103650000160207F00F022F80CBF41F0080121F04A
:1036600008010160607F00F019F80CBF41F004010F
:1036700021F004010160A268E068216902436069E9
:103680000A43616802432068491E0A43C26100215F
:103690006162012084F82000002032BD01282068EA
:1036A00001687047606A40F400306062052184F868
:1036B000201070472068016821F002010160704706
:1036C0002068016841F001010160FEF763BA000063
:1036D00038B504001EBF04F13105687805281CBF09
:1036E0006878022801D1012032BD6978687808B96C
:1036F000002129702046FDF748FC2068016821F46C
:1037000080510160E06808280BD1226828491368BD
:10371000A0680B40A169034300F041F843F008039F
:103720001360E0680C2809D1226822491368A06858
:103730000B4000F036F843F00C031360E06838B932
:1037400022681D481368A168034000F028F8136040
:10375000E169B1F5804F15D1A0682168174A0228A8
:1037600008D04868236A0240606A42EA03220243A2
:103770004A6007E08868A36A0240E06A42EA0322DE
:1037800002438A600E480268616822F000420A43E0
:103790000260687808B901216970002032BD206993
:1037A0000B4361690343E0690B4303437047000027
:1037B000C1B8FFFFF1BBFFFFF1B8FFFFE0E0FFFF83
:1037C00000780040F0B500F13C042278012A01D1D4
:1037D0000220F0BD01222270022363700668DFF828
:1037E000E4E07768DFF8E0C0B568764518BF664565
:1037F00003D14B6827F470071F430A6827F070074E
:10380000174377600268724518BFB2F1804F0CD041
:103810002E4882421CBF2E4B9A4206D02D4882422F
:103820001EBF62452C4B9A4204D1886825F0800562
:10383000054395600121617000202070F0BD30B516
:1038400090F83C20012A01D1022030BD012280F8ED
:103850003C20CC688B684A6824F440741C4324F4F0
:10386000806414430B680A6924F400641C4324F444
:10387000805414434B698A6A24F400541C4324F492
:10388000804414438B690F4A24F4702444EA0344AF
:10389000036893421CBF0C4DAB420CD14A6A24F41E
:1038A000700444EA0254CA69096A24F0807414431B
:1038B00024F000740C435C64002280F83C2000205B
:1038C00030BD0000002C01400034014000040040E5
:1038D00000080040000C00400040014010B500F11D
:1038E0007C010A78012A01D1022010BD01220A7050
:1038F00024234B6002681368146864086400146031
:103900000022426623F000530068036020224A60D0
:1039100000230B70002010BD70B500F01FF801D11E
:10392000022070BD00F020F822F0604209E070B57E
:1039300000F014F801D1022070BD00F015F822F05B
:10394000606211438160204600F01CF82068066028
:103950002021696000222A70002070BD044604F115
:103960007C052878012870470120287024226A608D
:103970002068066802685208520002602068826867
:1039800070470000FFB500BF14A200BF15A6D2E922
:10399000003402A900F16802C1E90034D6E90071DF
:1039A000CDE90071416E11B90120508014E000682A
:1039B00081688068400F02AC490E255C1DF800004C
:1039C000ED0001F0070195FBF0F05080645C1DF8FC
:1039D0000100E40094FBF0F01080FFBD0101010341
:1039E0000701000008040204080101010E480168F3
:1039F00041F47001016000220C49086840F00100A8
:103A000008608A604FF480520B68094803400B60DD
:103A1000CA6000200B68074A23F480230B6088618A
:103A20004FF000611160704788ED00E00010024027
:103A3000FFFFF6EA08ED00E00000000000000000D3
:103A40000102030406070809A0860100400D0300D7
:103A5000801A060000350C0040420F0080841E00D2
:103A600000093D0000127A000024F40000366E01C7
:103A70000048E801006CDC0210B5074979441831B0
:103A8000064C7C44163404E00A68081D114488473B
:103A90000146A142F8D110BD2C0000004C000000EE
:103AA0004EF68851CEF20001086840F470000860BC
:103AB000BFF34F8FBFF36F8F4FF00070E1EE100A2E
:103AC0007047000063DFFFFF5C0200001000002071
:103AD0000000000093E0FFFF100000008C000000D9
:103AE000000000200000000000F00DF8002801D0C8
:103AF000FFF7C2FFAFF300800020AFF30080FFF7B5
:103B000023FB00F002F80120704700F001B800002C
:103B10000746384600F002F8FBE7000080B5AFF337
:103B20000080024A11001820ABBEFBE7260002000D
:103B3000FDF711BFFEE7FEE7FEE7FEE770477047BF
:103B4000704700F001B8000002490A6888688218CE
:103B50000A60704700000020014880470148004784
:103B6000ED390008793B000800000000100000005B
:103B70000100000000093D00AFF30080FFF790FF57
:103B8000FFF7B2FF0000000001020304FFF7FEBFD1
:103B9000FFF7FEBFFFF7FEBFFFF7FEBFFFF7FEBF59
:103BA000FFF7FEBFFFF7FEBFFFF7FEBFFFF7FEBF49
:103BB000FFF7FEBFFFF7FEBFFFF7FEBFFFF7FEBF39
:103BC000FFF7FEBFFFF7FEBFFFF7FEBFFFF7FEBF29
:103BD000FFF7FEBFFFF7FEBFFFF7FEBFFFF7FEBF19
:103BE000FFF7FEBFFFF7FEBFFFF7FEBFFFF7FEBF09
:103BF000FFF7FEBFFFF7FEBFFFF7FEBFFFF7FEBFF9
:103C0000FFF7FEBFFFF7FEBFFFF7FEBFFFF7FEBFE8
:103C1000FFF7FEBFFFF7FEBFFFF7FEBFFFF7FEBFD8
:103C2000FFF7FEBFFFF7FEBFFFF7FEBFFFF7FEBFC8
:103C3000FFF7FEBFFFF7FEBFFFF7FEBFFFF7FEBFB8
:103C4000FFF7FEBFFFF7FEBFFFF7FEBFFFF7FEBFA8
:103C5000FFF7FEBFFFF7FEBFFFF7FEBFFFF7FEBF98
:103C6000FFF7FEBFFFF7FEBFFFF7FEBFFFF7FEBF88
:103C7000FFF7FEBFFFF7FEBFFFF7FEBFFFF7FEBF78
:103C8000FFF7FEBFFFF7FEBFFFF7FEBFFFF7FEBF68
:103C9000FFF7FEBFFFF7FEBFFFF7FEBFFFF7FEBF58
:103CA000FFF7FEBFFFF7FEBFFFF7FEBFFFF7FEBF48
:103CB000FFF7FEBFFFF7FEBFFFF7FEBFFFF7FEBF38
:103CC000FFF7FEBFFFF7FEBFFFF7FEBFFFF7FEBF28
:103CD000FFF7FEBFFFF7FEBFFFF7FEBFFFF7FEBF18
:043CE000FFF7FEBF2D
:0400000508003B793B
:00000001FF
