:020000040800F2
:1000000080080020B52400083D2400083F24000893
:100010004124000843240008452400080000000093
:10002000000000000000000000000000472400085D
:1000300049240008000000004B2400084D2400085B
:10004000E1240008E5240008E9240008ED24000864
:10005000F1240008F5240008F9240008FD24000814
:100060000125000805250008092500080D250008C0
:100070001125000815250008192500081D25000870
:100080002125000825250008292500082D25000820
:1000900051240008312500083525000839250008BD
:1000A0003D25000841250008452500084925000890
:1000B0004D25000851250008552500085925000840
:1000C0005D250008612500086525000869250008F0
:1000D0006D250008712500087525000879250008A0
:1000E0007D25000881250008852500088925000850
:1000F0008D25000891250008952500089925000800
:100100000000000000000000000000009D25000825
:10011000A1250008A5250008A9250008AD2500088F
:10012000B1250008B5250008B9250008BD2500083F
:10013000C1250008C52500080000000000000000DF
:10014000C9250008CD250008D125000800000000C1
:10015000000000000000000000000000000000009F
:100160000000000000000000D5250008D925000887
:10017000DD25000800000000000000000000000075
:1001800000000000E125000838B5040001D101207D
:1001900032BD00F05DF818B900F056F800F0E4FB4D
:1001A000FFE702206870211D206800F05EF9012041
:1001B0006870002032BD03D0086840F0010008607C
:1001C000002016BD38B5040001D1012032BD00F079
:1001D0003FF818B900F038F800F03CFCE1E71CB536
:1001E00000F02DF800F020F81CBFDFF8700081420D
:1001F00009D000F010F81FBFDFF864008142DFF87B
:100200006400814201D100F00AF800F012F818BF32
:10021000B2F5803FCFE7DFF8500081427047486C6D
:1002200040F40040486470472168DFF84020914264
:1002300070478A68DFF820000240062A70470446AB
:100240000122206800F0E1BA0021297020467047A1
:1002500004F13C0568787047070001000034014054
:10026000004401400048014000400140002C014092
:1002700070B500F092F801D1022070BD00F094F842
:1002800052B1042A1BD0082A2CD00C2A3DD0102AA7
:100290004ED0142A60D073E03068294600F035F95A
:1002A0003068816941F0080100F073F821F0040121
:1002B000816131688A69286902438A6160E0306837
:1002C000294600F064F93068816941F4006100F06A
:1002D00060F821F4806100F05CF82A6941EA0221AB
:1002E00081614DE03068294600F08AF93068C169C3
:1002F00041F0080100F049F821F00401C1613168C2
:10030000CA6928690243CA613AE03068294600F0A8
:10031000AFF93068C16941F4006100F036F821F4AA
:10032000806100F032F82A6941EA0221C16127E0C8
:100330003068294600F0C6F93068416D41F0080187
:1003400041653068416D21F00401416531684A6DB5
:10035000286902434A6513E03068294600F0DCF959
:100360003068416D41F4006141653068416D21F4B0
:10037000806141653068416D2A6941EA0221416529
:10038000012060700020207070BDC1613068C169BB
:1003900070478161306881697047064606F13C0408
:1003A0000D462078012870470121217002206070DD
:1003B000704738B500F04EF801D1022032BD01225D
:1003C0002270022060702A68DFF8A8039368034057
:1003D00093600868020018BF10282DD0202818BF8D
:1003E000302829D0402823D0502816D0602818D093
:1003F000702803D0B0F5005F07D021E000F025F8A9
:100400002868816841F0770105E000F01EF828684F
:10041000816841F48041816012E000F012F85021BF
:100420000BE0CA684968286800F0CBF9602104E055
:1004300000F007F8402100E00146286800F0D3F9F9
:100440000EE0CA6849682868ACE1CB684A688968E8
:100450002868D0E1054605F13C0420780128704762
:10046000012060700020207032BD2DE9F041DFF8DE
:100470000873D0F800C0DFF80433DFF80443DFF876
:100480000453DFF80463DFF804E3DFF80483B842C1
:1004900018BFB0F1804F04D040451CBF7045B0423A
:1004A0000DD14A68B8422CF0700C18BFB0F1804FE3
:1004B00042EA0C0C0BD0404518BF704507D0B04243
:1004C00018BFA84203D0A04218BF984204D1CA68FE
:1004D0002CF4407C42EA0C0C4A692CF0800C42EA75
:1004E0000C020260B8428A68C26218BFB0420A6851
:1004F000826204D0A8421CBFA042984201D109697F
:10050000016301214161BDE8F0812DE9F041026AFA
:10051000DFF86482DFF870E2DFF86062DFF86072B3
:10052000DFF860C2520852000262056A43688469BB
:10053000DFF8602214400A6814438A6825F0020537
:100540001543404518BF704504D060451CBFB842F4
:10055000B0420DD1CA6825F008051543404518BFC3
:10056000704525F0040505D0604518BFB84201D09C
:10057000B04205D14A6923F4407313438A69134397
:1005800043608461496841630562BDE8F081F0B56C
:1005900000F095F822F010020262056A436884694F
:1005A0007D4A14400A6844EA02248A6825F020053E
:1005B00045EA0215744AB04218BF904208D1CF688C
:1005C00025F0800545EA0715B04225F040050AD020
:1005D00090421CBF6B4A904205D0694A90421CBFB2
:1005E000664A904206D14E698A6923F440631643F5
:1005F00043EA860343608461496881630562F0BD14
:10060000F0B500F05CF822F480720262056A43687B
:10061000C469604A14400A6814438A6825F4007566
:1006200045EA0225584AB04218BF904208D1CF6827
:1006300025F4006545EA0725B04225F480650AD017
:1006400090421CBF4F4A904205D04D4A90421CBF79
:100650004A4A904206D14E698A6923F440531643B0
:1006600043EA06134360C4614968C1630562F0BD93
:1006700070B500F024F822F480520262036A4468E4
:10068000C569454A00F06FF823F400531CBF3E4E85
:10069000B04243EA023307D03A4A90421FBF384A79
:1006A0009042364A904204D14A6924F4804444EA94
:1006B00082144460C56149680164036270BD026AC6
:1006C0002D4E704770B5FFF7FAFF22F480320262B8
:1006D000036A4468456D314A15400A6815438A68C3
:1006E000B04223F400331CBF274EB04243EA02431A
:1006F00007D0244A90421FBF214A90421F4A90428D
:1007000004D14A6924F4803444EA022444604565F3
:1007100049688165036270BD70B5FFF7D0FF22F4B0
:1007200080120262036A4468456D1D4A00F01BF89E
:1007300023F400131CBF144EB04243EA025307D007
:10074000104A90421FBF0E4A90420C4A904204D178
:100750004A6924F4802444EA822444604565496857
:10076000C165036270BD15400A6845EA02258A68C2
:10077000B04270478800FEFF002C01400048014055
:1007800000440140004001400034014000080040A6
:10079000000400408CFFFEFFFF8CFFFE8FFFFEFF7A
:1007A000FF8FFFFE10B5036A046A640864000462E8
:1007B00023F00A03846924F0F00444EA02148461FB
:1007C0002EE010B5036A23F0100303628369046A04
:1007D00023F4704343EA023324F0A004836144EA23
:1007E0000114046210BD826822F07002114341F0CE
:1007F00007018160704710B5846824F47F44214369
:10080000114341EA0321816010BD10B501F01F01C1
:10081000036A01248C40A343036202FA01F1036AD4
:100820001943016210BD0000814882B0016841F0A7
:1008300001010160026802F0010200920099416822
:1008400041F080514160406800F080500090009875
:10085000072002B000F00FB910B586B000F07FF8A5
:100860002168744A914224D17348816841F0007133
:1008700081600222816801F0007100910099016895
:1008800041F4801101600321006800F4801000F041
:1008900060F8049107200590029201A9674800F0D2
:1008A0003FF900220021142000F0F2F8142000F09B
:1008B0000CF906B010BD10B586B000F050F82168F4
:1008C0005F4A914220D15C4C206840F48020206037
:1008D0001222216801F480210091C0210098019129
:1008E000012003900321042004910590029201A9A4
:1008F000544800F015F9A06840F40010A060A0680A
:1009000000F400100090009806B010BD10B586B03D
:1009100000F025F821684C4A914218D146484168B8
:1009200041F4805141600222416801F480510091FC
:100930000099016841F400310160E021006800F491
:10094000003000F006F80321052000F068F806B03A
:1009500010BD00900098019100200390704704465C
:1009600001A8142100F0C0B981B00068374988425D
:1009700009D12F48016841F400610160006800F46A
:1009800000600090009801B0704710B586B0FFF786
:10099000E6FF21682D4A914218D12748026842F4A7
:1009A000003202604FF4A061006800F40030009053
:1009B00002220098019100200390049002920620E8
:1009C000059001A94FF0904000F0AAF806B010BDC4
:1009D00010B586B0FFF7C3FF21681D4A91421CD1B4
:1009E000154C206840F4003020600222216801F498
:1009F000003100914FF4C051009801910020039004
:100A000003210E2000F00BF8A06840F40000A06065
:100A1000A06800F400000090009806B010BD04919A
:100A20000590029201A94FF0904000F079B80000C3
:100A3000181002400064004014100240000C0048EE
:100A4000005400400004004800300140002C0140E8
:100A5000005C0040704700000901020081B002D430
:100A60002948815405E0294802F00F02104400F89B
:100A7000041C01B07047264A13684FF6FF010002BC
:100A80000B4000F4E06018432249084310607047AF
:100A900038B51F4B1C68C4F30223C3F10704052CAF
:100AA00028BF04241D1D072D34BF0023DB1E012594
:100AB00005FA04F4641E2140994005FA03F35B1E15
:100AC0001A401143BDE83440C6E7010007D40122B3
:100AD00000F01F01104B8A40400943F82020704766
:100AE00010B5401EB0F1807F01D3012010BD0B4C2A
:100AF00060600F214FF0FF30FFF7AEFF0022A260D1
:100B000007202060002010BD00E400E018ED00E0A8
:100B10000CED00E00000FA0500E100E010E000E06C
:100B20002DE9F84F4FF00009684A694B4FF00F0864
:100B300005460E4633E0674FBD4214BF0527042724
:100B40008F4027434CF82E70C143146801EA040C0F
:100B50007468E40348BF40EA0C0CC2F800C0546853
:100B600001EA040C7468A40348BF40EA0C0CC2F804
:100B700004C0946801EA040C7468E40248BF40EAC7
:100B80000C0CC2F808C0D46801EA040C7168890230
:100B900048BF40EA0C0CC2F80CC009F101093168E9
:100BA00031FA09F000F08180012404FA09F414EA12
:100BB0000100F2D04FEA490C032101FA0CF16FEA6F
:100BC000010E7168012918BF022903D0112918BF2D
:100BD000122911D1A968F7680EEA010107FA0CF78A
:100BE0003943A960696821EA04047168C1F30011FE
:100BF00001FA09F10C436C60E968B4680EEA01017E
:100C000004FA0CF42143E9604FEA89017468022C6C
:100C100018BF122C12D14FEAD90405EB840401F05D
:100C20001C07D4F820A008FA07FB2AEA0B0AD6F81A
:100C300010B00BFA07F747EA0A0727622C680EEA9A
:100C40000407347904F0030404FA0CF43C432C60E8
:100C50007468E400A1D51C68DFF87CC044F001048E
:100C60001C604FEA990E1C6804F00104009401F026
:100C70000C01009C5CF82E7008FA01F427EA0404C9
:100C8000B5F1904F08BF00270ED0144FBD4208BFEA
:100C9000012709D0124FBD4208BF022704D0114FCF
:100CA000BD427FF448AF03274AE7BDE8F18F81B02A
:100CB000002A14BF8161816201B07047426901EA74
:100CC0000203914341EA03418161704700040140FE
:100CD00018100240001000480800014000040048BD
:100CE00000080048000C0048002200F001B8000095
:100CF00000B500BF130096469446103928BFA0E8FF
:100D00000C50FAD85FEA417C28BF0CC048BF40F8BD
:100D1000042BC90728BF20F8022B48BF00F8012B7D
:100D200000BD000038B504001ED094F8200010B9B2
:100D30002046FFF791FD2068016821F00201016063
:100D400000F00CFB0546206841688A0762D500F078
:100D500005FB401B0B28F6D304E000F0FFFA401B14
:100D60000B285AD300F0F0F8012032BD016821F0C1
:100D700080010160617E2068012904D1026842F08F
:100D80004002026003E0016821F040010160A17EA1
:100D90002068012904D1026842F02002026003E0C9
:100DA000016821F020010160E17E2068012904D161
:100DB000026822F01002026003E0016841F01001B5
:100DC0000160217F2068012904D1026842F00802F5
:100DD000026003E0016821F008010160617F206882
:100DE000012904D1026842F00402026003E00168B4
:100DF00021F004010160A268E068216802432069D3
:100E00000243606902436068401E0243CA610020D9
:100E10006062A1E000F0A5F8054620684168CA07B5
:100E20009BD5217E0129A1D1026842F08002026097
:100E3000A0E7F8B5066890F82020012A18BF022A1A
:100E400052D106F500720124106840F001001060D4
:100E500006F511750B7DD06903F01F0304FA03F347
:100E6000DC432040D06106F51076C86968B9D768C0
:100E70002740D760C8684F6800F039F80F68886865
:100E8000C7EA004C486945F830C0CF69012F0DD141
:100E9000D0681843D0604F68086800F028F8CE6822
:100EA00088684F69C6EA004045F83700886918B974
:100EB00055682540556002E0506818435060086945
:100EC00018B955692C40546102E0506918435061CB
:100ED000086A012802D1D1690B43D3611068400828
:100EE000400010600020F2BD00F0A5F89AE0D1F8B3
:100EF00014C0C7EA004046F83C00704738B50446C5
:100F000094F82000012816D1022184F820102068CE
:100F1000016849084900016000F020FA0546206890
:100F20004168C8070DD500F019FA401B0B28F6D30D
:100F300000F00AF803E0606A40F4002060620120DB
:100F400032BD0020606232BD606A40F400306062F1
:100F5000052184F820107047012084F8200000202B
:100F600032BD016841F00101016000F0F7B9F8B548
:100F700090F820400568AD68012C18BF022C4FD1B5
:100F800015F0E05F48D0C5F30164032C03D3416A38
:100F900041F4000146E00125A5401D6024010368DD
:100FA000CE6803F5C0758B681BB90B6846EA4356DB
:100FB00003E04F6843EAC7031E432E5105680B69DF
:100FC00005F5C2763351097D012906D1036803F581
:100FD000C2710D5945F480750D519379D1795579C8
:100FE0001B0443EA0163117900F01FF8C1F88C314A
:100FF0009378D17855781B0443EA0163117800F0A7
:1010000014F8C1F88831006800F5C070015941F04A
:10101000010101510020F2BD416A41F4001101E0DB
:1010200000F009F841620120F2BD43EA05230B43B9
:10103000016821447047416A41F480217047416A48
:1010400041F4802141620120704778B590F820403A
:10105000012C18BF022C68D10029046801D1E56871
:1010600000E0256915F0030F03D1416A41F4001136
:101070005DE00D0104F5D876745914F00404946011
:10108000066806F5D87603D17459640D146002E041
:101090007659F6085660046804F5D876765906F055
:1010A0000206D66000F04BF804F00F04146100F063
:1010B00046F8C4F30724946100F041F8240C54610D
:1010C00002682A44D2F8B8211A7002682A44D2F879
:1010D000B821120A5A7004686219D2F8B821120CA9
:1010E0009A7004686219D2F8B821120EDA7000F012
:1010F00021F81A7102682A44D2F8BC21120A5A71E6
:1011000000F018F8120C9A7100F014F8120EDA714F
:10111000006821B9C16841F02001C16003E00169A4
:1011200041F020010161002072BDFFF784FF4162A0
:10113000012072BD04686219D2F8BC2170470468AE
:101140002C44D4F8B441704790F82020012A18BFED
:10115000022A03D100684269114300E06FE7416150
:10116000002070472DE9F84F05464FF00008286829
:101170004669D0F804B08468D0F80C90D0F810A07C
:101180008769F10745D5E10713D501218160A007E3
:1011900003D5284600F0E8F80BE0600748BF4FF49D
:1011A000006806D420074EBF4FF48058284600F050
:1011B000DCF8E00515D529684FF480708860A0053B
:1011C00003D5284600F0D2F80BE0600548BF48F48C
:1011D000005806D420054EBF48F48048284600F049
:1011E000C6F8E00315D529684FF480308860A00365
:1011F00003D5284600F0BCF80BE0600348BF48F474
:10120000004806D420034EBF48F48038284600F03A
:10121000B0F8300748BF5FEAC96004D529681020DC
:1012200048F40078C860700748BF5FEA097005D5C8
:1012300029680820C860284600F09CF8B00707D548
:101240002868C16811F0030F1CBF284600F0D8F8C9
:10125000700648BF5FEACA6004D52968102048F4C8
:1012600080680861B00648BF5FEA0A7005D5296842
:1012700008200861284600F0CFFAF00607D5286854
:10128000016911F0030F1CBF284600F0C6FAB00335
:1012900048BF5FEACB6005D5296810204860284622
:1012A00000F0BCFAF00348BF5FEA0B7005D529686F
:1012B00008204860284600F0B2FA300440D55FEAC2
:1012C0004B703AD5F00503D5F80748BF48F0010840
:1012D000B00503D5B80748BF48F00208700503D52C
:1012E000780748BF48F00408300526D517F0700F7E
:1012F00023D007F07007102F0CD0202F0DD0302FE7
:101300000ED0402F0FD0502F10D0602F08BF48F4C0
:1013100080780DE048F008080AE048F0100807E07F
:1013200048F0200804E048F0400801E048F0800858
:101330002868816921F07001816104202968486072
:10134000B8F1000F08D0686A48EA000068622846D1
:10135000BDE8F24F00F064BABDE8F18F0148406883
:10136000704700BF0000002070477047704770470B
:101370007047704770470000DFF85014096800F5A7
:1013800096724A63C0F596708863704710B5DFF8AF
:101390003C44002100F012F8042100F00FF808216D
:1013A00000F00CF80C2100F009F8206800214163DE
:1013B0004FF496718163C163016410BD2046FEF74E
:1013C0000EBF0000DFF80804016821F080710160A1
:1013D000026842F080720260DFF8F8030168490891
:1013E000490001600021026842F001020260416090
:1013F00000BF00BF00BF4068401E8041C00F704763
:1014000010B504464021DFF8D003FFF757FC204613
:10141000BDE81040DFF8C4331A1D0021FFF715BEE8
:101420002DE9FC4100F0FEF900F0B4F800F058F9A5
:10143000EB4CEC4804F13C0504F1BC06E86604F111
:10144000A807E9482867002068670120A8670020EE
:10145000E86730607060B060F060384600F0F4F922
:101460000021384600F04AFA0021384600F05EFAC2
:10147000DE48DF4FA8604FF48270E86000202861EA
:101480004FF4407068610020A861E8614FF400707B
:101490002862082068620020A862E86228630720AA
:1014A00068630020A8630820E86304F1440000F0AA
:1014B00069FAD048B0630820F06302203064B06459
:1014C00000203065B06504F5816604F1F40000F099
:1014D000B5FAC9482060092060604FF08040A060E4
:1014E0000020E0604FF48030206100206061A06146
:1014F000A0832046FFF716FC00F08BF804F5787106
:101500000020486188610120C861002008604860AF
:101510008860C8600861012008622046FFF789FCE6
:101520002046FFF7EBFC02212046FFF70DFE40F2BC
:101530002130A0620120E06200206063206302206D
:10154000A06300202870FFF73DFFFFF71FFFC820B2
:10155000FFF712FF32200090D7F8008000F0E1FC86
:10156000A649B0FBF1F00099414300913968009A17
:10157000A1EB0801121A9142F8D3022028713346D8
:101580000420687104F1400204F128012046FFF7AD
:10159000EEFCDFE780B59EB005A82821FFF7A4FB8D
:1015A00068461421FFF7A0FB0FA83C21FFF79CFB26
:1015B000032005904FF4A0210691002007900121FF
:1015C000099110200A9002210C914FF480300D9067
:1015D0004FF4E0110E9105A800F07EFA0F200221D1
:1015E0000090019100204FF48061029003910490DB
:1015F0000221684600F0F2FB002116911D914FF484
:1016000080717F480F901B910FA800F0B3FC1FB0B2
:1016100000BDF0B599B015A81021FFF765FB07AC28
:1016200000250026002784E8E00068461C21FFF71B
:101630005BFB0AA82C21FFF757FB644C7148206024
:1016400065602020A06025614FF41670E060656140
:101650008020A0612046FEF797FD4FF48050159042
:1016600015A92046FEF7A5FE2046FEF7ABFD07951F
:101670000895099507A9204600F05EFD6248009094
:101680004FF4967101910295039504950595069581
:10169000002200F021F8042200F01EF8082200F0D9
:1016A0001BF80C2200F018F84FF400514FF00070B6
:1016B0000F9112900A950B950C950D950E9510951E
:1016C0001195139514950AA9204600F06FFD204648
:1016D000FFF75BF919B0F0BD69462046FEF7C8BDBB
:1016E00070B586B068461421FFF7FEFA47483A4DB8
:1016F000046844F4001404604FF608760168444C12
:1017000001F4001105910599016841F4002101607F
:10171000026802F4002205920599016841F48001F3
:101720000160026802F4800205920599016841F4A3
:1017300000310160026802F40032059205990168E7
:1017400041F480110160026802F4801205920022C7
:101750000599016841F4802101603146006800F478
:101760008020059005982046FFF7A1FA002260210D
:101770002846FFF79CFA3720009000202549019168
:10178000029069462046FFF7CBF901200021019025
:1017900002910391009669462046FFF7C1F90120A6
:1017A00000210090019102914FF090406946FFF7AF
:1017B000B7F9602000900121002001910290039070
:1017C00069462846FFF7ACF906B070BD1C0400203E
:1017D000FCED00E0001000E0000C00485C0400207C
:1017E00010000020005400400E090020003001408D
:1017F000041000E0005C00400064004040420F0024
:1018000020100200002C0140600001001410024072
:101810000010004800001210704770477047704772
:101820007047000080B50748016841F01001016071
:101830000320FFF720F9002000F002FDFEF7F4FF7F
:10184000002002BD0020024038B5040001D1012073
:1018500032BD04F14005687820B900212970204686
:10186000FFF729F800F041F86068216820F0706007
:1018700008612068816821F400418160E068A16806
:10188000012820680CBF41F4004141F4044181600B
:10189000E168022903D122684FF40060506020689B
:1018A000416841F0007141F4004141602068C16825
:1018B00021F40041C1606069216922680143A06987
:1018C00041EA0021D160206AE1690143206801609A
:1018D0002068016841F0010101600020686020205B
:1018E000687000202063A87032BD242068702068D2
:1018F00001684908490001607047000030B500F1F7
:1019000040025378202B0FD11478012C0CD000F01A
:101910002DF81D6825F480551D6003681C6821435F
:10192000196000F019F830BD022030BD10B500F18B
:1019300040025378202B0DD11478012C0AD000F0EE
:1019400015F81C6824F4706444EA01241C6000F05B
:1019500003F810BD022010BD0068016841F00101CC
:101960000160202050700020107070470123137018
:101970002423537003681C68640864001C600368B7
:101980007047000038B5040001D1012032BD0020AD
:10199000A06204F15C05687820B900212970204616
:1019A000FEF7B4FF0220687000F042F8E268B2F57A
:1019B000E06F04D90021B2F5706F03D104E04FF459
:1019C000805101D00020A062206B30B9B2F5E06FE9
:1019D00087BF02222263012020636268A068A36996
:1019E0000243206902436069024303F40073E06923
:1019F0001A430243206A0243A06A0243206802603D
:101A0000A269606A120C02F004020243606B024396
:101A1000E06802432068114341602068C16921F4F5
:101A20000061C1610020686001206870002032BD43
:101A30002068016821F040010160704730B5040062
:101A400085B008BF01203DD004F52A75687820B91B
:101A5000002129702046FEF7BBFF03206870206834
:101A600000F00EFC002128200AE010FB01F22244C5
:101A70002832012353701170D181002300F024F823
:101A800062689142F1D3002109E010FB01F2224487
:101A900002F5B47200231170537000F015F86268FB
:101AA0009142F2D383B0211D6846202200F0FEFB54
:101AB0000EBC206800F0EAFB002084F8240001201E
:101AC0006870002005B030BD491CD37013615361AC
:101AD0009361C9B2704700002DE9F843040019D0A2
:101AE0002078DFF84454C10716D5686800F00C0070
:101AF00004280AD0686800F00C00082802BF686853
:101B000000F48030B0F5803F3FD100F0E0F918B12B
:101B10006068002800F0F9802178DFF818648807F1
:101B200019D5686810F00C0F07D0686800F00C0039
:101B3000082865D16868C10362D400F0CCF91CBFE5
:101B40002069012840F0E1802968606921F0F801EE
:101B500041EAC00129602178080740F1D880A069D6
:101B6000DFF8D413002869D001220A60FFF7F6FBE2
:101B70000746686A00F0B0F940F0C980FFF7EEFB55
:101B8000C01B0228F5D903201DE16068B0F5803F35
:101B900009D008B929680AE0B0F5A02F296806D154
:101BA00041F480212960286840F4803005E021F468
:101BB00080312960286820F480202860E96AA068C4
:101BC000090940EA0111E962606860B1FFF7C6FBEC
:101BD000064600F07CF900289ED1FFF7BFFB801B72
:101BE0006528F6D3CFE7FFF7B9FB064600F06FF99B
:101BF000002891D0FFF7B2FB801B6528F6D3C2E71F
:101C0000206970B101213160FFF7A8FB074600F0A1
:101C100062F940F0A780FFF7A1FBC01B0228F6D9AC
:101C2000B1E73060FFF79AFB074600F054F992D015
:101C3000FFF794FBC01B0228F7D9A4E70860FFF761
:101C40008DFB0746686A00F047F960D0FFF786FB16
:101C5000C01B0228F6D996E708B9286A09E00528CA
:101C6000286A06D140F004002862286A40F001008A
:101C700005E0400840002862286A20F0040028623D
:101C800041F28938E06868B1FFF768FB8146286A4D
:101C900000F022F973D1FFF761FBA0EB090040458A
:101CA000F5D370E7FFF75AFB8146286A00F014F974
:101CB00065D0FFF753FBA0EB09004045F5D362E781
:101CC000FFF74CFBC01B02286AD95CE7FFF746FB15
:101CD000001B022873D956E700F07CF8044600F098
:101CE00074F86FD0FFF73AFB001B0228F7D94AE7D8
:101CF00001280AD06868226A00F48031914202BF4C
:101D000000F47010616A88425CD001205BE02078AA
:101D1000410739D5E8690027C10009D4E86940F0D6
:101D20008050E8610127E86900F080500090009839
:101D3000DFF80882D8F80010C8051BD4D8F80000D6
:101D400040F48070C8F80000FFF708FB8146D8F81F
:101D50000010C8050ED4FFF701FBA0EB09006528B1
:101D6000F5D310E72868616920F0F80040EAC10067
:101D70002860F0E6E06801287FF46EAF75E71FB1D8
:101D8000E86920F08050E861E069D8B1696801F045
:101D90000C010829ACD002289ED100F01BF80746A0
:101DA00000F013F88CD16968606A21F47411014362
:101DB000206A01436960012000F00DF8044600F03C
:101DC00004F883D00020BDE8F2832868C0F34060A7
:101DD0000028704700203066FFF7C0BA2DE9F843AD
:101DE0000400884667D0564E306800F00700404532
:101DF00002D200F062F85ED121784B4D880705D5FC
:101E00006968A06821F0F001014369602078C1078A
:101E100049D56168012902D100F059F804E002298E
:101E2000286803D1C0F3406018B944E000F054F8CA
:101E300041D06868800841EA8001696041F28939CF
:101E4000FFF78CFA07466868616800F00C00B0EB99
:101E5000810F28D0FFF782FAC01B4845F3D3032037
:101E60001FE02078410705D56968E06821F4E0614A
:101E7000014369602078010706D56868216920F46C
:101E8000605040EAC100686000F02EF86A682D4991
:101E9000C2F30312895C254AC840106000F020F8A4
:101EA0000020BDE8F283306800F007008045D8D2FA
:101EB00000F003F8D5D00120F3E73168C90848EAFB
:101EC000C1013160306800F0070040457047286864
:101ED000C0F3404070472868C0F3400000287047B6
:101EE0001948006800F0ACB918490A6802F00C0003
:101EF000082814D10FF25C03C2F38340D203185CAC
:101F0000896A09D50FF25C03094A01F00F01595C97
:101F1000B2FBF1F1484370470D494843704704480C
:101F20007047024800687047001002400C00002013
:101F300000127A00000042428004424200700040D9
:101F400000200240902300080800002004100240F6
:101F500000093D0002030405060708090A0B0C0DE1
:101F60000E0F10100102030405060708090A0B0CE6
:101F70000D0E0F102DE9FC410546DFF8A46128681D
:101F8000C10354D5B0690024C10009D4B06940F040
:101F90008050B0610124B06900F08050009000983A
:101FA000DFF880713968C80517D4386840F480704C
:101FB0003860FFF7D3F980463968C8050DD4FFF7BC
:101FC000CDF9A0EB08006528F6D30320A5E0FFF7C4
:101FD000C5F9C01B40451AD3F7E7F06910F440700B
:101FE0001EBF696801F44071884215D0DFF83811CE
:101FF000F06901220A6020F4407000220A60F0615A
:10200000C00709D5FFF7AAF9074641F28938F069F8
:10201000C0F340000028DAD0F169686821F440710B
:102020000143F1611CB1B06920F08050B0612978A2
:10203000C80705D5F16AA868890840EA8101F162FC
:102040002878810705D5F16AE86821F44031014319
:10205000F1622878410705D5F16A286921F4402109
:102060000143F1622878810605D5F16AE86921F01B
:1020700010010143F1622868810305D53168A86B1E
:1020800021F48001014331602878410605D5F16AC9
:10209000286A21F020010143F1622878010705D563
:1020A000F16A686921F440110143F1622878C106A0
:1020B00005D5F16AA86921F440010143F16228685D
:1020C000810505D53168E86A21F4000101433160DA
:1020D0002878010605D5B16A686A21F4F8710143D0
:1020E000B1622868C10505D5B16AA86A21F47851A2
:1020F0000143B1622868C10405D5F16A286B21F457
:1021000080710143F1622868810405D5F16A686B2A
:1021100021F400710143F1620020BDE8F681000066
:10212000041002400070004040044242CA60002196
:1021300080F83C10002010BDF8B500F13C031A787F
:10214000012A01D10220F2BD01241C7002225A7022
:102150000568DFF8D8C06E68354FAC68654518BFB4
:10216000BD4203D14A6826F4700616430A6826F079
:10217000700616436E600268624518BFB2F1804F68
:102180000AD02C4882421CBF2B48824204D0BA425B
:102190001CBF2A48824204D1886824F0800404438A
:1021A00094600120587000201870F2BD10B590F8AE
:1021B0003C20012A01D1022010BD012380F83C30CF
:1021C000CC688B684A6824F440741C4324F480640F
:1021D00014430B680A6924F400641C4324F48054FB
:1021E00014434B698A6A24F400541C4324F4804449
:1021F00014438B690D4A24F4702444EA03440368B1
:1022000093421CBF0A4A93420CD14A6A24F47004D8
:1022100044EA0254CA69096A24F08074144324F021
:1022200000740C435C6482E700000000002C014055
:10223000003401400004004000080040004001401C
:1022400038B50D4D0D4A297804464FF47A70B0FB2D
:10225000F1F11068B0FBF1F0FEF742FC50B9102C20
:1022600008D2002221464FF0FF30FEF711FCAC608F
:10227000002032BD012032BD000000200C000020F3
:10228000B0F8402044F2FF0100F00BB80EB4012179
:1022900020F8401F0021018081800182002003B0CE
:1022A00070470A40A0F8402000207047103A07D33A
:1022B00030B4B1E83810103AA0E83810F9D230BC88
:1022C000530724BFB1E80810A0E8081044BF51F834
:1022D000043B40F8043BD20724BF31F8022B20F81E
:1022E000022B44BF0B7803707047121F17D35B009B
:1022F00009D151F8043B20F8023B1B0C121F20F8B7
:10230000023BF6D20BE051F8043B00F8013B1B0AFC
:1023100020F8023B1B0C121F00F8013BF3D238BF20
:10232000121D521E24BF11F8013B00F8013BF8D8E2
:10233000704719E050F8042BD30744BFA9F10103FB
:102340009A18091F0023042942F8043BF9D25FEAD6
:10235000817C134604D54FF0000CA2F800C09B1CF2
:10236000C90744BF0021197050F8041B0029E1D1AE
:10237000704700000448054A016841F4700101609B
:102380004FF000601060704788ED00E008ED00E05D
:102390000000000000000000010203040607080915
:1023A00010B450F8041B79B1026843680244083045
:1023B000DC0744BFA9F10104E31852F8044B43F8C9
:1023C000044B091FF9D1ECE710BC704710B5074961
:1023D00079441831064C7C44163404E00A68081D20
:1023E000114488470146A142F8D110BD2C000000DD
:1023F0004C0000004EF68851CEF20001086840F40F
:1024000070000860BFF34F8FBFF36F8F4FF0007005
:10241000E1EE100A704700001BFFFFFF6C04000094
:10242000100000200000000079FFFFFF10000000F6
:102430009400000000000020000000007047FEE74C
:10244000FEE7FEE7FEE770477047704700F006B80A
:102450000148FEF787BE00001000002002484168D6
:1024600002788918416070470000002000F00DF8E4
:10247000002801D0FFF7AAFFAFF300800020AFF3E0
:102480000080FEF7CDFF00F002F80120704700F059
:1024900001B800000746384600F002F8FBE70000EC
:1024A00080B5AFF30080024A11001820ABBEFBE7F5
:1024B00026000200014880470148004775230008B4
:1024C000D5240008010000000000000010000000FA
:1024D00000127A00AFF30080FFF78CFFFFF7C6FF12
:1024E000FFF7FEBFFFF7FEBFFFF7FEBFFFF7FEBF20
:1024F000FFF7FEBFFFF7FEBFFFF7FEBFFFF7FEBF10
:10250000FFF7FEBFFFF7FEBFFFF7FEBFFFF7FEBFFF
:10251000FFF7FEBFFFF7FEBFFFF7FEBFFFF7FEBFEF
:10252000FFF7FEBFFFF7FEBFFFF7FEBFFFF7FEBFDF
:10253000FFF7FEBFFFF7FEBFFFF7FEBFFFF7FEBFCF
:10254000FFF7FEBFFFF7FEBFFFF7FEBFFFF7FEBFBF
:10255000FFF7FEBFFFF7FEBFFFF7FEBFFFF7FEBFAF
:10256000FFF7FEBFFFF7FEBFFFF7FEBFFFF7FEBF9F
:10257000FFF7FEBFFFF7FEBFFFF7FEBFFFF7FEBF8F
:10258000FFF7FEBFFFF7FEBFFFF7FEBFFFF7FEBF7F
:10259000FFF7FEBFFFF7FEBFFFF7FEBFFFF7FEBF6F
:1025A000FFF7FEBFFFF7FEBFFFF7FEBFFFF7FEBF5F
:1025B000FFF7FEBFFFF7FEBFFFF7FEBFFFF7FEBF4F
:1025C000FFF7FEBFFFF7FEBFFFF7FEBFFFF7FEBF3F
:1025D000FFF7FEBFFFF7FEBFFFF7FEBFFFF7FEBF2F
:0425E000FFF7FEBF44
:04000005080024D5F6
:00000001FF
