:020000040800F2
:10000000B0070020C11300089D1300089F130008CB
:10001000A1130008A3130008A513000800000000A6
:10002000000000000000000000000000A71300080E
:10003000A913000800000000AB130008AD1300086E
:10004000ED130008F1130008F5130008F913000878
:10005000FD13000801140008051400080914000825
:100060000D140008111400081514000819140008D4
:100070001D14000821140008251400082914000884
:100080002D14000831140008351400083914000834
:100090003D140008411400084514000849140008E4
:1000A0004D14000851140008551400085914000894
:1000B0005D14000861140008651400086914000844
:1000C0006D140008711400087514000879140008F4
:1000D0007D140008811400088514000889140008A4
:1000E0008D14000891140008951400089914000854
:1000F0009D140008A1140008A5140008A914000804
:10010000000000000000000000000000AD14000826
:10011000B1140008B5140008B9140008BD14000893
:10012000C1140008C5140008C9140008CD14000843
:10013000D1140008D51400080000000000000000E1
:10014000D9140008DD140008E114000800000000C4
:10015000000000000000000000000000000000009F
:100160000000000000000000E5140008E914000889
:10017000ED14000800000000000000000000000076
:1001800000000000F11400082DE9F843040019D024
:100190002078DFF84054C10716D5686800F00C00DD
:1001A00004280AD0686800F00C00082802BF6868BC
:1001B00000F48030B0F5803F3FD100F0E0F918B195
:1001C0006068002800F0F9802178DFF8146488075F
:1001D00019D5686810F00C0F07D0686800F00C00A3
:1001E000082865D16868C10362D400F0CCF91CBF4F
:1001F0002069012840F0E1802968606921F0F80158
:1002000041EAC00129602178080740F1D880A0693F
:10021000DFF8D013002869D001220A6000F000FA4C
:100220000746686A00F0B0F940F0C98000F0F8F9BC
:10023000C01B0228F5D903201DE16068B0F5803F9E
:1002400009D008B929680AE0B0F5A02F296806D1BD
:1002500041F480212960286840F4803005E021F4D1
:1002600080312960286820F480202860E96AA0682D
:10027000090940EA0111E962606860B100F0D0F953
:10028000064600F07CF900289ED100F0C9F9801BD9
:100290006528F6D3CFE700F0C3F9064600F06FF902
:1002A000002891D000F0BCF9801B6528F6D3C2E786
:1002B000206970B10121316000F0B2F9074600F009
:1002C00062F940F0A78000F0ABF9C01B0228F6D914
:1002D000B1E7306000F0A4F9074600F054F992D07D
:1002E00000F09EF9C01B0228F7D9A4E7086000F0CF
:1002F00097F90746686A00F047F960D000F090F976
:10030000C01B0228F6D996E708B9286A09E0052833
:10031000286A06D140F004002862286A40F00100F3
:1003200005E0400840002862286A20F004002862A6
:1003300041F28938E06868B100F072F98146286AB4
:1003400000F022F973D100F06BF9A0EB09004045F1
:10035000F5D370E700F064F98146286A00F014F9DB
:1003600065D000F05DF9A0EB09004045F5D362E7E8
:1003700000F056F9C01B02286AD95CE700F050F97A
:10038000001B022873D956E700F07CF8044600F001
:1003900074F86FD000F044F9001B0228F7D94AE73F
:1003A00001280AD06868226A00F48031914202BFB5
:1003B00000F47010616A88425CD001205BE0207814
:1003C000410739D5E8690027C10009D4E86940F040
:1003D0008050E8610127E86900F0805000900098A3
:1003E000DFF80482D8F80010C8051BD4D8F8000044
:1003F00040F48070C8F8000000F012F98146D8F887
:100400000010C8050ED400F00BF9A0EB0900652818
:10041000F5D310E72868616920F0F80040EAC100D0
:100420002860F0E6E06801287FF46EAF75E71FB141
:10043000E86920F08050E861E069D8B1696801F0AE
:100440000C010829ACD002289ED100F01BF8074609
:1004500000F013F88CD16968606A21F474110143CB
:10046000206A01436960012000F00DF8044600F0A5
:1004700004F883D00020BDE8F2832868C0F3406010
:10048000002870470020306600F0CAB82DE9F84314
:100490000400884667D0554E306800F0070040459C
:1004A00002D200F062F85ED121784A4D880705D566
:1004B0006968A06821F0F001014369602078C107F4
:1004C00049D56168012902D100F059F804E00229F8
:1004D000286803D1C0F3406018B944E000F054F834
:1004E00041D06868800841EA8001696041F2893939
:1004F00000F096F807466868616800F00C00B0EB01
:10050000810F28D000F08CF8C01B4845F3D303209E
:100510001FE02078410705D56968E06821F4E061B3
:10052000014369602078010706D56868216920F4D5
:10053000605040EAC100686000F02EF86A682C49FB
:10054000C2F30312895C244AC840106000F020F80E
:100550000020BDE8F283306800F007008045D8D263
:1005600000F003F8D5D00120F3E73168C90848EA64
:10057000C1013160306800F00700404570472868CD
:10058000C0F3404070472868C0F34000002870471F
:100590001848006800F04AB817490A6802F00C00D1
:1005A000082814D10FF25803C2F38340D203185C19
:1005B000896A09D50FF25803084A01F00F01595C06
:1005C000B2FBF1F1484370470C4948437047034878
:1005D00070470000001002400C00002000127A005A
:1005E000000042428004424200700040002002406D
:1005F000A8120008080000200410024000093D0075
:1006000002030405060708090A0B0C0D0E0F101053
:100610000102030405060708090A0B0C0D0E0F1052
:1006200001484068704700BF0000002038B50D4DFC
:100630000D4A297804464FF47A70B0FBF1F1106846
:10064000B0FBF1F000F04BF850B9102C08D20022AA
:1006500021464FF0FF3000F025F8AC60002032BD9D
:10066000012032BD000000200C0000200901020022
:1006700081B002D42448815405E0244802F00F02DE
:10068000104400F8041C01B07047214A13684FF66B
:10069000FF0100020B4000F4E06018431D490843CD
:1006A0001060704738B51A4B1C68C4F30223C3F1BD
:1006B0000704052C28BF04241D1D072D34BF00236B
:1006C000DB1E012505FA04F4641E2140994005FA59
:1006D00003F35B1E1A401143BDE83440C6E710B572
:1006E000401EB0F1807F01D3012010BD0A4C606034
:1006F0000F214FF0FF30FFF7B9FF0022A260072063
:100700002060002010BD000000E400E018ED00E0D3
:100710000CED00E00000FA0510E000E097480168E9
:1007200021F080710160026842F08072026094489A
:1007300001684908490001600021026842F0010295
:100740000260416000BF00BF00BF4068401E8041A2
:10075000C00F704738B500F029F900F05AF800F0E2
:1007600096F8884C8848606604F184058748A0663E
:100770000020E0660120206700206067A067E06736
:10078000C4F88000286004F1640000F021F9002121
:1007900004F1640000F076F9002104F1640000F037
:1007A00089F97B4820604FF4827060600020A0606F
:1007B0004FF44070E0600020206160614FF40070F1
:1007C000A0610820E061002020626062A062072032
:1007D000E0620020206308206063204600F096F964
:1007E0006C48E8620820286302206863E863002000
:1007F0006864E86404F1B00000F0E4F9FFF78EFFEC
:10080000654C102000F02CFA4021204600F00AFB35
:10081000F7E780B59EB005A8282100F019FB6846CF
:10082000142100F015FB0FA83C2100F011FB032060
:1008300005904FF4A0210691002007900121099115
:1008400010200A9002210C914FF480300D904FF44B
:1008500080110E9105A8FFF797FC0F200221009050
:10086000019100204FF480610290039104900121D6
:100870006846FFF70BFE49480F9000214FF48000B7
:100880001D9016910FA800F0E7FA1FB000BD70B5DB
:1008900086B06846142100F0DBFA41483E4D0468FA
:1008A00044F4001404604FF6087601683D4C01F4EE
:1008B000001105910599016841F400210160026869
:1008C00002F4002205920599016841F4800101605B
:1008D000026802F4800205920599016841F4003132
:1008E0000160026802F4003205920599016841F442
:1008F00080110160026802F48012059200220599BD
:10090000016841F4802101603146006800F48020D4
:1009100005900598204600F07EFA002260212846C6
:1009200000F079FA3720009000201F4901910290D1
:100930006946204600F0A8F90120002101900291AB
:10094000039100966946204600F09EF9012000219F
:100950000090019102914FF09040694600F094F9A7
:1009600060200090012100200191029003906946CF
:10097000284600F089F906B070BD0000FCED00E0EB
:10098000001000E010000020005400400E0900207C
:1009900000300140005C0040000C004820000200D4
:1009A00014100240001000480000121080B50748E3
:1009B000016841F0100101600320FFF766FE00208E
:1009C000FFF734FE00F024FB002002BD00200240AF
:1009D00038B5040001D1012032BD04F1400568782A
:1009E00020B900212970204600F02AFB00F041F8D0
:1009F0006068216820F0706008612068816821F4D7
:100A000000418160E068A168012820680CBF41F4C2
:100A1000004141F404418160E168022903D1226868
:100A20004FF4006050602068416841F0007141F46B
:100A3000004141602068C16821F40041C1606069E3
:100A4000216922680143A06941EA0021D160206A3E
:100A5000E1690143206801602068016841F00101FB
:100A60000160002068602020687000202063A8706A
:100A700032BD24206870206801684908490001607F
:100A80007047000030B500F140025378202B0FD1A1
:100A90001478012C0CD000F02DF81D6825F4805539
:100AA0001D6003681C682143196000F019F830BD0F
:100AB000022030BD10B500F140025378202B0DD13B
:100AC0001478012C0AD000F015F81C6824F4706426
:100AD00044EA01241C6000F003F810BD022010BDA0
:100AE0000068016841F00101016020205070002081
:100AF00010707047012313702423537003681C681F
:100B0000640864001C6003687047000038B5040086
:100B100001D1012032BD0020A06204F15C0568789B
:100B200020B900212970204600F0B5FA0220687033
:100B300000F042F8E268B2F5E06F04D90021B2F5A6
:100B4000706F03D104E04FF4805101D00020A06207
:100B5000206B30B9B2F5E06F87BF0222226301201B
:100B600020636268A068A369024320690243606948
:100B7000024303F40073E0691A430243206A02430C
:100B8000A06A024320680260A269606A120C02F047
:100B900004020243606B0243E06802432068114391
:100BA00041602068C16921F40061C1610020686072
:100BB00001206870002032BD2068016821F04001EA
:100BC0000160704730B5040085B008BF01203DD0FA
:100BD00004F52A75687820B900212970204600F0B4
:100BE00082FA03206870206800F0BCFA00212820F7
:100BF0000AE010FB01F222442832012353701170E5
:100C0000D181002300F024F862689142F1D30021E1
:100C100009E010FB01F2224402F5B47200231170C6
:100C2000537000F015F862689142F2D383B0211D31
:100C30006846202200F0ACFA0EBC206800F098FA5A
:100C4000002084F8240001206870002005B030BD29
:100C5000491CD370136153619361C9B2704700009E
:100C600038B50446FFF7DCFC14F1010F054602D04D
:100C7000044801786418FFF7D3FC401BA042FAD364
:100C800031BD00BF000000202DE9F84F4FF00009F2
:100C9000684A694B4FF00F0805460E4633E0674F30
:100CA000BD4214BF052704278F4027434CF82E7000
:100CB000C143146801EA040C7468E40348BF40EAC5
:100CC0000C0CC2F800C0546801EA040C7468A40358
:100CD00048BF40EA0C0CC2F804C0946801EA040C56
:100CE0007468E40248BF40EA0C0CC2F808C0D4683B
:100CF00001EA040C7168890248BF40EA0C0CC2F892
:100D00000CC009F10109316831FA09F000F0818065
:100D1000012404FA09F414EA0100F2D04FEA490C64
:100D2000032101FA0CF16FEA010E7168012918BF65
:100D3000022903D0112918BF122911D1A968F76817
:100D40000EEA010107FA0CF73943A960696821EA44
:100D500004047168C1F3001101FA09F10C436C60DD
:100D6000E968B4680EEA010104FA0CF42143E96071
:100D70004FEA89017468022C18BF122C12D14FEA75
:100D8000D90405EB840401F01C07D4F820A008FA6C
:100D900007FB2AEA0B0AD6F810B00BFA07F747EA66
:100DA0000A0727622C680EEA0407347904F003046A
:100DB00004FA0CF43C432C607468E400A1D51C6870
:100DC000DFF87CC044F001041C604FEA990E1C68F7
:100DD00004F00104009401F00C01009C5CF82E70FA
:100DE00008FA01F427EA0404B5F1904F08BF002780
:100DF0000ED0144FBD4208BF012709D0124FBD428B
:100E000008BF022704D0114FBD427FF448AF03272B
:100E10004AE7BDE8F18F81B0002A14BF8161816289
:100E200001B07047426901EA0203914341EA03417C
:100E30008161704700040140181002400010004812
:100E4000080001400004004800080048000C004869
:100E5000002200F0E1B900002DE9FC410546DFF871
:100E6000A4612868C10354D5B0690024C10009D425
:100E7000B06940F08050B0610124B06900F080504A
:100E800000900098DFF880713968C80517D4386879
:100E900040F480703860FFF7C3FB80463968C805AE
:100EA0000DD4FFF7BDFBA0EB08006528F6D30320A7
:100EB000A5E0FFF7B5FBC01B40451AD3F7E7F06983
:100EC00010F440701EBF696801F44071884215D06B
:100ED000DFF83811F06901220A6020F44070002226
:100EE0000A60F061C00709D5FFF79AFB074641F297
:100EF0008938F069C0F340000028DAD0F1696868E9
:100F000021F440710143F1611CB1B06920F08050BF
:100F1000B0612978C80705D5F16AA868890840EA50
:100F20008101F1622878810705D5F16AE86821F42A
:100F300040310143F1622878410705D5F16A2869FB
:100F400021F440210143F1622878810605D5F16A38
:100F5000E86921F010010143F1622868810305D599
:100F60003168A86B21F48001014331602878410683
:100F700005D5F16A286A21F020010143F162287841
:100F8000010705D5F16A686921F440110143F16256
:100F90002878C10605D5F16AA86921F4400101430A
:100FA000F1622868810505D53168E86A21F40001FD
:100FB000014331602878010605D5B16A686A21F4D9
:100FC000F8710143B1622868C10505D5B16AA86A04
:100FD00021F478510143B1622868C10405D5F16A52
:100FE000286B21F480710143F1622868810405D5E2
:100FF000F16A686B21F400710143F1620020BDE8E1
:10100000F68100000410024000700040400442429B
:101010004E4882B0016841F001010160026802F0AF
:10102000010200920099416841F08051416040689E
:1010300000F0805000900098072002B0FFF725BB19
:1010400010B586B000F04AF82168414A914220D19B
:10105000404C206840F4802020601222216801F476
:1010600080210091C021009801910120039003216B
:10107000042004910590029201A93748FFF704FE6D
:10108000A06840F40010A060A06800F40010009078
:10109000009806B010BD10B586B000F01FF82168AA
:1010A0002E4A914218D12B48416841F48051416049
:1010B0000222416801F4805100910099016841F4D5
:1010C00000310160E021006800F40030009000F081
:1010D0002EF8052000F031F806B010BD044601A836
:1010E0001421FFF7B5BE10B586B0FFF7F7FF2168F2
:1010F0001B4A914219D1174C206840F400302060FF
:101100000222216801F4003100914FF4C05100F037
:101110000EF80E2000F011F8A06840F40000A06066
:10112000A06800F400000090009806B010BD009880
:1011300001910020039003217047049105900292D1
:1011400001A94FF09040FFF79FBD0000181002402A
:1011500000540040141002400004004800300140D8
:10116000005C0040B0F8402044F2FF0100F00BB8F2
:101170000EB4012120F8401F0021018081800182EE
:10118000002003B070470A40A0F8402000207047BC
:10119000103A07D330B4B1E83810103AA0E838104C
:1011A000F9D230BC530724BFB1E80810A0E80810FA
:1011B00044BF51F8043B40F8043BD20724BF31F848
:1011C000022B20F8022B44BF0B7803707047121FCC
:1011D00017D35B0009D151F8043B20F8023B1B0CEC
:1011E000121F20F8023BF6D20BE051F8043B00F846
:1011F000013B1B0A20F8023B1B0C121F00F8013BAD
:10120000F3D238BF121D521E24BF11F8013B00F863
:10121000013BF8D87047000000B500BF13009646A8
:101220009446103928BFA0E80C50FAD85FEA417CF8
:1012300028BF0CC048BF40F8042BC90728BF20F8BE
:10124000022B48BF00F8012B00BD19E050F8042B19
:10125000D30744BFA9F101039A18091F00230429E9
:1012600042F8043BF9D25FEA817C134604D54FF083
:10127000000CA2F800C09B1CC90744BF00211970D4
:1012800050F8041B0029E1D1704700000448054ACA
:10129000016841F4700101604FF000601060704718
:1012A00088ED00E008ED00E0000000000000000014
:1012B000010203040607080910B450F8041B79B1B1
:1012C0000268436802440830DC0744BFA9F1010406
:1012D000E31852F8044B43F8044B091FF9D1ECE72B
:1012E00010BC704710B5074979441831064C7C444E
:1012F000163404E00A68081D114488470146A142DB
:10130000F8D110BD2C0000004C0000004EF68851B2
:10131000CEF20001086840F470000860BFF34F8F00
:10132000BFF36F8F4FF00070E1EE100A70470000BE
:101330001BFFFFFF9C0300001000002000000000C6
:1013400079FFFFFF1000000088000000000000206F
:101350000000000000F00DF8002801D0FFF7C2FFE8
:10136000AFF300800020AFF30080FFF7F3F900F047
:1013700002F80120704700F001B800000746384627
:1013800000F002F8FBE7000080B5AFF30080024AEE
:1013900011001820ABBEFBE7260002007047FEE7F5
:1013A000FEE7FEE7FEE770477047704700F000B8C1
:1013B00002484168027889184160704700000020A7
:1013C00001488047014800478D120008E1130008DA
:1013D00001000000000000001000000000127A0070
:1013E000AFF30080FFF792FFFFF7B4FFFFF7FEBFF8
:1013F000FFF7FEBFFFF7FEBFFFF7FEBFFFF7FEBF21
:10140000FFF7FEBFFFF7FEBFFFF7FEBFFFF7FEBF10
:10141000FFF7FEBFFFF7FEBFFFF7FEBFFFF7FEBF00
:10142000FFF7FEBFFFF7FEBFFFF7FEBFFFF7FEBFF0
:10143000FFF7FEBFFFF7FEBFFFF7FEBFFFF7FEBFE0
:10144000FFF7FEBFFFF7FEBFFFF7FEBFFFF7FEBFD0
:10145000FFF7FEBFFFF7FEBFFFF7FEBFFFF7FEBFC0
:10146000FFF7FEBFFFF7FEBFFFF7FEBFFFF7FEBFB0
:10147000FFF7FEBFFFF7FEBFFFF7FEBFFFF7FEBFA0
:10148000FFF7FEBFFFF7FEBFFFF7FEBFFFF7FEBF90
:10149000FFF7FEBFFFF7FEBFFFF7FEBFFFF7FEBF80
:1014A000FFF7FEBFFFF7FEBFFFF7FEBFFFF7FEBF70
:1014B000FFF7FEBFFFF7FEBFFFF7FEBFFFF7FEBF60
:1014C000FFF7FEBFFFF7FEBFFFF7FEBFFFF7FEBF50
:1014D000FFF7FEBFFFF7FEBFFFF7FEBFFFF7FEBF40
:1014E000FFF7FEBFFFF7FEBFFFF7FEBFFFF7FEBF30
:0414F000FFF7FEBF45
:04000005080013E1FB
:00000001FF
