:020000040800F2
:1000000008080020696300081161000819610008F0
:1000100025610008316100083D6100080000000012
:10002000000000000000000000000000496100081E
:100030004B61000800000000536100085561000892
:100040008D630008916300089563000899630008B8
:100050009D630008A1630008A5630008A963000868
:10006000AD630008B1630008B5630008596100087A
:10007000B9630008BD630008C1630008C5630008D8
:100080005F610008656100086B610008C9630008D2
:10009000CD630008D1630008D5630008D963000868
:1000A000DD630008E1630008E5630008E963000818
:1000B000ED63000871610008F1630008F563000852
:1000C000F9630008FD630008016400080564000886
:1000D000096400080D640008A961000811640008A3
:1000E00015640008196400081D64000821640008F4
:1000F00025640008296400082D64000831640008A4
:10010000000000000000000000000000356400084E
:10011000396400083D640008416400084564000833
:10012000496400084D6400085164000855640008E3
:10013000596400085D640008000000000000000031
:10014000616400086564000869640008000000003C
:10015000000000000000000000000000000000009F
:1001600000000000000000006D64000871640008D9
:10017000756400080000000000000000000000009E
:1001800000000000796400082DE9F0439FB00FF2F1
:100190009C16269CDFF80C8C02918DF83B400021C8
:1001A0000B914FF0FF37044691461D460AE019F8BF
:1001B000011B0298A0470028029000F0A4800B9831
:1001C000401C0B9099F8000050B12528EFD1002079
:1001D0000021059006910790089109900A9103E08B
:1001E0000B98A7E041F0010119F8010F2028F9D080
:1001F00023280CD02B2804D02D2805D0302809D056
:1002000083E041F00201EFE741F00401ECE741F047
:100210000801E9E741F01001E6E700200D900AE04F
:100220000D98404505DA00EB800302EB4302303ABB
:100230000D9209F1010999F80020A2F130000A2875
:10024000EED399F800002E2818BF0C9726D119F884
:10025000010F2A2808D12868286009F1010950F8FF
:10026000042B28600C9219E02D280CBF19F8010B03
:10027000002000220C920BE040B90C9A424505DAAE
:1002800002EB820203EB4203303B0C9309F10109BC
:1002900099F80030A3F130020A2AEDD3ADF83810F6
:1002A000304699F8001000F031FF08B119F8010B41
:1002B0008DF83A009DF83A00682804BF99F80010BC
:1002C000682903D162208DF83A0008E06C2804BF49
:1002D00099F800006C2804D171218DF83A1009F1C9
:1002E000010910A804902A4619F8013B69462046E6
:1002F00000F060F838B910AA6946204600F0C2F94B
:1003000000287FF55FAF384614E02A2885D12A6897
:100310002A6052F8040B2A6000280D9003D5404251
:100320000D9041F0040109F101098AE7686A6C74D3
:100330007A4C00001FB0BDE8F083622820D0682806
:1003400011D06A2803D06C2827D0712825D10868DD
:10035000C01D20F007000860D0E9002308300860C5
:10036000194610467047002A0A680A60106803D0D0
:10037000121D0A6000B217E0121D0A6080B217E079
:10038000002A0A680A60106803D0121D0A6040B291
:100390000AE0121D0A60C0B20AE0002A0A680A6078
:1003A000106803D0121D0A60C1177047121D0A6041
:1003B000002170477CB50D4611461C462E69B4F1EC
:1003C000250200F04D811C3A00F08680121F022A9F
:1003D00040F282800E3A00F00781521F5AD0093A4B
:1003E0007AD0921E16D0521E35D0521E022A73D9D0
:1003F000121F30D0521F00F09A80521E4AD0521E57
:1004000000F0E480D21E00F0FD80921E42D0D21E89
:1004100040D02BE195F83A206C2A09D06869421C3B
:100420006A610A680A6052F8043B0A60335427E1A3
:100430000A680A6052F8043B0A60002100930191A7
:100440004FF0FF322A6329466A4600F0A1F90028DE
:1004500040F1168101E195F83A000122FFF76DFFA6
:10046000C5E900010023994204DA6869411C696109
:100470002D210DE0288F810704D56869411C696131
:100480002B2105E0C00722D56869411C6961202144
:1004900031541CE095F83A000022FFF74EFFC5E901
:1004A000000195F83800010711D5D5E90023002097
:1004B000834208BF82420AD044F02000782806D147
:1004C000686930213154401C411C69613454214613
:1004D00068693044E86083E00868C01D20F00700C8
:1004E0000860D0E9002308300860C5E90023D5E999
:1004F0000001C80F04D06869411C69612D210DE01D
:10050000288F810704D56869411C69612B2105E0AA
:10051000C00704D56869411C6961202131546869AC
:100520003044E8602146284600F03DFAA8E005F195
:100530003A02507820B14FF0FF340FF6343070E0BB
:100540001078622808D0682824D06A2812D06C2835
:100550002ED071280ED02BE00A680A6052F8040BE6
:100560000A6020B94FF0FF340FF61C3059E0E96AF9
:10057000017085E00A680A6052F8040B0A6020B92D
:100580004FF0FF340FF600304BE0EA6AD317C0E9B2
:10059000002375E00A680A6052F8040B0A6020B96B
:1005A0004FF0FF340FF6E0203BE0E96A018067E09E
:1005B0000A680A6052F8040B0A6020B94FF0FF3451
:1005C0000FF6C4202DE0E96A016059E00A680A606C
:1005D00052F8040B0A600021C5E90001EE607821A1
:1005E000284600F034F94BE06C2285F83A200B687D
:1005F0000B6053F8042B0B6052BB4FF0FF340FF627
:10060000BC200EE095F83A206C2AF0D0086808600B
:1006100050F8044B0860EC603CB94FF0FF340FF623
:10062000802000F07FFD201A76BD2E6B002E04D5B1
:10063000204600F099FD044608E03246002120469D
:1006400000F0AEFD002814BF041B3446AC6117E077
:10065000294600F09DF8002812D54FF0FF3076BDF6
:100660006869411C69612521315409E06969481CA8
:10067000686125227254210002D0411C6961345402
:10068000002076BD2DE9FC410F460646796B78695E
:10069000BC6A091A386A091AB869091A786A091A03
:1006A000F869091A97F838000C1B410790460FD4D7
:1006B0002021002C8DF800100ADD254601236A4612
:1006C0003946304600F0BDFC00285DD16D1EF5D1E5
:1006D0007B6942463946304600F0B3FC002853D1CE
:1006E00030208DF800003D6A002D09DD01236A46A7
:1006F0003946304600F0A5FC002845D16D1EF5D1E5
:10070000BB69FA683946304600F09BFC00283BD1B3
:1007100030208DF800007D6A002D08DD01236A4637
:100720003946304600F08DFC70BB6D1EF6D1F8687E
:10073000B969FB6942183946304600F082FC18BBA3
:1007400030208DF80000BD6A002D08DD01236A46C7
:100750003946304600F075FCB0B96D1EF6D197F8F9
:10076000380041070DD52021002C8DF8001008DD40
:1007700001236A463946304600F063FC20B9641E06
:10078000F6D10020BDE8F6814FF0FF30BDE8F681DC
:100790002DE9F8470D46A3B02F6B002F81469046F8
:1007A00048BF6FF0004700F027FD696B40180FF657
:1007B00028118128D1E90023CDE9012328BF4FF07A
:1007C000FF303ED20024002F2FDDD8F8001001AA00
:1007D000684600F015FD0646002E35D4D8F8000016
:1007E00008B9761E30D4B7421FDB686930188128FB
:1007F0000AD30020686303AA29464846FFF742FF50
:10080000040012D40020686103A8D5F814A0324671
:100810006946504400F0F6FCB244C5F814A058F8FC
:10082000040B002818BFBF1BCDD12CB903AA294641
:100830004846FFF727FF044614B900206861686343
:10084000204624B0BDE8F0874FF0FF34F8E72DE9EB
:10085000FC4707468A463E69BAF16F0F08BF082475
:1008600005D04AF02001782914BF0A2410243C2521
:10087000D7E90023BAF1640F18BFBAF1690F9046A7
:10088000994606D100218B4203DAD8F1000869EBC2
:1008900049090020814508BF80451FD1386BE8B960
:1008A000082C4CD197F83800010748D530203B255B
:1008B00086F83B0043E000280ED597F8380000F09A
:1008C0001400102808D17A6B7869121A386A121A43
:1008D000511A0029C8BF3962BDE8F3878DF800A01E
:1008E000404649462246E31700F0E0FC3032D0B2E1
:1008F0006D1E3A28019504DB9DF80000A0F151011E
:100900008A187255404649462246E31700F0CEFC4D
:10091000804689460020814508BF804503D0F8689D
:1009200071198842DCD3082C09D197F838000107E7
:1009300005D5715D302902D06D1E30207055C5F18E
:100940003C01B9617019F860386B8142B3DA411A21
:1009500039624FF6EF70398F01403987BDE8F38770
:100960002DE9D04306460F4614464FF00008DFF845
:10097000389412E0E00707D542464B4630463946E8
:1009800000F0ACFD06460F464046494642464B46FF
:1009900000F0A4FD641080468946002CEAD1304660
:1009A0003946BDE8D0832DE9F34F054641F02004D8
:1009B0008DB0D5E90089612C02AE09D0286B0028E2
:1009C00048BF062003D408BF672C01D1012028634B
:1009D000D5E9002358004015401C0ED119030CD056
:1009E0000320A8619DF8380061381A2802D20FF25E
:1009F000F06111E00FF2EC610EE058004015401C70
:100A00000FD119030DD10320A8619DF8380061387A
:100A10001A2814D30FF2D461E868032200F0F2FB25
:100A2000D2E1194621F00043B3F5801F10460DD2E4
:100A30000027BB4208BFBA42019703D111E00FF271
:100A4000A861E9E701AA00F01BFE0AE0DFF85C7389
:100A500007EB1352DFF8583301921940DFF8543393
:100A60001943C5E90001612C0ED1E86830210170FD
:100A7000811CE9609DF8381061290CBF782158214C
:100A800041706869801C6861D5E900AB2BF00043B8
:100A900000202AF00002834204BF8242002300F0BB
:100AA0005A81612C40F0A980286B00284CBF21207E
:100AB000401C00904046009F7F1C494600220023B6
:100AC00000F016FED94601988DF8082038BF89F04D
:100AD0000049001F0190002FD0460DF1090040F39E
:100AE000498140F2FF71DFF8D0B20C9106464046D2
:100AF00049460022002300F013FE80F03A814800AE
:100B0000400D00F11C0210D0002A0EDD0C9882422C
:100B100005DB09F0004040EA0B01002013E0A44887
:100B2000084040EA025140460DE029F00043002011
:100B300028F00002834208BF82420FBF40461C22B9
:100B4000404600F005FE8046894600F09FFEFF1FEC
:100B5000002F044609DD00F0B7FE02460B46404672
:100B6000494600F0C3FE80468946F01D072104E097
:100B700004F00F0200F8012D2411002C01DD491EA4
:100B8000F6D5491E5CBF002200F8012DF9D5ECE036
:100B90000020194602AA0A4400E05B1E12F801492F
:100BA000491E8442F9D00F2804D10DF10900425C9E
:100BB000521C4254002904D50198001D02AE5B1C52
:100BC0000190591E12D49DF838007218147804F15F
:100BD00030085FFA88F4392CC4BFA0F13A04A0446D
:100BE000491E02F80189F1D58DF83800286B0028DC
:100BF00040F1B080591E2963ACE0404649460022CE
:100C0000002300F075FD019938BF89F0004947F2D3
:100C100097504143694A91FBF2F20192D2F10702E7
:100C200004DD40464946FFF79BFE0AE052420020A1
:100C30006349FFF795FE02460B464046494600F0E1
:100C4000C7FE8046662C286BDFF878B106BF019F8F
:100C50000A3706273F18142FC8BF142730208DF8F5
:100C6000080089460DF1090000E03046002F34DD10
:100C700006464046494600F0CFFF01460A4606F1C7
:100C8000080304200A26B2FBF6F606EB860EA2EB5A
:100C90004E02303203F8012C0A22B6FBF2F202EBCC
:100CA000820EA6EB4E063036401E03F8026DE9D1E7
:100CB000083F002F03F10806D7DD084600F0C0FF0B
:100CC00002460B464046494600F010FE00225B46B5
:100CD00000F004FC80468946CBE70DF10901401A7B
:100CE0000DF1090604E00199491E401E0191761C90
:100CF00031783029F7D0662C02D10199491C03E0E4
:100D0000652C0CBF012100212B6BCB189842B8BF7A
:100D1000431E002B1ED4834204DAF05C3528A8BFA2
:100D2000392000DA30201946721E02EB010800E07B
:100D30005B1E18F80199491E8145F9D0392802D166
:100D4000705C401C7054002904D50198401C164664
:100D50005B1C0190019800B200901BB29DF8381006
:100D60003246284600F033F82EE0C61D002F3FF72C
:100D7000BEAE30460DF10901401A00990346884283
:100D8000C8BF0B46002B0DF109063FF52FAF83427C
:100D9000BFF6FEAE0DF10900C05C07287FF7F8AE84
:100DA0000F20F6E6CBCCCC0C0000244002FCFFFF69
:100DB000FFFF0F800000E03F0000F07FA0860100F1
:100DC0000000F03F84D797410FB0BDE8F08F2DE9C8
:100DD000FC43054683B01F46D5F83080002F1646E9
:100DE00002DC01270FF208368946BDF9304049F090
:100DF0002000662808BF641C17D0672840F0888050
:100E000014F1040FC0F28A80444580F2878095F87F
:100E10003800641C010702D44745B8BFB84620B269
:100E2000B8EB000848BF4FF000080FFA84F9E868F3
:100E3000A969B9F1000F27DC4A1C30234354B8F1EB
:100E4000000F03DC95F83800010703D5E8682E2170
:100E50008154521C18EB090FB8BFC8F1000424B22A
:100E600060426862A044B845AA61B8BF4746E868D6
:100E7000AB693FB2EF613A463146184400F0C2F91F
:100E8000A8EB0700A862C5E022B29742084419DA2D
:100E90003A46314600F0B6F9A8693818A9EB0707B9
:100EA000B8F1000FA8616F6203DC95F838100A07EB
:100EB00005D5E9682E220A54E869401CE861C5F8A6
:100EC0002880A7E0314600F09DF9A8693F1BB8F1E2
:100ED000000F484403DC95F838100A0703D5E96889
:100EE0002E220A54401CA86138B28045E868AB69DC
:100EF000B8BF47463AB206EB0901184400F082F940
:100F0000A8693FB23818A8EB0707A8616F6281E0B3
:100F1000B9F1610F16D14FF0700918E0474504DAB6
:100F200095F838100A0758BFB846B8F1010848BF0D
:100F30004FF00008B9F1670F14BF4FF045094FF0AB
:100F4000650904E0B9F1410F08BF4FF05009A969E4
:100F5000EB68481CA861B8F1000F16F8012B5A5431
:100F600003DC95F838100A0719D5EA68431CAB6111
:100F70002E211154B8F1000F11DD7F1E38B28045CB
:100F8000E868B8BF47463AB23146184400F03AF92B
:100F9000A8693FB23818A861A8EB07006862E86842
:100FA000A9690844002C80F8009003D42B214170DB
:100FB000811C03E02D2141706442811C00206A469F
:100FC0000AE023460A2493FBF4F404EB8406A3EB23
:100FD000460302F8013B401C24B2002CF1DC01283E
:100FE00006DC49F02002652A04BF302201F8012BFB
:100FF00048B9302001F8010B07E0401E1DF8002021
:10100000303201F8012B0028F7DCE868AA691044A7
:10101000091AE96195F8380000F0140010280DD184
:101020006969A8694118686A4118E8694118A86A9D
:101030004118686B8142BCBF411A296205B0BDE806
:10104000F083F8B505460E4617461C46002074B1DD
:1010500017F8011BB068A847B06030B1F06A401CB7
:10106000F0620020641EF3D1F2BD4FF0FF30F2BDFC
:101070007072696E74665F733A20256E20646973BE
:10108000616C6C6F776564007072696E74663A208B
:1010900062616420256E20617267756D656E7400F3
:1010A0007072696E74665F733A20626164202573A2
:1010B00020617267756D656E740000007072696EF4
:1010C00074665F733A2062616420256C73206172DC
:1010D00067756D656E740000000000000000000080
:1010E0006E616E004E414E00696E6600494E4600CC
:1010F00030008268521C8260426832B10268531C20
:10110000036011704168491E416070470278C9B29E
:101110008A421AB11CBF10F8012FF9E718BF00204E
:101120007047000080B508B90FF21C0005490B6834
:101130001BB122220021984701E000F08EFD222001
:1011400002BD000000040020636F6E737472616959
:101150006E742068616E646C65723A20626164200E
:101160006D6573736167650000F10103810704D049
:1011700010F8011B89B18107FAD10268B2F101317F
:10118000914311F0803F04BF50F8042FF6E710F8A8
:10119000011B11B110F8011BFBE7C01A70470000DA
:1011A000C9B2830706D0521E22D310F8013B9942E0
:1011B000F7D11FE0083A13D302F1040241EA0121FA
:1011C00041EA014150F8043B121F21BF4B40A3F1FB
:1011D000013C2CEA030C1CF0803FF3D0C9B2001F85
:1011E000083210F8013B521E28BF91EA030FF8D8CD
:1011F00018BF0120401E70470120704700F030BD2D
:101200000023FBE762B38B0708D0521E11F8013BA5
:1012100000F8013B00F024808B07F6D1830740F0F3
:10122000208000BF103A07D330B4B1E83810103A2C
:10123000A0E83810F9D230BC530724BFB1E8081039
:10124000A0E8081044BF51F8043B40F8043BD20723
:1012500024BF31F8022B20F8022B44BF0B78037017
:101260007047121F17D35B0009D151F8043B20F8D7
:10127000023B1B0C121F20F8023BF6D20BE051F888
:10128000043B00F8013B1B0A20F8023B1B0C121F19
:1012900000F8013BF3D238BF121D521E24BF11F8D3
:1012A000013B00F8013BF8D870470000B3BBD9B14F
:1012B000B2F5803F7DD2022A1ED98C46B1FBF2F1F5
:1012C00002FB11C31B0443EA1043B3FBF2FC02FB15
:1012D0001C3380B240EA0343B3FBF2F002FB10324E
:1012E00040EA0C4000237047022A05D98446B0FB2F
:1012F000F2F002FB10C270474AB105D100F00102C2
:1013000049085FEA3000704700220023704700F070
:10131000B1BC0B000200002100207047904271EB2D
:10132000030CF6D3B3F5803F2FD2F0B5B3FA83F7B1
:10133000B1FA81F4A7F10F0E3D1B5340CEF1200608
:1013400002FA0EF2F3415340B5F10F0746D80F3CB5
:101350002C444140C4F12006A040F1414140B1FB82
:10136000F3F603FB1611A2FB0645001BA94102D2AE
:10137000761E8018594180EA010221FA0EF362FAC2
:101380000EF200215A403046F0BD30B4B1FBF3FC00
:1013900003FB1C11A2FB0C45001BA94103D2ACF1BD
:1013A000010C8018594130BC02460B4660460021B2
:1013B0007047B2F1807F65D3F0B5B2FA82F7B1FA27
:1013C00081F4C7F10F063D1B22FA06F307F1110E57
:1013D000F24120355A40B5F10F07B8D94140C4F168
:1013E0002006A040F1414140B1FBF3FC03FB1C117E
:1013F000A2FB0C45001BA94103D2BCF1010C8018D3
:1014000059410F2F12D30F3FC90341EA5041B1FB9D
:10141000F3F603FB1611A2FB0645D4EBC030A9413D
:1014200002D2761E8018594146EACC3C07B34140AF
:10143000C7F12006B840F1414140B1FBF3F603FB90
:101440001611A2FB0645001BA94102D2761E801888
:10145000594180EA010221FA0EF3C7F1200462FA31
:101460000EF20CFA07F05A402CFA04F13043F0BDAA
:1014700080EA010221FA0EF3002162FA0EF26046C0
:101480005A40F0BD8C46B1FBF2F102FB11C31B02C6
:1014900043EA1063B3FBF2FC02FB1C331B024CEA71
:1014A000002043EA1063B3FBF2FC02FB1C331B0277
:1014B0004CEA002043EA1063B3FBF2FC02FB1C334E
:1014C0001B024CEA002043EA1063B3FBF2FC02FB70
:1014D0001C324CEA0020002370470000B0B581EABE
:1014E000030C0CF0004C40F2FF7515EA11541DBFBF
:1014F00015EA1357AC42AF4239E0E41923EA4553E9
:1015000043F48013C90241F0004141EA505EC70232
:101510001100A7FB020200284FF00000EEFB0120A3
:101520004FF00001E3FB072118BF42F00102401811
:1015300000214941E3FB0E01A4F580640F0302D2B0
:1015400052004041494154F101046CDD470872F1F9
:10155000004250F1000051EB0451A1F580115CBF35
:1015600041EA0C01B0BD4CEA05510020B0BD05EACE
:101570001357AC4214BFAF4241E050EA410E1CBFCA
:1015800052EA430E02E061460020B0BD24423C44D2
:101590001BD15FEA070EF6D0090302BF0146002007
:1015A000AEF1140EB1FA81F7AEEB070401FA07FEB3
:1015B0000C37C7F1200100FA07F7C8404EEA000EC9
:1015C00023EA455343F48013A2E733F00043B3FA10
:1015D00083F704BFB2FA82FE77440B3FE41BB7F1F6
:1015E000200E2FBF02FA0EF3BB40C7F1200E22FAE5
:1015F0000EFE38BF43EA0E03BA40641C82E750EA8D
:10160000410E14BF52EA430E6FF000014FF4001771
:1016100017EB430F8ABF194617EB410FB5E74CEAAA
:1016200005510020B0BDD4F10104B4F120070FDA58
:10163000C4F12007520828BF42F0010210FA07F552
:1016400001FA07F7E1BF2A43E0403843E1400FE0E9
:10165000352C98DCC7F1200452EA400220FA07F248
:1016600018BF42F0010231FA07F0A1400A430021FD
:1016700072F1004250F1000051EB0C01B0BD0000CE
:1016800010B5144600F002F8226010BDC1F30A53F1
:1016900043B14A0012F5001F28D2A3F2FE32A1EB9B
:1016A0000251704750EA410C20D001F0004C31EA61
:1016B0000C01B1FA81F204BFB0FA80F3D2180B3AF0
:1016C000B2F120032CBF00FA03F1914041EA0C0172
:1016D0003EBFC2F1200C20FA0CF319439040524255
:1016E00040F2FD33D21A01EB0351704700227047DC
:1016F0004FF4001C1CEB410F94BF1CEB430F09E09F
:1017000041EA030C50EA4C0C52EA0C0C03D2994209
:1017100008BF9042704714BF8B428242704700005E
:101720004FF4001C1CEB410F94BF1CEB430F09E06E
:1017300041EA030C50EA4C0C52EA0C0C03D28B42E7
:1017400008BF8242704714BF994290427047000020
:10175000124254D440F2FF7C1CEA11530FD063456F
:1017600031D09B1863453CBF01EB0251704701F03B
:10177000004141EA0C510020AFF30080704750EA6D
:10178000410320D001F0004C91EA0C011CD0B1FAC9
:1017900081F30B3B9A420DD9D21A994051EA0C01C0
:1017A000C3F1200C20FA0CFC61449840531C40F219
:1017B000FF7CD7E7914041EA0C01C2F1200C20FAEE
:1017C0000CF3194390407047B0FA80F31533202B87
:1017D000E0D3202AEED3203A203B9A4209D9D21AEC
:1017E00000FA03F141EA0C010020531C40F2FF7C97
:1017F000B8E700FA02F141EA0C01002070475242BA
:1018000040F2FF7C1CEA11530DD06345DBD0B2EBF4
:10181000030C3CBFA1EB025170470CF1010221EA1D
:10182000035141F4801150EA410CCCD001F0004C3E
:10183000352A27DC30B481EA0C01B2F1200309DA41
:10184000C2F12003044601FA03F5D0402843D140F9
:101850009C400CE0C3F12002450020FA03F418BFBD
:1018600044F0010421FA03F091400C43002174F18B
:10187000004550F1000051EB0C01244230BC7FF4D4
:101880007BAF70476146002076E70000C1F30A5342
:1018900040F2FE329B1A14DDD3F120034FEAE172CD
:1018A00008DDC90241EA505141F00040D84080189B
:1018B0005040704703F2E13010B1D24382F0004053
:1018C0007047002070470000C11768B14840401AB7
:1018D000B0FA80F29040D21CC907C2F5846241EA96
:1018E000025202EBD02140057047000070B44FF067
:1018F000004591EA030F40F1C7816B40841A71EBF8
:10190000030603D2001BB141121973414FF4001CAE
:101910001CEB410F34BF7CEB430442E00C0DA4EB05
:101920001356352E4FDC45EAC323DB0A45EAC121B5
:10193000C912B6F120050DDD63FA05F6EB4086EA23
:101940000305124218BF45F00105C01851F100010E
:101950000CD213E062FA06F5F2405540F3415A40CA
:10196000B340F3405A408018594107D349085FEA11
:1019700030005FEA350528BF45F0010501F580110B
:10198000420875F1004250F1000041EB04514E0055
:1019900016F5001F70BC38BF70470020090D0905FF
:1019A00070471CEB410F10D252EA43060BD0BCEB40
:1019B000410F05D80C0DAB43661E342EB6DD02E098
:1019C000AB438018594170BC704770BC7047000031
:1019D000F0B540F2FF7581EA030C0CF0004C15EAFB
:1019E00011541DBF15EA1357AC42AF42E5E0BC41AC
:1019F000C1F31301C3F31303801A994143F4801315
:101A000004D2641E4000494180185941C90241EA8C
:101A10005051B1FBF3F603FB1611A2FB0675D7EB91
:101A2000C020A94102D2761E80185941C90241EA5C
:101A30005051B1FBF3FE03FB1E11A2FB0E75D7EB59
:101A4000C020A94103D2AEF1010E8018594189028C
:101A500041EA9051760546EA8E2EB1FBF3F603FB80
:101A60001611A2FB0675D7EB8020A94102D2761E83
:101A700080185941C90241EA50514EEA060EB1FBA5
:101A8000F3F603FB1611A2FB0675D7EBC020A941A4
:101A900002D2761E80185941C90241EA5051B1FB69
:101AA000F3F703FB1711A2FB0735D3EBC020A941C5
:101AB00067F100070CBF004247F0010766F3D52726
:101AC0004FEA1E31B80814F5806412DDBD0775F1C8
:101AD000004250EB0E5051EB045111F5801F5CBFDA
:101AE00041EA0C01F0BD4CF07F6141F0E041002083
:101AF000F0BDBD076D0840EA0E5041F48011D4F1ED
:101B00000104B4F120060ADAC4F120060200E04024
:101B100001FA06F3E1401843B24015430EE0342CBD
:101B200013DCC6F1200445EA40056D0820FA06F2F0
:101B3000154321FA06F0A1400D43002175F1004242
:101B400050F1000051EB0C01F0BD00205FEA0C01E8
:101B5000F0BDCFB992185B41B3FA83F704BFB2FA74
:101B600082F6BF190B3FB7F120062FBF02FA06F32A
:101B7000BB40C7F1200622FA06F638BF3343BA400D
:101B80001CB1E419641E33E77F4231F00041B1FA21
:101B900081F404BFB0FA80F6A4190B3CB4F120061E
:101BA0002FBF00FA06F1A140C4F1200620FA06F684
:101BB00038BF3143A0403C1B1AE7AC421ABF05EACC
:101BC0001357AF4212E050EA41061CBF52EA4306E7
:101BD000BFE750EA4107304661461CBF41EA055164
:101BE000F0BD52EA430C08BFC143F0BD00204FF4E2
:101BF000001616EB410F98BF16EB430F08BF16EB0C
:101C0000410F24BFC14305E016EB430F0CBF6146F3
:101C10004CEA0551F0BD0000400D491840EA812012
:101C20000CD2490DA1F58061491C40F0004005DB54
:101C3000D1F11F0154BFC840C01770470020704742
:101C4000014648B1B0FA80F18840C91CC1F58461F1
:101C5000090501EBD02140057047012000F0C8B80C
:101C6000B1F5807F02D34FF0FF3070470170012043
:101C7000704700007047000070B44FF0004591EAD3
:101C8000030F7FF53BAE6B40841A71EB030604D261
:101C90006E40001BB141121973414FF4001C1CEB44
:101CA000410F34BF7CEB430682E00C0DA4EB1356CE
:101CB000362E7BDC012E45EAC32341DC43EA525336
:101CC00012BFD20292025B08240545EAC12141EA13
:101CD0005051D2EBC020994125D407D1B0FA80F6FB
:101CE00010FA06F162D00020203608E0B1FA81F641
:101CF000B140C6F1200220FA02F21143B0404FEA8F
:101D0000F474B4EB465434F001064FEA74040AD874
:101D1000D6F50016760D04F00044F04061FA06F2A4
:101D20005040F1404840C00A40EA415021F0004193
:101D300028BF5FEA500550F1000044EBD12135E0A7
:101D4000DB0A45EAC121C90AB6F120050EDD42EAE7
:101D50000242120CC5F1200603FA06F6EB4042EAF5
:101D600006056D42984161F100010DE062FA06F549
:101D7000F240554063FA06FC82EA0C02F3405A40F6
:101D80006D42904161EB030111F4801F05D1641E87
:101D9000620502D06D004041494121F480114308A1
:101DA00075F1004350F1000041EB045170BC7047E5
:101DB0001CEB410F15D223F0004352EA43060BD02F
:101DC0004FEA4C0CBCEB410F04D80C0D661E342EB0
:101DD000B7DDEBE7801A994150EA410608BF0021C0
:101DE000E4E708BF1CEB430F28BF6FF00001DDE7FD
:101DF00080B5AFF30080024A11001820ABBEFBE7AC
:101E0000260002000448054A016841F4700101609F
:101E10004FF000601060704788ED00E008ED00E0D2
:101E2000000000000000000001020304060708098A
:101E30009A4238BF88547047704710B50146002059
:101E40000A2205E05C1C0C601B78303B02FB003072
:101E50000B681C78303C0A2CF4D310BD2DE9F84FE8
:101E60000B9C0C9F0D9D164615F0030F814688466E
:101E70009A46009608D1A34604E000F01CF8761CB0
:101E80000BF1010BBB45F8D38CB10A98641E534685
:101E9000005D32464146C847761CF5E700F00BF876
:101EA000761C301BB842F9D33046BDE8F28FA80744
:101EB000FAD5009CF5E75346324641462020484774
:101EC0002DE9F84384B08046DDF848C0DDF830E005
:101ED0000D980E9F109D119E5FEA8C745DD43EB1EB
:101EE0005FEACC7404D5002F0CBF1CF00C0F761EDB
:101EF0002C463025A0423EBF20280EF80050401C42
:101F0000F8D344E020283EBF30240EF80040401CA7
:101F100041D342E0102C0AD1441C5FEA8C651AD4EC
:101F200020280CD278250EF80050204607E0022C1D
:101F300005D1202803D262240EF80040401C20283E
:101F400003D230240EF80040401C202813D2441C39
:101F50002FB12D270CE02028F1D25825E3E75FEAC6
:101F60004C7748BF2B2703D45FEA0C7703D5202793
:101F70000EF8007020460190CDF80CC0CDF800E0BE
:101F800002964046FFF76AFF05B0BDE8F08325469C
:101F90005FEACC7401D5B042B4D35FEACC64D4D547
:101FA0000F9C5FEA4C59B5D40028B3D0A84218BFA3
:101FB000B042AFD1401EADD0102CABD1401EABE72C
:101FC0002DE9F8418FB00446884616991B980026E3
:101FD00009B920F01000189F450500D5C9B1B1FB23
:101FE000F7FC07FB1C11CDB2B6460A2D0EF1010617
:101FF000B8BF303105DB85064CBF41256125491945
:102000000A3907AD05F80E105FEA0C0101D0202E49
:10201000E5D31A9DDDF864C017990690059507A8C9
:1020200002910090CDF810C00397019641462046DA
:10203000FFF746FF10B0BDE8F0812DE9F34F8FB0F8
:102040000027DDE91A45229EBD4204BFBC4226F0AE
:102050001006DDE91E9A70059346984603D5BD42E9
:1020600008BFBC4223D0204629464A465346FFF7C4
:102070001DF93846471CD1B20A29B8BF303205DBFA
:10208000B1064CBF4121612152180A3A07A95346B3
:102090000A54204629464A46FFF708F904460D46E9
:1020A0000020854208BF844201D0202FDBD3DDF819
:1020B00084C0209D1C9C10990F980696CDF814C0E2
:1020C0000495CDF80C900294019707AC43465A460C
:1020D0000094FFF7F5FE11B0BDE8F08F2DE9F74F42
:1020E0002DED068B9A46B0EE408AF0EE608A8CB0F9
:1020F000002453EC182B51EC180B00F081FDDDF897
:102100007C90209D05D0032000F024F901908CA143
:1021100017E000F0A3FA07D204210FF6842000F0A4
:1021200019F9019100900DE000F093FA11D86807B9
:1021300059BF032083A104200FF66C2100F00AF997
:1021400001900091149A139912985346FFF786FE56
:10215000DAE00122DFF8DC391E9FFFF7E1FA05D94A
:102160000022DFF8D439FFF7C3FA0AD2149A139980
:1021700012980295CDF804900097534600F0EEF8BF
:10218000C2E00023FFF7B4FA934605D281F0004184
:102190004FF0010B41EC180B680504AE00F1B9805B
:1021A00006201E9051EC180BFFF770FB07461E9897
:1021B0000FF6FC1101EBC002384692ED009BFFF7D1
:1021C00083FB00F0C1F853EC192BFFF787F941ECC2
:1021D0001A0BFFF721FD8046FFF732FD02460B4642
:1021E00051EC1A0BFFF782FB41EC1A0B08F10100CE
:1021F0000090012251EC1A0BDFF84039FFF790FAFA
:102200000DD8DDF800804046FFF71AFD53EC192B7E
:10221000FFF786FA0FD84FF000087F1C0BE0002272
:10222000FFF766FA07D3B8F1000F02D05FEAC87073
:1022300001D5DDF800800A211E980091A0BB384628
:10224000FFF742FB00F080F80022DFF8F038FFF7DC
:102250004FFA03D20122FFF763FA02D8F80748BF0A
:102260007F1C202C0AD20A20009997FBF0F001FB7A
:10227000107730373755641C0700F2D105F00300A2
:10228000012854D1B9F1000F06D0BBF1000F0CBFEB
:1022900015F00C0FA9F1010930214C453EBF202C4F
:1022A0003155641CF9D342E01E9A4046202C0BD2D3
:1022B0000A21009BB0FBF1F103FB110030303055D7
:1022C000521E641C0800F1D1202CD7D21046421EA9
:1022D000611C00281EBF302030550C46F4D122E08E
:1022E000690748BF2B2102D4290702D52021315587
:1022F000044600F02FF8019404A80090149A139952
:1023000012985346FFF7AAFD0CB0BDEC068BBDE852
:10231000FE8F0A2F05D330203055641C7F1E202CE1
:10232000F7D31E973EE72E2030550C4699E7202C18
:10233000DFD2601CBBF1000FD2D02D21D7E7000007
:102340006E616E00666E690002460B4651EC180B1A
:10235000FFF7CCBA0395CDF8089070472DE9FB4FF5
:102360002DED048B824693462DED020B88B0DDE9FE
:102370000823DDE9080100F043FC1A9E1C9F05D1EB
:1023800000F067F902D900F069F907D21B9A109B97
:102390000F990192029700F067F94FE100220023A4
:1023A000FFF7A6F93DBF4FF0010881F00041CDE9EC
:1023B00008019046DDE908237805DFF88417DFF887
:1023C000845758BF06264FF0FF30194010400D4388
:1023D000CDE90405DDE908456C00640DA4F2FF3485
:1023E0002046FFF771FADFF86027DFF86037FFF764
:1023F00075F8DFF85C27DFF85C37FFF73DFCDDE9B7
:10240000042304460D460020DFF84C17FFF734FC88
:10241000DFF84827DFF84837FFF760F822462B46F9
:10242000FFF72AFCFFF732FA0546FFF74DFADFF80F
:102430003427DFF83437FFF751F80022DFF8FC3695
:10244000FFF71AFCFFF722FA04462846FFF73CFA8A
:10245000DFF81827DFF81837FFF740F8CDE900015B
:102460002046FFF731FADFF80C27DFF80C37FFF7CB
:1024700035F802460B46DDE90001FFF737FA41EC7B
:10248000180B53EC182BFFF729F841EC190B04F249
:10249000FF3001050020CDE9040153EC182B4FF06B
:1024A0008041FFF71BF8CDE9020153EC182B002007
:1024B0004FF08041FFF71AFACDE90001002251ECFC
:1024C000190BDFF8B836FFF783FA0022DFF8B036D1
:1024D000FFF7D2FB00F0B7F80022DFF8A836FFF7CD
:1024E000CBFB00F0B0F8DDE90023FFF7C5FB0246A7
:1024F0000B46DDE90201FFF76BFA0022DFF84436F4
:10250000FFF7BAFBDDE90423FEF7E8FFCDE904019C
:10251000DDE90423DDE90801FFF7EAF809D2DDE986
:1025200004010022DFF85836FFF752FACDE9040122
:102530006D1E05F16302C72A34BF04240524380543
:102540001CD5DDE90801DFF84026DFF84036FFF74B
:10255000E7F80FD80022DFF83836FFF7C9F809D2BC
:10256000B542BABF761B761E002647F4806700246A
:10257000002503E016B1780548BF761E1B988442FB
:1025800034BFA0EB04094FF00009B80702D50CB125
:102590004FF000093DB1DDE90801DDE90423FFF753
:1025A00017FACDE90801CDF818B0B8F1000F1DBF3A
:1025B000DDE9080181F0004141EC100B9DED080BB5
:1025C00027F400600290109B0F99CDF8049000F062
:1025D0004BF806468CB3B806109B0F994CBF4520AC
:1025E00065203246D047002D46BF01206D420020B5
:1025F000052105910A22002103910292019006F122
:102600000108641E109B0F990494009542465046A1
:10261000FFF7D6FC0646B8070FD50F9C109D1B9FF1
:10262000DDF8188005E02B46324621462020D047B1
:10263000761CA6EB0800B842F5D330460AB0BDECD4
:10264000048BBDE8FE8F02460B4651EC190BFFF7D9
:10265000BFB90022DFF83C35FFF762B84FF0FF3218
:102660006FF48013FFF744B800965A46504635E59C
:102670002DE9FF4F89B04FF0000BDDF85880D1B93C
:10268000DFF81415099116E000F027FA0BF1010BA1
:102690004846B84200F10109F6D30995CDF828A0C3
:1026A0000B9606E00B9B0A99099C5A46A0470BF132
:1026B000010B00F00EFA0C980078002800F0D7818A
:1026C0002528EFD100F005FA002503E045F01005BC
:1026D000491C0C9145F002000C990A78202A10D070
:1026E000232AF3D02B2A09D02D2A05D0302A08BF5F
:1026F00045F00105ECD0C8E10546E9E745F00405E1
:10270000E6E745F00805E3E72A2907D158F8047BF6
:10271000002F44BF05467F4200F0DBF900240C98EF
:1027200001782E2916D1411C0C9145F4806508785A
:10273000A0F130010A2904D20CA8FFF77EFB044661
:1027400008E02A2806D158F8040B0028C8BF044620
:1027500000F0BFF945F480700C990A78682A12D00D
:102760006A2A0CD06C2A04D0742A18BF7A2A16D090
:1027700018E0491C0C91054609786C2912D10C9877
:1027800045F4007509E0491C0C91084645F08005A8
:102790000178682906D145F04005411C01E0054655
:1027A000491C0C910C9802781046252845F0200110
:1027B0003FF478AF452812D046280DD047280ED0D8
:1027C000582818BF62281BD0632800F0D4806428E2
:1027D00016D0652803D0662800F0B380672800F083
:1027E000B880692818BF6F280AD0702800F02F81A0
:1027F000732800F0F880752818BF78287FF452AF4E
:10280000782A08BF102013D0582A02D110200D4674
:102810000EE06F2A08BF08200AD0622A08BF0220F3
:1028200006D00A20692A18BF642A25F0100501D0B5
:1028300025F00C05690544BF6D086D000026692A66
:1028400018BF642A824654D1A90527D508F107008C
:1028500020F0070000F10808D0E90023B34215DAA0
:102860004FF0010C524263EB43030895CDE904A6F7
:10287000CDE9002307970694CDF808C00B9B0A9971
:1028800009985A46FFF7D9FB834612E70120B34265
:10289000B446E7DBE9DC8242E4D3E6E7E90515D597
:1028A00058F8041B00290ED50122494205950290D3
:1028B000009101920B9B0A990998049703945A4638
:1028C000FFF77EFBE0E73246EFDDEFE7690603D571
:1028D00058F8041BC9B204E0290658F8041B48BF85
:1028E00009B2002902D501224942DFE73246FBDD69
:1028F000DCE7A90510D508F107010895CDE904A684
:1029000021F007000797069400F108080296D0E925
:102910000001CDE90001B1E7E90504D558F8041B31
:1029200000F0F0F8CBE7690603D558F8041BC9B2EC
:1029300004E0290658F8041B48BF89B200F0E2F809
:10294000BDE7462A08BF0D4600F0CCF8FFF7C6FBEE
:102950009AE745F40060672A08BF054606D0472A73
:102960000CBF0546452A01D145F0200500F0BAF814
:10297000FFF7F4FC88E70120A907009017D4099C11
:102980000A9EDDF82C90824606E04B465A463146B8
:102990002020A0470BF1010B5046B84200F1010A7C
:1029A000F3D309940A96CDF82C90CDF800A05A469E
:1029B00058F8040B0B9B0A99099CC0B2A047A807C2
:1029C0000BF1010B7FF575AE099DDDF828A00B9E7C
:1029D000009C2046441CB842BFF45FAE00F07DF876
:1029E0000BF1010BF5E758F8040B0090002C14BF15
:1029F00021464FF0FF310246107800281FBF0846DD
:102A0000411E0028521CF7D14BE00A9933465A4622
:102A10002020D0470BF1010B4846B84200F10109D4
:102A2000F3D300990878002849D0690503D52046DA
:102A3000441E002843D000980A99401C0090334659
:102A4000401E5A460078D0470BF1010BE9E758F8D1
:102A5000040B45F021050595082104910022102161
:102A60000291009001920B9B0A99099826E70B9816
:102A70000A99099C834534BF5A46421E03460020EA
:102A8000A04758460DB0BDE8F08F11460027A1F1D0
:102A900030020A2ABFF438AE0CA8FFF7CEF9074679
:102AA0003CE60098A2EB0009680502D5A14588BF65
:102AB000A146A807DDF824A00B9EADD5B1E7CDF85F
:102AC00024A0A8070B967FF5F4AD099DDDF828A09A
:102AD000DEE50C98411C0C91704733465A4651462E
:102AE0002020284708F10701029521F007000197EF
:102AF000009400F1080890ED000B0B9B0A990998CF
:102B00005A467047059504970394029001960091E8
:102B10000B9B0A990998704708B4C0B5134603AADD
:102B2000009200F003F806BC5DF808FB0A46014677
:102B30001A489DE565CDCD4165CDCDC10000E03F92
:102B4000FFFF0F000000F03FFB799F501344D33F7D
:102B5000B3C8608B288AC63F0000F8BF61436F632B
:102B6000A787D23F71A379094F930A401655B5BB89
:102B7000B16B0240EF39FAFE422EE63F00002C40D6
:102B800000002440000018402D431CEBE2361A3FA1
:102B900080842E410000F07F391E0008311E00089D
:102BA000666E692D00000000666E692B0000000053
:102BB000000000000000F03F000000000000244082
:102BC00000000000000059400000000000408F405D
:102BD000000000000088C34000000000006AF840C8
:102BE0000000000080842E4100000000D0126341EC
:102BF0000000000084D797410000000065CDCD4162
:102C000090420CD141EA030C50EA4C0C07D0994297
:102C100005D14FF4001C1CEB410F38BF89427047AF
:102C2000F8B50026044600960CB90120F2BD04F167
:102C300030052869C10648D4286998BB6E61E861EF
:102C4000A8612873204600F06FFE20688168C800E4
:102C500028D400F05FFB06462869C10622D4300064
:102C600020D12869DFF80023DFF8003320F48850F2
:102C700040F0020028612068816821F040518160A5
:102C80002068816841F0805181600A201168B1FBA1
:102C9000F3F34343009302E00099491E009100982A
:102CA0000028F9D120688168CA0002D580688100B7
:102CB0000BD500F0BCF8686940F001006861286934
:102CC00000F0B5F801263046F2BD2869C106F7D4F8
:102CD0003000F5D12768B8684107F1D42869DFF8DA
:102CE0009022DFF89032DFF8901220F4807040F0EC
:102CF00002002861B7F1A04FDFF880020ED08742B2
:102D000008BF4FF0A04009D09F42DFF8741208BFFF
:102D1000104603D097420CBF18460020D7F808C0D1
:102D20000CF0030CBCF1010F02D13F68FF070ED479
:102D300038B1876807F00307012F02D10068C70781
:102D400005D40F68606827F4403707430F60686850
:102D5000E1680128607E14BF4FF48057002747EADE
:102D600040370F43A1680F4394F82010012911D177
:102D700030B9606A401E400440F48030074309E0E7
:102D8000286920F0020040F020002861686940F0C6
:102D900001006861A16AD4F800C0012917D09C45E0
:102DA00018BF944510D1B1F5307F08BF4FF4E071E2
:102DB0000AD0B1F5807F08BF4FF4307104D0B1F56F
:102DC000E07F08BF4FF48071E06A01430F43DCF8F5
:102DD000080010F00C0F0CD1DCF80C10DFF88C049C
:102DE0000140CCF80C102978207E490041EA80315E
:102DF0000F432168DFF87804CA6802401743CF60A8
:102E0000206901282068016B05D1E2690909521E79
:102E100042EA011101E0090909010163002068612A
:102E2000286920F0020040F0010028614BE7286982
:102E300020F0020040F01000286170472DE9F84FA3
:102E4000054688462868816814464A0700F186804E
:102E500005F13C073978012908BF022000F0818084
:102E600001223A70B0F1A04F434EDFF81491DFF821
:102E70000CA116BF50453068D9F8000010F01F00B3
:102E800068D1284600F086FC0028834663D1796823
:102E9000DFF88804014041F4807179602968B1F15C
:102EA000A04F16BF51453068D9F8000010F01F0040
:102EB0001EBFB1F1A04F2F48814207D1786820F49E
:102EC00080107860C868810111D50EE0786840F400
:102ED00080107860514507BFDFF844140868DFF8B8
:102EE0004404006810F0007001D000F01DFA78680A
:102EF000C10404D5B86820F00600B86001E00021E4
:102F0000B960002038702346A96BDFF82C04886272
:102F10004246A96BDFF82404C862A96BDFF82004DD
:102F200008631C202C6820602868416841F010016B
:102F300041602868C16841F00101C160286800F162
:102F40004001A86B00F004FE2868816841F004018C
:102F5000816005E093460020387001E04FF0020BDD
:102F60005846BDE8F28F0000EC00002040420F0000
:102F700000050050000400500803005000010050FC
:102F8000080700502DE9F0470446DFF89853216800
:102F9000DFF88C830868DFF8AC93DFF8AC63DFF808
:102FA000AC73DFF8ACA3420702D54868420705D4EA
:102FB0000A68100755D54868020752D5206CC2062A
:102FC00003D4206C40F400702064B1F1A04F16BF10
:102FD00051453068386810F01F0017D0B1F1A04F8C
:102FE00016BF51453068386800F01F0005280DD025
:102FF000B1F1A04F16BF51453068386800F01F008E
:1030000009281CBFB1F1A04F494501D1C86804E0AF
:1030100051450CBF404628460068CA6812F4406F0C
:1030200019D1800417D40868020714D588684207AC
:103030000FD4486820F00C004860206C20F48070A9
:103040002064206CC10406D4206C40F00100206490
:1030500001E000F00FF9204600F0B4FC21680C20DC
:10306000086021680868820602D54868820606D48E
:103070000A68500601D54868420640F17F80206CFE
:1030800040F400502064B1F1A04F16BF51453068A4
:10309000386810F01F0017D0B1F1A04F16BF51458E
:1030A0003068386800F01F0005280DD0B1F1A04F3E
:1030B00016BF51453068386800F01F0009281CBF52
:1030C000B1F1A04F494501D1C86804E051450CBF9A
:1030D000404628460068CA6C12F0C00F07D0820133
:1030E00046D4CA6812F4406F42D1800440D40868C4
:1030F00042063DD5B1F1A04F16BF51453068386842
:1031000010F01F0017D0B1F1A04F16BF5145306825
:10311000386800F01F0006280DD0B1F1A04F16BF8F
:1031200051453068386800F01F0007281CBFB1F116
:10313000A04F494501D1C86803E0514508BF454645
:103140002868800214D4886802070FD4486820F0E9
:1031500060004860206C20F480502064206CC10521
:1031600006D4206C40F00100206401E000F082F8F9
:10317000204600F075FB2168602008602068016827
:103180000A060CD54068010609D5206C40F4803051
:103190002064204600F0CAFD216880200860206875
:1031A0000168CA050DD54068C1050AD5206C40F4F8
:1031B00000302064204600F0BAFD21684FF4807092
:1031C0000860206801688A050DD5406881050AD528
:1031D000206C40F480202064204600F0A9FD216886
:1031E0004FF40070086020680168CA0624D5416861
:1031F000CA0621D5616B012910D0B0F1A04F1CBFC8
:1032000050453E46326812F01F0F03D1C068C10717
:1032100004D40EE0316811F4404F0AD0206C40F421
:1032200080602064606C40F002006064204600F022
:1032300080FD216810200860206801684A0512D5C9
:1032400041684A050FD5216C41F4804121644FF457
:103250008062616C41F00801616402602046BDE853
:10326000F04700F067BDBDE8F0870000FDBFFFFF3D
:1032700007C0F0FF206C40F010002064606C40F04C
:10328000010060647047F8B5044604F13C050F4640
:103290002878012801D10220F2BD0121297000F017
:1032A00039F806002ED101206860012F206881685E
:1032B00021F08041816004D12068816841F0804123
:1032C00081602068816841F00041816000F034FD38
:1032D00007462068816800290ED500F02DFDC01B2F
:1032E0000B28F6D3686820F0020040F010006860F8
:1032F000002028700120F2BD686820F0020040F034
:1033000001006860002028703046F2BD0446206845
:1033100081687047204600F05FBA0000FEF1FFFFB1
:103320000C0000500C040050786820F4005040F469
:103330008050786070470000353700087937000802
:103340007F370008000400500803005008070050B1
:1033500000010050F8B50A46002100F13C0400913C
:103360002578012D01D10220F2BD012323700368CD
:103370009D686E0700F14281576815681F26052F6A
:103380004FF0060C0BD20CFB07F7D3F830C0BE4051
:103390002CEA060605FA07F737431F631DE00A2FDC
:1033A00008D27F1F17FB0CF7D3F834C000F038F9B0
:1033B0005D6312E00F2F08D20A3F17FB0CF7D3F81A
:1033C00038C000F02DF99D6307E00F3F17FB0CF7A5
:1033D000D3F83CC000F024F9DD6307250668B36824
:1033E00013F00C0F6DD1136897680A2B0DD30A3BAD
:1033F00003EB430CD6F818E005FA0CF32EEA0303AE
:1034000007FA0CF71F43B7610BE003EB430CD6F848
:1034100014E005FA0CF32EEA030307FA0CF71F4336
:10342000776103685769DE68D2F810E0F608760025
:1034300006F00606AEF1010E07FA06F6BEF1030F1E
:10344000DFF8FC731AD8DFE80EF002080E14D3F888
:1034500060C000F0F1F81E6633E0D3F864C000F0FD
:10346000EBF85E662DE0D3F868C000F0E5F89E66E4
:1034700027E0D3F86CC000F0DFF821E01E6E00F00A
:10348000D5F803D11E6E26F000461E6603685E6EF8
:1034900000F0CCF803D15E6E26F000465E6603684D
:1034A0009E6E00F0C3F803D19E6E26F000469E6625
:1034B0000368DE6E00F0BAF803D1DE6E26F0004637
:1034C000DE6603689E6806F00306012E02D11F68BF
:1034D000FE073CD41668012707FA06F6D768012FC5
:1034E00006D0D3F8B05025EA0606C3F8B0601AE05B
:1034F000D3F8B0703E43C3F8B060176893680668AD
:103500000A2F08D3093F07EB4707D6F818C000F089
:1035100081F8B56107E07F1C07EB4707D6F814C0B8
:1035200000F078F87561036839481268B3F1A04F6C
:1035300016BF8342DFF80C53DFF80C53102A02D178
:103540002E68370203E0112A03D12E68F7015AD4FE
:1035500004E0122A57D12E68770254D4B3F1A04F59
:103560000FD0834208BF4FF0A0400AD0DFF8DC0242
:10357000DFF8D860834208BF304602D0B34218BF9C
:1035800000209E6806F00306012E02D11F68FE0788
:1035900034D438B1866806F00306012E02D10068E3
:1035A000C6072BD4102A18D1B3F1A04F2BD128680D
:1035B000DFF89C3240F4000028600A221D68DFF822
:1035C0009402B5FBF0F050430090009800281EBF15
:1035D000009A521E0092F8D115E0112A07D1B3F1DA
:1035E000A04F10D1286840F0807028600BE0122AAC
:1035F00009D12A6842F480022A6004E0606840F041
:10360000200060600121002020700846F2BD00000B
:1036100000010050BD402CEA0505BB401D4370472A
:10362000BE402CEA0606BD4035437047176806F0D9
:10363000F846B6EB876F704707EA0C07D2F800C070
:1036400047EA8C673E4346F000467047000500504D
:10365000F8B50368804E0022B3F1A04F07D135467C
:1036600000F13004277B012F0FD10220F2BDB342BD
:1036700008BF4FF0A045F3D0744D704CAB420CBF67
:103680002546A342ECD00120F2BD012727739F6895
:103690007F0746D4AF687F0743D4B3F1A04F16BF6E
:1036A000B342684E684E0B686C4F0BB3336823F41B
:1036B000604C4B6843EA0C0C23784CEA433333608C
:1036C0000068836803F00303012B02D10068C3077D
:1036D0002CD4A86800F00300012802D12B68D80779
:1036E00024D430680740086807438868074316E019
:1036F000316821F4604131600068816801F00301A4
:10370000012902D10068C10710D4A86800F00300A5
:10371000012802D12968C80708D4306807403760FB
:1037200004E0206940F02000206101220020207385
:103730001046F2BD416A0A6C12F0500F19D1086CA4
:1037400040F4007008640A68D06810F4406F04BF49
:10375000487E00280AD10A6C22F480720A64086C40
:10376000C20403D4086C40F001000864084600F06D
:1037700029B9896B0A6B1047406A00F0ABB9406AFF
:10378000016C41F040010164416C41F0040141646D
:1037900000F0CFBA38B504462168886800F003000D
:1037A000012802D10A68D00714D488686FF39E10EC
:1037B00078B9886840F00100886000F0BDFA0546DD
:1037C00020680168CA0705D400F0B6FA401B032838
:1037D000F6D326E0002032BD38B5FFF797FD01F0A3
:1037E000030101291BD10268D10718D5816801F0B6
:1037F0000D01012912D1816841F00201816003208D
:103800002168086000F098FA054620688168C807BA
:1038100005D500F091FA401B0328F6D301E0002003
:1038200032BD00F001F832BD206C40F01000206481
:10383000606C40F00100606401207047000500509A
:1038400000F0FF83080300500807005000040050F8
:10385000EC00002040420F0000010050E0F0FFFFAC
:103860007047000030B589B006AA00230024002567
:1038700082E838006846182100F064FA002001212F
:103880008E4C6060A0604FF0A04501202061607602
:103890002560002084F82000E0620120A062002062
:1038A000E0600320E06104F13000017004216161F7
:1038B0000021217641602046FFF7B2F908B100F0FF
:1038C000FEFA0020069006A92046FFF7C1FE08B1C7
:1038D00000F0F5FA012000900190039006210020ED
:1038E00002910490059069462046FFF733FD08B128
:1038F00000F0E5FA032000900221002001910390DE
:1039000069462046FFF726FD08B100F0D8FA0420EA
:1039100003210090019120466946FFF71BFD08B185
:1039200000F0CDFA09B030BD38B586B0044601A824
:10393000142100F007FA2168B1F1A04F40D160488E
:10394000604D026842F0805202600322016801F07B
:10395000805100910099016841F4003101600F210C
:10396000006800F40030009000980191002003905E
:10397000029201A94FF0904000F0C6FA5248286028
:1039800000206860A8608020E8604FF480702861A3
:103990004FF4806068612020A8614FF40050E86116
:1039A000284600F0ADF808B100F089FAA5636C6212
:1039B00000220121122000F0B1FB122000F0CBFB0D
:1039C00007B030BD30B5414CA1688DB008880028E3
:1039D0006AD0B1F90010E088A1F500652DB2401B56
:1039E00000B2014600EE101AB8EEC00ADFED2F0A51
:1039F00080EE200AD4ED030A30EE200ADFED2C0A17
:103A0000B4EE600AF1EE10FAA8BF9FED2A0A08DAB8
:103A1000DFED290AB4EE600AF1EE10FA48BFB0EE0D
:103A2000600AB4F9021084ED030A10FB01F000EE05
:103A3000100AB4F9040094ED031A00EE900AB8EEEF
:103A4000C00AF8EEE00A00EE810ABDEEC00A10EEF0
:103A5000100A01B27929A8BF782002DA002948BFEC
:103A600000202080B4F9000000F091FC2069184A81
:103A7000174990FBF2F201FB120090B9E068029541
:103A800000F0C6FCCDE90001B4F900300FF24802A5
:103A9000282103A800F0E0FC03A800F0FFFC0120AF
:103AA00020612069401C20610DB030BD00606A4774
:103AB000CECCCC3DCDCCCC3DCDCCCCBDE402002099
:103AC00014100240340300200800024000000020CF
:103AD000801A0600704700007068693A2025642C3F
:103AE000206572725F696E742025352E34662C2035
:103AF000566F75743A202564200D0A0A00000000F4
:103B000010B5040001D1012010BD022084F821006D
:103B100021680A6860686FF30D120243A0680243CF
:103B2000E06802432069024360690243A0690243DE
:103B3000E06902430A60204600F0D7F80020A06345
:103B4000012084F821000020FFE784F8200010BD48
:103B5000F8B50446002594F82000012801D1022080
:103B6000F2BD94F821000126012884F8206024D1B8
:103B7000022684F8216004F12C06F56020680768AD
:103B80007F087F000760204600F09EF821683068BB
:103B900020B10A6842F00E020A6008E0086840F0AE
:103BA0000A0008602068016821F0040101602068B3
:103BB000026842F00102026002E084F8205002250F
:103BC0002846F2BD38B590F821100024022900F1F2
:103BD000340203D004205060012411E000F012F8F8
:103BE0000D686D086D000D60D1688B4091684B6069
:103BF000012380F8213080F82040116801B1884706
:103C0000204632BD01680B6823F00E030B600123D0
:103C100001687047F8B500F12802042351690C6867
:103C200001680D68966903FA06F73C4211D06F07E8
:103C30000FD50C68A50603D40D6825F004050D60AA
:103C400091698B4051694B605168D9B3BDE8F4402C
:103C50000847022303FA06F73C4217D0AF0715D5F1
:103C60000C68A50606D40D6825F00A050D60012133
:103C700080F8211091698B4051694B60002380F8D6
:103C800020301168F1B1BDE8F4400847082303FA79
:103C900006F6344216D02B0714D50B6823F00E031A
:103CA0000B60012491698C4051694C600123002113
:103CB000136180F8201080F82130916811B1BDE8BF
:103CC000F4400847F1BD000038B5046C0125A5405B
:103CD000C46B6560046863604068102802D1A2600C
:103CE000E16031BDA160E26031BD02680A498A42EB
:103CF00007D20A498A181423B2FBF3F18900084A53
:103D000006E008498A181423B2FBF3F18900064A39
:103D10000164C2637047000008040240F8FFFDBF61
:103D200000000240F8FBFDBF0004024070477047EE
:103D3000704770477047000001484068704700BFF7
:103D400014000020002200F0D7BC000037490868AA
:103D5000C00F1CD10868C0F3807008B1022016E0C3
:103D60000868C0F3407008B1032010E00868C0F391
:103D7000007008B104200AE00868C0F3C06008B110
:103D8000052004E00868C0F3806000B10620284ADE
:103D900001211160704710B58CB000F0C7FCFFF72F
:103DA000D5FF044600F04EF800F0D2FC00F056FDBE
:103DB000FFF758FD00F0FAF900F0DDFB00F0E6FB3C
:103DC00000F063FA23460FF2F8022D216846FEF751
:103DD000A3FE684600F062FB00F0E0FA482000F025
:103DE000D6FA144C00224FF40051204600F05CF942
:103DF00000224FF48041204600F056F90E4C00217D
:103E00002046FFF740FA01212046FFF73CFA032243
:103E10000A492046FFF712F818B10FF2D00000F05F
:103E20003DFB074800F04FFDFEE700002410024074
:103E3000E004424200100048E4020020F8030020A1
:103E4000B803002080B59EB005A82821FFF77AFFAF
:103E500068461421FFF776FF0FA83C21FFF772FF99
:103E60000120059000214FF4803006900D900791BD
:103E70004FF4E010012202210E9009920C9105A846
:103E800001F02AF90F2002210090019100204FF447
:103E900080610290039104900221684601F09EFA2D
:103EA00041F283000F9000214FF4807018901B9016
:103EB000119112910FA801F06FFB1FB000BD704768
:103EC00053797374656D2053746172742075702119
:103ED0002C204C61737420526573657420466C61AC
:103EE000672069732025640D0A0A00004661696C29
:103EF000656420746F20496E697469616C697A65C4
:103F0000204144430D0A00002DE9F84F4FF0000E08
:103F10006D4A6E4BDFF8B8814FF00F0982460F46AD
:103F200033E06C4DAA4514BF052504258D4025437B
:103F300043F82C50C143146801EA040C7C68E50383
:103F400048BF40EA0C0CC2F800C0546801EA040CF7
:103F50007C68A50348BF40EA0C0CC2F804C0946812
:103F600001EA040C7C68E50248BF40EA0C0CC2F888
:103F700008C0D46801EA040C79688C0248BF40EAA2
:103F80000C0CC2F80CC00EF1010E396831FA0EF0BB
:103F900000F08880012000FA0EFC1CEA0100F2D03B
:103FA0007C68022C18BF122C4FEA8E0110D14FEA08
:103FB000DE040AEB840401F01C05266A09FA05FBFD
:103FC00026EA0B06D7F810B00BFA05F53543256243
:103FD0004FEA4E040325DAF8006097F804B0A540D4
:103FE000ED430BF0030B2E400BFA04FB4BEA0606E5
:103FF000CAF800607E68012E18BF022E03D0112E71
:1040000018BF122E17D1DAF80860D7F80CB02E407E
:104010000BFA04FB4BEA0606CAF80860DAF80460FB
:1040200026EA0C0C7E68C6F3001606FA0EF646EA7F
:104030000C06CAF80460DAF80C603540BE6806FA6F
:1040400004F42C43CAF80C407C68E4009BD5D8F8F3
:10405000004044F00104C8F800404FEA9E0CD8F834
:10406000005005F00105009501F00C01009C53F88B
:104070002C5009FA01F425EA0404BAF1904F08BF64
:1040800000250ED0144DAA4508BF012509D0134DB7
:10409000AA4508BF022504D0114DAA457FF441AFBF
:1040A000032543E7BDE8F18F81B0002A14BF816189
:1040B000816201B0704781B042690A4218BF0904A9
:1040C000816101B070470000000401400800014018
:1040D0001810024000100048000400480008004882
:1040E000000C00480901020081B002D42948815423
:1040F00005E0294802F00F02104400F8041C01B04A
:104100007047264A13684FF6FF0100020B4000F487
:10411000E0601843224908431060704738B51F4BD0
:104120001C68C4F30223C3F10704052C28BF042430
:104130001D1D072D34BF0023DB1E012505FA04F4E5
:10414000641E2140994005FA03F35B1E1A40114397
:10415000BDE83440C6E7010007D4012200F01F018A
:10416000104B8A40400943F82020704710B5401E8C
:10417000B0F1807F01D3012010BD0B4C60600F2196
:104180004FF0FF30FFF7AEFF0022A2600720206053
:10419000002010BD00E400E018ED00E00CED00E0B0
:1041A0000000FA0500E100E010E000E0F0B599B091
:1041B00015A81021FFF7C6FD00F097F80EA81C21E6
:1041C000FFF7C0FD03A82C21FFF7BCFD884C8948F0
:1041D000206065602020A06025614FF41670E060CB
:1041E00065618020A061204600F060FB08B1FFF708
:1041F00066FE4FF48050159015A9204600F030FD62
:1042000008B1FFF75CFE204600F082FB08B1FFF723
:1042100056FE0095019500F063F808B1FFF74FFED8
:1042200075480E904FF496710F9110951195129557
:104230001395149500220EA9204600F070FC08B1D9
:10424000FFF73DFE04220EA9204600F068FC08B1ED
:10425000FFF735FE4FF400514FF0007008910B90BE
:104260000395049505950695079509950A950C956E
:104270000D9503A9204601F0CCFA08B1FFF71FFE07
:10428000204600F060F819B0F0BDF0B587B003A883
:104290001021FFF757FD00F028F8584C58482060CF
:1042A000A56040F25720606025613B20E060A56179
:1042B000204600F0FBFA08B1FFF701FE4FF48050F2
:1042C000039003A9204600F0CBFC08B1FFF7F7FDEF
:1042D000009500F005F808B1FFF7F1FD07B0F0BD5B
:1042E00002956946204601F05ABA6C460025002620
:1042F000002784E8E000704780B500683D4A4149E6
:10430000904209D1086840F400600860096801F42F
:1043100000610091009801BD394A904212D148686D
:1043200040F0020048600022486800F0020000905F
:10433000002100981D20FFF7F1FEBDE802401D207E
:10434000FFF709BF01BD10B586B0044601A81421CE
:10435000FFF7F8FC2168274A914216D12A480268E3
:1043600042F4001202604FF47061006800F4001023
:104370000090022200980191002003900490029284
:10438000059201A92148FFF7BFFD06B010BD1849ED
:1043900009684863C0F516708863704710B5144CFF
:1043A0000021204600F0C1FA08B1FFF788FD002186
:1043B000204601F0D8F908B1FFF781FD042120461D
:1043C00000F0B3FA08B1FFF77AFD0421204601F0AE
:1043D000CAF908B1FFF773FD0821204600F0A5FADD
:1043E00018B1BDE81040FFF76ABD10BD0000000025
:1043F00078030020002C014060000100B803002079
:104400000004004018100240141002400010004840
:10441000C0F3C75181B1FF2906D0C110400721F078
:10442000E04101F16051704741020CBF40F4E001EE
:104430006FF000410020704700F0004100020AD0F8
:10444000B0FA80FC00FA0CF001F16051A1EB0C51C4
:1044500001EBD0214005704708B410B585B007AB1B
:1044600000240493039400290EBF01940190491E77
:104470000291009404AB01A9074878441A30FBF775
:1044800083FE019901B10C70002858BF039805B054
:1044900010BC5DF808FB00BF5BCCFFFF70B50646A3
:1044A0008B4D8C4C284601F049FBC0B2212818BF27
:1044B000232812D104F10800FCF756FE0246C2F18F
:1044C0006402314604F1080001F062FD258830469F
:1044D000FCF74AFE4519258070BD6422314604F17F
:1044E000080001F069FD0020208004F10800FCF7BD
:1044F0003BFE04F1080182B211446160284604F1D8
:104500000801BDE8704001F01DBA38B50446704896
:1045100084422FD16F4D288848B368682A8805F1F6
:104520006C011044814205F108000ED2FCF71CFE1C
:1045300005F108010144696000202880C1F164028E
:1045400005F10800821892B20CE0FCF70DFE2988F4
:1045500028444942084400F108026A6000202A8881
:10456000288069682046BDE8384001F0EBB905F1C4
:104570000800686031BD80B55748584901604FF464
:10458000164100F00EF800B119E001BD80B55048A9
:10459000534901604FF4165100F003F800B10EE0EA
:1045A00001BD416000218160C16001610C21416158
:1045B00000218161C1610162416201F083B9BDE8FE
:1045C0000140FFF77CBC70B586B0044668461421F4
:1045D000FFF7B8FB2168414A4248914217D1416830
:1045E00041F4804141600222416801F4804105911B
:1045F0000599016841F480210160C021006800F440
:10460000802000F058F83848FFF77EFC51E0344A2B
:1046100091424ED18168354D354E41F40031816073
:104620000222816801F4003105910599016841F485
:10463000801101606021006800F4801000F03BF8F8
:104640002C48FFF761FC00206860A8602E60802085
:10465000E8600020286168612020A8610020E861EE
:104660002846FFF74DFA08B1FFF729FC06F11400C0
:10467000E56668646C621020A8640020E86480200D
:10468000286500206865A865E865286605F144008E
:10469000FFF736FA08B1FFF712FC05F14400A066F7
:1046A000AC66002200212620FFF738FD2620FFF708
:1046B00052FD06B070BD0590059800910020029053
:1046C000032107200391049001926946704700007E
:1046D000F801002078020020780100200038014015
:1046E000004400401410024000040048F000002084
:1046F0006C000240000C004800B500BF1300964655
:104700009446103928BFA0E80C50FAD85FEA417CE3
:1047100028BF0CC048BF40F8042BC90728BF20F8A9
:10472000022B48BF00F8012B00BD000080B50748F0
:10473000016841F0100101600320FFF7E2FC002056
:1047400001F072FC01F090FC002002BD002002404C
:1047500070B586B068461421FFF7F4FA3748384E32
:104760000468384D44F4800404600168364C01F458
:10477000800105910599016841F4003101600268EA
:1047800002F4003205920599016841F400110160BC
:10479000026802F4001205920599016841F40021B3
:1047A0000160026802F4002205920599016841F453
:1047B00080110160026802F48012059200220599BE
:1047C000016841F4802101604FF4C041006800F4A9
:1047D0008020059005983046FFF766FC00224FF4D4
:1047E00060712046FFF760FC002201212846FFF798
:1047F0005BFC4FF4C04000F029F83046FFF784FB23
:104800004FF4607000F022F82046FFF77DFB4FF474
:10481000807000210090019102914FF09040694614
:10482000FFF772FB01200090019069460020029082
:1048300003902846FFF768FB06B070BD14100240D5
:1048400000100048000C00480008004800900121BA
:1048500000200191029003906946704780B512488C
:10486000016841F0010101600022006800F00100D0
:104870000090012100980B20FFF750FC0B20FFF760
:104880006AFC002200211020FFF748FC1020FFF7EF
:1048900062FC002200211120FFF740FCBDE802402D
:1048A0001120FFF758BC00BF1410024038B50400B7
:1048B00001D1012032BD00F071F818B900F06AF89A
:1048C000FFF71AFD13E00168C86840F00100C860F6
:1048D0008A68DFF8D0000240062A18BFB2F5803F90
:1048E00003D0086840F001000860002070470220F3
:1048F0006870211D206800F00FFA01206870002008
:1049000032BD03D0086840F001000860002016BDE9
:1049100038B5040001D1012032BD00F03FF818B9CC
:1049200000F038F801F0B8FBE1E71CB500F02DF815
:1049300000F020F81CBFDFF87000814209D000F0C1
:1049400010F81FBFDFF864008142DFF86400814285
:1049500001D100F00AF800F012F818BFB2F5803F5C
:10496000CFE7DFF8500081427047486C40F40040C8
:10497000486470472168DFF84020914270478A6898
:10498000DFF820000240062A704704460122206812
:1049900000F093BB002129702046704704F13C05CC
:1049A000687870470700010000340140004401406E
:1049B0000048014000400140002C014010B5044671
:1049C000206801698A0715D5C1688A0712D56FF07A
:1049D0000202026101212177806910F0030F204655
:1049E00002D001F05AFB03E001F058FB00F094F80C
:1049F00000202077206801694A0715D5C1684A0759
:104A000012D56FF00402026102212177806910F44F
:104A1000407F204602D001F040FB03E001F03EFB66
:104A200000F07AF800202077206801690A0715D580
:104A3000C1680A0712D56FF00802026104212177CC
:104A4000C06910F0030F204602D001F026FB03E0FE
:104A500001F024FB00F060F8002020772068016955
:104A6000CA0615D5C168CA0612D56FF010020261D8
:104A700008212177C06910F4407F204602D001F060
:104A80000CFB03E001F00AFB00F046F80020207761
:104A900020680169CA0708D5C168CA0705D56FF043
:104AA00001020261204601F0FAFA206801690A0653
:104AB00008D5C1680A0605D56FF08002026120465C
:104AC00001F0EEFA20680169CA0508D5C1680A0636
:104AD00005D56FF480720261204601F0E2FA206889
:104AE00001694A0608D5C1684A0605D56FF040023B
:104AF0000261204601F0D6FA206801698A060AD5CB
:104B0000C1688A0607D56FF0200202612046BDE821
:104B1000104001F0C8BA10BD204601F0C5BA70B50A
:104B200000F092F801D1022070BD00F094F852B16B
:104B3000042A1BD0082A2CD00C2A3DD0102A4ED093
:104B4000142A60D073E03068294600F035F93068E7
:104B5000816941F0080100F073F821F004018161DE
:104B600031688A69286902438A6160E030682946B1
:104B700000F064F93068816941F4006100F060F888
:104B800021F4806100F05CF82A6941EA0221816128
:104B90004DE03068294600F08AF93068C16941F07B
:104BA000080100F049F821F00401C1613168CA69C7
:104BB00028690243CA613AE03068294600F0AFF93B
:104BC0003068C16941F4006100F036F821F4806179
:104BD00000F032F82A6941EA0221C16127E0306819
:104BE000294600F0C6F93068416D41F00801416581
:104BF0003068416D21F00401416531684A6D2869D2
:104C000002434A6513E03068294600F0DCF9306859
:104C1000416D41F4006141653068416D21F480616E
:104C200041653068416D2A6941EA022141650120F0
:104C300060700020207070BDC1613068C16970472C
:104C40008161306881697047064606F13C040D4673
:104C50002078012870470121217002206070704780
:104C600038B500F04EF801D1022032BD0122227089
:104C7000022060702A68DFF8AC03936803409360F9
:104C80000868020018BF10282DD0202818BF30282F
:104C900029D0402823D0502816D0602818D070285A
:104CA00003D0B0F5005F07D021E000F025F82868B8
:104CB000816841F0770105E000F01EF828688168FE
:104CC00041F48041816012E000F012F850210BE0C5
:104CD000CA684968286800F0CCF9602104E000F057
:104CE00007F8402100E00146286800F0D4F90EE002
:104CF000CA6849682868ADE1CB684A68896828684D
:104D0000D1E1054605F13C042078012870470120D7
:104D100060700020207032BD2DE9F041DFF808738B
:104D2000D0F800C0DFF80433DFF80443DFF80453A1
:104D3000DFF80463DFF804E3DFF80483B84218BF48
:104D4000B0F1804F04D040451CBF7045B0420DD13A
:104D50004A68B8422CF0700C18BFB0F1804F42EA9C
:104D60000C0C0BD0404518BF704507D0B04218BF9F
:104D7000A84203D0A04218BF984204D1CA682CF4BC
:104D8000407C42EA0C0C4A692CF0800C42EA0C028E
:104D90000260B8428A68C26218BFB0420A68826282
:104DA00004D0A8421CBFA042984201D10969016306
:104DB00001214161BDE8F0812DE9F041026ADFF88F
:104DC0006882DFF874E2DFF86462DFF86472DFF8AB
:104DD00064C2520852000262056A43688469DFF8BF
:104DE000642214400A6814438A6825F002051543BA
:104DF000404518BF704504D060451CBFB842B04262
:104E00000DD1CA6825F008051543404518BF704507
:104E100025F0040505D0604518BFB84201D0B04266
:104E200005D14A6923F4407313438A6913434360ED
:104E30008461496841630562BDE8F081F0B500F026
:104E400095F822F010020262056A436884697E4A7E
:104E500014400A6844EA02248A6825F0200545EADD
:104E60000215754AB04218BF904208D1CF6825F0AC
:104E7000800545EA0715B04225F040050AD090426A
:104E80001CBF6C4A904205D0694A90421CBF674AD9
:104E9000904206D14E698A6923F44063164343EA7F
:104EA000860343608461496881630562F0BDF0B5A3
:104EB00000F05CF822F480720262056A4368C469FB
:104EC000604A14400A6814438A6825F4007545EA6C
:104ED0000225594AB04218BF904208D1CF6825F444
:104EE000006545EA0725B04225F480650AD0904266
:104EF0001CBF504A904205D04D4A90421CBF4B4ABD
:104F0000904206D14E698A6923F44053164343EA1E
:104F100006134360C4614968C1630562F0BD70B5A2
:104F200000F024F822F480520262036A4468C569E2
:104F3000454A00F06FF823F400531CBF3E4EB042C8
:104F400043EA023307D03B4A90421FBF384A90429F
:104F5000364A904204D14A6924F4804444EA8214D7
:104F60004460C56149680164036270BD026A2E4EE7
:104F7000704770B5FFF7FAFF22F480320262036ACD
:104F80004468456D314A15400A6815438A68B04245
:104F900023F400331CBF284EB04243EA024307D03B
:104FA000244A90421FBF224A9042204A904204D194
:104FB0004A6924F4803444EA02244460456549681F
:104FC0008165036270BD70B5FFF7D0FF22F48012D7
:104FD0000262036A4468456D1D4A00F01BF823F421
:104FE00000131CBF144EB04243EA025307D0114ACB
:104FF00090421FBF0E4A90420C4A904204D14A6927
:1050000024F4802444EA8224446045654968C165EB
:10501000036270BD15400A6845EA02258A68B042FD
:10502000704700008800FEFF002C0140004801404E
:1050300000440140004001400034014000080040AD
:10504000000400408CFFFEFFFF8CFFFE8FFFFEFF81
:10505000FF8FFFFE10B5036A046A640864000462EF
:1050600023F00A03846924F0F00444EA0214846102
:105070002EE010B5036A23F0100303628369046A0B
:1050800023F4704343EA023324F0A004836144EA2A
:105090000114046210BD826822F07002114341F0D5
:1050A00007018160704710B5846824F47F44214370
:1050B000114341EA0321816010BD10B501F01F01C9
:1050C000036A01248C40A343036202FA01F1036ADC
:1050D0001943016210BD00002DE9F843040019D006
:1050E0002078DFF86454C10716D5686800F00C001A
:1050F00004280AD0686800F00C00082802BF68681D
:1051000000F48030B0F5803F3FD100F0E0F918B1F5
:105110006068002800F0F9802178DFF8386488079B
:1051200019D5686810F00C0F07D0686800F00C0003
:10513000082865D16868C10362D400F0CCF91CBFAF
:105140002069012840F0E1802968606921F0F801B8
:1051500041EAC00129602178080740F1D880A069A0
:10516000DFF8F413002869D001220A60FEF7E4FD9D
:105170000746686A00F0B0F940F0C980FEF7DCFD30
:10518000C01B0228F5D903201DE16068B0F5803FFF
:1051900009D008B929680AE0B0F5A02F296806D11E
:1051A00041F480212960286840F4803005E021F432
:1051B00080312960286820F480202860E96AA0688E
:1051C000090940EA0111E962606860B1FEF7B4FDC7
:1051D000064600F07CF900289ED1FEF7ADFD801B4D
:1051E0006528F6D3CFE7FEF7A7FD064600F06FF976
:1051F000002891D0FEF7A0FD801B6528F6D3C2E7FA
:10520000206970B101213160FEF796FD074600F07C
:1052100062F940F0A780FEF78FFDC01B0228F6D987
:10522000B1E73060FEF788FD074600F054F992D0F0
:10523000FEF782FDC01B0228F7D9A4E70860FEF73D
:105240007BFD0746686A00F047F960D0FEF774FD01
:10525000C01B0228F6D996E708B9286A09E0052894
:10526000286A06D140F004002862286A40F0010054
:1052700005E0400840002862286A20F00400286207
:1052800041F28938E06868B1FEF756FD8146286A28
:1052900000F022F973D1FEF74FFDA0EB0900404565
:1052A000F5D370E7FEF748FD8146286A00F014F94F
:1052B00065D0FEF741FDA0EB09004045F5D362E75C
:1052C000FEF73AFDC01B02286AD95CE7FEF734FD01
:1052D000001B022873D956E700F07CF8044600F062
:1052E00074F86FD0FEF728FD001B0228F7D94AE7B3
:1052F00001280AD06868226A00F48031914202BF16
:1053000000F47010616A88425CD001205BE0207874
:10531000410739D5E8690027C10009D4E86940F0A0
:105320008050E8610127E86900F080500090009803
:10533000DFF82882D8F80010C8051BD4D8F8000080
:1053400040F48070C8F80000FEF7F6FC8146D8F8FB
:105350000010C8050ED4FEF7EFFCA0EB090065288D
:10536000F5D310E72868616920F0F80040EAC10031
:105370002860F0E6E06801287FF46EAF75E71FB1A2
:10538000E86920F08050E861E069D8B1696801F00F
:105390000C010829ACD002289ED100F01BF807466A
:1053A00000F013F88CD16968606A21F4741101432C
:1053B000206A01436960012000F00DF8044600F006
:1053C00004F883D00020BDE8F2832868C0F3406071
:1053D0000028704700203066FEF7AEBC2DE9F84388
:1053E0000400884667D05E4E306800F007004045F4
:1053F00002D200F062F85ED12178534D880705D5BE
:105400006968A06821F0F001014369602078C10754
:1054100049D56168012902D100F059F804E0022958
:10542000286803D1C0F3406018B944E000F054F894
:1054300041D06868800841EA8001696041F2893999
:10544000FEF77AFC07466868616800F00C00B0EB74
:10545000810F28D0FEF770FCC01B4845F3D3032012
:105460001FE02078410705D56968E06821F4E06114
:10547000014369602078010706D56868216920F436
:10548000605040EAC100686000F02EF86A68354953
:10549000C2F30312895C2D4AC840106000F020F866
:1054A0000020BDE8F283306800F007008045D8D2C4
:1054B00000F003F8D5D00120F3E73168C90848EAC5
:1054C000C1013160306800F007004045704728682E
:1054D000C0F3404070472868C0F340000028704780
:1054E0002148006800F0A0BD20490A6802F00C00C5
:1054F000082814D10FF28003C2F38340D203185C52
:10550000896A09D50FF28003114A01F00F01595C35
:10551000B2FBF1F1484370471549484370470C48C6
:1055200070470A48114A006813681249C3F30222FF
:1055300006E006480D4A006813680E49C3F3C2220C
:10554000895CC8407047000000100240EC00002059
:1055500000127A0000004242800442420070004083
:1055600000200240201E00081C0000200410024001
:1055700000093D00846300080203040506070809CA
:105580000A0B0C0D0E0F101001020304050607088C
:10559000090A0B0C0D0E0F102DE9FC410546DFF832
:1055A000A4612868C10354D5B0690024C10009D49E
:1055B000B06940F08050B0610124B06900F08050C3
:1055C00000900098DFF880713968C80517D43868F2
:1055D00040F480703860FEF7AFFB80463968C8053C
:1055E0000DD4FEF7A9FBA0EB08006528F6D3032035
:1055F000A5E0FEF7A1FBC01B40451AD3F7E7F06911
:1056000010F440701EBF696801F44071884215D0E3
:10561000DFF83811F06901220A6020F4407000229E
:105620000A60F061C00709D5FEF786FB074641F224
:105630008938F069C0F340000028DAD0F169686861
:1056400021F440710143F1611CB1B06920F0805038
:10565000B0612978C80705D5F16AA868890840EAC9
:105660008101F1622878810705D5F16AE86821F4A3
:1056700040310143F1622878410705D5F16A286974
:1056800021F440210143F1622878810605D5F16AB1
:10569000E86921F010010143F1622868810305D512
:1056A0003168A86B21F480010143316028784106FC
:1056B00005D5F16A286A21F020010143F1622878BA
:1056C000010705D5F16A686921F440110143F162CF
:1056D0002878C10605D5F16AA86921F44001014383
:1056E000F1622868810505D53168E86A21F4000176
:1056F000014331602878010605D5B16A686A21F452
:10570000F8710143B1622868C10505D5B16AA86A7C
:1057100021F478510143B1622868C10405D5F16ACA
:10572000286B21F480710143F1622868810405D55A
:10573000F16A686B21F400710143F1620020BDE859
:10574000F681000004100240007000404004424214
:1057500003D0086840F001000860002010BD044636
:1057600000222068A0E010B504460422FFF7F9FFEC
:1057700000F004F818BFB2F5803FE9E72168486CF3
:1057800040F4004048648A68DFF804010240062AB9
:105790007047CA60002180F83C10002010BDF8B5A9
:1057A00000F13C031A78012A01D10220F2BD012444
:1057B0001C7002225A700568DFF8D8C06E68364F38
:1057C000AC68654518BFBD4203D14A6826F470062F
:1057D00016430A6826F0700616436E60026862453A
:1057E00018BFB2F1804F0AD02C4882421CBF2C480F
:1057F000824204D0BA421CBF2A48824204D188683F
:1058000024F0800404439460012058700020187034
:10581000F2BD10B590F83C20012A01D1022010BD44
:10582000012380F83C30CC688B684A6824F44074CB
:105830001C4324F4806414430B680A6924F4006454
:105840001C4324F4805414434B698A6A24F40054A2
:105850001C4324F4804414438B690E4A24F47024BE
:1058600044EA0344036893421CBF0B4A93420CD1A1
:105870004A6A24F4700444EA0254CA69096A24F0AA
:105880008074144324F000740C435C6482E70000CD
:1058900007000100002C01400034014000040040DA
:1058A000000800400040014010B501F01F01036AEC
:1058B00004248C40A343036202FA01F1036A1943F2
:1058C000016210BD38B5040009D004F170056868A4
:1058D00008B900F028F800F00DF8012801D10120E6
:1058E00032BD606A08B100F023F800F014F821F02E
:1058F0002A0109E0242068602068016849084900FD
:105900000160204600F020B9816000F014F8BDE885
:10591000324000F072BA2068416821F49041416041
:10592000206881687047002129702046FEF74BBE31
:10593000204600F0FFB92068016841F001010160D4
:105940002046704770B5044604F170051346686838
:1059500020283CD169B318002BD02878012836D0F4
:1059600001222A7004F15006E16433807380002024
:10597000E86021206860B069E8B10FF27951816276
:105980000FF2A150B169C862B1690FF2A15008636A
:105990000020B16948632068E16C00F12802B06919
:1059A000FEF7D6F838B11020E860002028702020DB
:1059B0006860012070BD21684020086200202870C6
:1059C0002068816841F080018160002070BD022064
:1059D00070BD38B5044640F60F002568E9692A68AD
:1059E000AB6808400AD188067AD5900678D5216E32
:1059F000002974D02046BDE834400847D80702D4B7
:105A000012F4907F6CD0C80707D5D00505D50120CA
:105A10002862E06F40F00100E067880708D5D807EA
:105A200006D5256802202862E06F40F00400E06798
:105A3000480708D5D80706D5256804202862E06FF6
:105A400040F00200E06708070AD5900601D4D807A5
:105A500006D5236808201862E06F40F00800E06770
:105A6000080509D5500107D523684FF40060186276
:105A7000E06F40F02000E067E06F002857D0890613
:105A800005D5900603D5216E09B120468847E06F01
:105A900021688A68510602D410F0280F1AD02046D7
:105AA00000F018FA206881684A060ED500F040F828
:105AB00058B10FF2CD414163E06EFEF783F8B0B309
:105AC000E06E416BBDE8344008472046BDE83240F7
:105AD00000F0EBBA204600F0E8FA0020E06731BDA4
