:020000040800F2
:10000000E80900208157000879540008815400084D
:100010008D54000899540008A55400080000000001
:10002000000000000000000000000000B1540008C3
:10003000B354000800000000BB540008BD54000881
:10004000A5570008A9570008AD570008B157000888
:10005000B5570008B9570008BD570008C157000838
:10006000C5570008C9570008CD570008C1540008FB
:10007000D1570008D5570008D9570008DD570008A8
:10008000E1570008C7540008CD540008E5570008A0
:10009000D3540008E9570008ED570008F15700084D
:1000A000F5570008F9570008FD57000801580008E7
:1000B00005580008D9540008095800080D580008D0
:1000C0001158000815580008195800081D58000854
:1000D00021580008255800085D55000829580008D7
:1000E0002D580008315800083558000839580008C4
:1000F0003D58000841580008455800084958000874
:100100000000000000000000000000004D58000842
:100110005158000855580008595800085D58000803
:100120006158000865580008695800086D580008B3
:100130007158000875580008000000000000000019
:10014000795800087D580008815800080000000018
:10015000000000000000000000000000000000009F
:1001600000000000000000008558000889580008C1
:100170008D58000800000000000000000000000092
:1001800000000000915800089A4238BF8854704718
:10019000704710B5014600200A2205E05C1C0C6087
:1001A0001B78303B02FB00300B681C78303C0A2C7B
:1001B000F4D310BD2DE9F84F0B9C0C9F0D9D1646F6
:1001C00015F0030F814688469A46009608D1A3464B
:1001D00004E000F01CF8761C0BF1010BBB45F8D3D2
:1001E0008CB10A98641E5346005D32464146C847AA
:1001F000761CF5E700F00BF8761C301BB842F9D3FB
:100200003046BDE8F28FA807FAD5009CF5E75346C3
:1002100032464146202048472DE9F84384B08046C5
:10022000DDF848C0DDF830E00D980E9F109D119E5E
:100230005FEA8C745DD43EB15FEACC7404D5002FC4
:100240000CBF1CF00C0F761E2C463025A0423EBF82
:1002500020280EF80050401CF8D344E020283EBF70
:1002600030240EF80040401C41D342E0102C0AD14B
:10027000441C5FEA8C651AD420280CD278250EF82D
:100280000050204607E0022C05D1202803D262242A
:100290000EF80040401C202803D230240EF8004005
:1002A000401C202813D2441C2FB12D270CE02028FD
:1002B000F1D25825E3E75FEA4C7748BF2B2703D4F8
:1002C0005FEA0C7703D520270EF8007020460190D6
:1002D000CDF80CC0CDF800E002964046FFF76AFF6B
:1002E00005B0BDE8F08325465FEACC7401D5B04285
:1002F000B4D35FEACC64D4D50F9C5FEA4C59B5D433
:100300000028B3D0A84218BFB042AFD1401EADD034
:10031000102CABD1401EABE72DE9F8418FB004465D
:10032000884616991B98002609B920F01000189FDE
:10033000450500D5C9B1B1FBF7FC07FB1C11CDB2D7
:10034000B6460A2D0EF10106B8BF303105DB850631
:100350004CBF4125612549190A3907AD05F80E1032
:100360005FEA0C0101D0202EE5D31A9DDDF864C0B0
:1003700017990690059507A802910090CDF810C036
:100380000397019641462046FFF746FF10B0BDE8AF
:10039000F0812DE9F34F8FB00027DDE91A45229E49
:1003A000BD4204BFBC4226F01006DDE91E9A70056E
:1003B0009346984603D5BD4208BFBC4223D0204691
:1003C00029464A46534600F0C7FD3846471CD1B27D
:1003D0000A29B8BF303205DBB1064CBF412161218B
:1003E00052180A3A07A953460A54204629464A4653
:1003F00000F0B2FD04460D460020854208BF84424D
:1004000001D0202FDBD3DDF884C0209D1C9C1099E7
:100410000F980696CDF814C00495CDF80C90029470
:10042000019707AC43465A460094FFF7F5FE11B01A
:10043000BDE8F08F2DE9F74F2DED068B9A46B0EE13
:10044000408AF0EE608A8CB0002453EC182B51ECFB
:10045000180B00F099FEDDF87C90209D05D003205C
:1004600000F024F901908CA117E000F0A3FA07D264
:1004700004210FF6842000F019F9019100900DE09D
:1004800000F093FA11D8680759BF032083A1042014
:100490000FF66C2100F00AF901900091149A13995B
:1004A00012985346FFF786FEDAE00122DFF8DC39C6
:1004B0001E9F00F079FE05D90022DFF8D43900F044
:1004C0008BFE0AD2149A139912980295CDF80490D3
:1004D0000097534600F0EEF8C2E0002300F07CFEE7
:1004E000934605D281F000414FF0010B41EC180B0F
:1004F000680504AE00F1B98006201E9051EC180B7F
:1005000000F082FE07461E980FF6FC1101EBC002B8
:10051000384692ED009B00F095FE00F0C1F853ECD8
:10052000192B00F0A1FE41EC1A0B00F06FFF804682
:1005300000F080FF02460B4651EC1A0B00F088FFDA
:1005400041EC1A0B08F101000090012251EC1A0B4A
:10055000DFF8403900F028FE0DD8DDF80080404675
:1005600000F068FF53EC192B00F01EFE0FD84FF07F
:1005700000087F1C0BE0002200F02EFE07D3B8F12C
:10058000000F02D05FEAC87001D5DDF800800A21B3
:100590001E980091A0BB384600F054FE00F080F891
:1005A0000022DFF8F03800F017FE03D2012200F03D
:1005B000FBFD02D8F80748BF7F1C202C0AD20A2076
:1005C000009997FBF0F001FB107730373755641C2A
:1005D0000700F2D105F00300012854D1B9F1000F52
:1005E00006D0BBF1000F0CBF15F00C0FA9F10109EB
:1005F00030214C453EBF202C3155641CF9D342E0DC
:100600001E9A4046202C0BD20A21009BB0FBF1F130
:1006100003FB110030303055521E641C0800F1D12C
:10062000202CD7D21046421E611C00281EBF30204D
:1006300030550C46F4D122E0690748BF2B2102D483
:10064000290702D520213155044600F02FF80194E6
:1006500004A80090149A139912985346FFF7AAFD24
:100660000CB0BDEC068BBDE8FE8F0A2F05D3302001
:100670003055641C7F1E202CF7D31E973EE72E209A
:1006800030550C4699E7202CDFD2601CBBF1000FDF
:10069000D2D02D21D7E700006E616E00666E690032
:1006A00002460B4651EC180B00F0D2BE0395CDF874
:1006B000089070472DE9FB4F2DED048B8246934641
:1006C0002DED020B88B0DDE90823DDE9080100F01B
:1006D0005BFD1A9E1C9F05D100F067F902D900F05E
:1006E00069F907D21B9A109B0F990192029700F0AB
:1006F00067F94FE10022002300F06EFD3DBF4FF08F
:10070000010881F00041CDE908019046DDE90823A8
:100710007805DFF88417DFF8845758BF06264FF0B6
:10072000FF30194010400D43CDE90405DDE90845CF
:100730006C00640DA4F2FF34204600F083FDDFF866
:100740006027DFF8603700F08FFDDFF85C27DFF807
:100750005C3700F0EFFEDDE9042304460D4600207F
:10076000DFF84C1700F0E6FEDFF84827DFF84837DF
:1007700000F07AFD22462B4600F0DCFE00F044FD3E
:10078000054600F05FFDDFF83427DFF8343700F06E
:100790006BFD0022DFF8FC3600F0CCFE00F034FDEB
:1007A0000446284600F04EFDDFF81827DFF818371A
:1007B00000F05AFDCDE90001204600F043FDDFF8CE
:1007C0000C27DFF80C3700F04FFD02460B46DDE941
:1007D000000100F03DFE41EC180B53EC182B00F02B
:1007E00043FD41EC190B04F2FF3001050020CDE977
:1007F000040153EC182B4FF0804100F035FDCDE99A
:10080000020153EC182B00204FF0804100F020FE35
:10081000CDE90001002251EC190BDFF8B83600F0E9
:1008200045FF0022DFF8B03600F084FE00F0B7F894
:100830000022DFF8A83600F07DFE00F0B0F8DDE918
:10084000002300F077FE02460B46DDE9020100F0CE
:100850002DFF0022DFF8443600F06CFEDDE90423B2
:1008600000F002FDCDE90401DDE90423DDE9080122
:1008700000F0B2FC09D2DDE904010022DFF85836AD
:1008800000F014FFCDE904016D1E05F16302C72AD3
:1008900034BF0424052438051CD5DDE90801DFF840
:1008A0004026DFF8403600F07FFC0FD80022DFF84A
:1008B000383600F091FC09D2B542BABF761B761EDD
:1008C000002647F480670024002503E016B1780570
:1008D00048BF761E1B98844234BFA0EB04094FF03A
:1008E0000009B80702D50CB14FF000093DB1DDE9B0
:1008F0000801DDE9042300F0D9FECDE90801CDF8B7
:1009000018B0B8F1000F1DBFDDE9080181F000410A
:1009100041EC100B9DED080B27F400600290109B3A
:100920000F99CDF8049000F04BF806468CB3B8064A
:10093000109B0F994CBF452065203246D047002DB3
:1009400046BF01206D420020052105910A220021A9
:1009500003910292019006F10108641E109B0F9909
:100960000494009542465046FFF7D6FC0646B80769
:100970000FD50F9C109D1B9FDDF8188005E02B46BE
:10098000324621462020D047761CA6EB0800B8420C
:10099000F5D330460AB0BDEC048BBDE8FE8F0246AD
:1009A0000B4651EC190B00F081BE0022DFF83C35FC
:1009B00000F0FABB4FF0FF326FF4801300F00CBC74
:1009C00000965A46504635E52DE9FF4F89B04FF065
:1009D000000BDDF85880D1B9DFF81415099116E045
:1009E00000F027FA0BF1010B4846B84200F101096B
:1009F000F6D30995CDF828A00B9606E00B9B0A9933
:100A0000099C5A46A0470BF1010B00F00EFA0C9816
:100A10000078002800F0D7812528EFD100F005FAF2
:100A2000002503E045F01005491C0C9145F002003B
:100A30000C990A78202A10D0232AF3D02B2A09D027
:100A40002D2A05D0302A08BF45F00105ECD0C8E1B9
:100A50000546E9E745F00405E6E745F00805E3E764
:100A60002A2907D158F8047B002F44BF05467F424E
:100A700000F0DBF900240C9801782E2916D1411CD6
:100A80000C9145F480650878A0F130010A2904D260
:100A90000CA8FFF77EFB044608E02A2806D158F888
:100AA000040B0028C8BF044600F0BFF945F480706D
:100AB0000C990A78682A12D06A2A0CD06C2A04D0C1
:100AC000742A18BF7A2A16D018E0491C0C910546E2
:100AD00009786C2912D10C9845F4007509E0491C7D
:100AE0000C91084645F080050178682906D145F04B
:100AF0004005411C01E00546491C0C910C98027808
:100B00001046252845F020013FF478AF452812D043
:100B100046280DD047280ED0582818BF62281BD071
:100B2000632800F0D480642816D0652803D0662896
:100B300000F0B380672800F0B880692818BF6F28DC
:100B40000AD0702800F02F81732800F0F8807528F3
:100B500018BF78287FF452AF782A08BF102013D02E
:100B6000582A02D110200D460EE06F2A08BF082037
:100B70000AD0622A08BF022006D00A20692A18BFBC
:100B8000642A25F0100501D025F00C05690544BF45
:100B90006D086D000026692A18BF642A824654D168
:100BA000A90527D508F1070020F0070000F1080883
:100BB000D0E90023B34215DA4FF0010C524263EB47
:100BC00043030895CDE904A6CDE9002307970694D1
:100BD000CDF808C00B9B0A9909985A46FFF7D9FB34
:100BE000834612E70120B342B446E7DBE9DC8242E8
:100BF000E4D3E6E7E90515D558F8041B00290ED51E
:100C00000122494205950290009101920B9B0A999D
:100C10000998049703945A46FFF77EFBE0E73246B3
:100C2000EFDDEFE7690603D558F8041BC9B204E00D
:100C3000290658F8041B48BF09B2002902D5012231
:100C40004942DFE73246FBDDDCE7A90510D508F1B4
:100C500007010895CDE904A621F00700079706943F
:100C600000F108080296D0E90001CDE90001B1E7E2
:100C7000E90504D558F8041B00F0F0F8CBE7690645
:100C800003D558F8041BC9B204E0290658F8041B20
:100C900048BF89B200F0E2F8BDE7462A08BF0D461A
:100CA00000F0CCF8FFF7C6FB9AE745F40060672A2E
:100CB00008BF054606D0472A0CBF0546452A01D184
:100CC00045F0200500F0BAF8FFF7F4FC88E70120B2
:100CD000A907009017D4099C0A9EDDF82C90824643
:100CE00006E04B465A4631462020A0470BF1010B47
:100CF0005046B84200F1010AF3D309940A96CDF8A0
:100D00002C90CDF800A05A4658F8040B0B9B0A997A
:100D1000099CC0B2A047A8070BF1010B7FF575AE87
:100D2000099DDDF828A00B9E009C2046441CB8427B
:100D3000BFF45FAE00F07DF80BF1010BF5E758F85A
:100D4000040B0090002C14BF21464FF0FF310246E7
:100D5000107800281FBF0846411E0028521CF7D1FA
:100D60004BE00A9933465A462020D0470BF1010B3D
:100D70004846B84200F10109F3D3009908780028E9
:100D800049D0690503D52046441E002843D0009869
:100D90000A99401C00903346401E5A460078D047BE
:100DA0000BF1010BE9E758F8040B45F02105059517
:100DB00008210491002210210291009001920B9BC6
:100DC0000A99099826E70B980A99099C834534BF2C
:100DD0005A46421E03460020A04758460DB0BDE8C3
:100DE000F08F11460027A1F130020A2ABFF438AE75
:100DF0000CA8FFF7CEF907463CE60098A2EB0009E5
:100E0000680502D5A14588BFA146A807DDF824A042
:100E10000B9EADD5B1E7CDF824A0A8070B967FF5C2
:100E2000F4AD099DDDF828A0DEE50C98411C0C917D
:100E3000704733465A4651462020284708F107019B
:100E4000029521F007000197009400F1080890ED49
:100E5000000B0B9B0A9909985A4670470595049711
:100E600003940290019600910B9B0A990998704790
:100E700008B4C0B5134603AA009200F003F806BCFC
:100E80005DF808FB0A4601461A489DE565CDCD414F
:100E900065CDCDC10000E03FFFFF0F000000F03F37
:100EA000FB799F501344D33FB3C8608B288AC63F59
:100EB0000000F8BF61436F63A787D23F71A3790930
:100EC0004F930A401655B5BBB16B0240EF39FAFE9D
:100ED000422EE63F00002C40000024400000184055
:100EE0002D431CEBE2361A3F80842E410000F07F38
:100EF0009101000889010008666E692D000000005C
:100F0000666E692B00000000000000000000F03F4A
:100F100000000000000024400000000000005940D4
:100F20000000000000408F40000000000088C34027
:100F300000000000006AF8400000000080842E419C
:100F400000000000D01263410000000084D79741E8
:100F50000000000065CDCD41B3BBD9B1B2F5803FF3
:100F60007DD2022A1ED98C46B1FBF2F102FB11C3DD
:100F70001B0443EA1043B3FBF2FC02FB1C3380B2B8
:100F800040EA0343B3FBF2F002FB103240EA0C40AC
:100F900000237047022A05D98446B0FBF2F002FB19
:100FA00010C270474AB105D100F0010249085FEA5A
:100FB0003000704700220023704700F09BBC0B00FC
:100FC0000200002100207047904271EB030CF6D321
:100FD000B3F5803F2FD2F0B5B3FA83F7B1FA81F4BD
:100FE000A7F10F0E3D1B5340CEF1200602FA0EF280
:100FF000F3415340B5F10F0746D80F3C2C44414014
:10100000C4F12006A040F1414140B1FBF3F603FBDF
:101010001611A2FB0645001BA94102D2761E8018BC
:10102000594180EA010221FA0EF362FA0EF2002120
:101030005A403046F0BD30B4B1FBF3FC03FB1C1149
:10104000A2FB0C45001BA94103D2ACF1010C801896
:10105000594130BC02460B46604600217047B2F150
:10106000807F65D3F0B5B2FA82F7B1FA81F4C7F1A7
:101070000F063D1B22FA06F307F1110EF24120354F
:101080005A40B5F10F07B8D94140C4F12006A0403D
:10109000F1414140B1FBF3FC03FB1C11A2FB0C45E9
:1010A000001BA94103D2BCF1010C801859410F2F3C
:1010B00012D30F3FC90341EA5041B1FBF3F603FBE2
:1010C0001611A2FB0645D4EBC030A94102D2761E10
:1010D0008018594146EACC3C07B34140C7F120068D
:1010E000B840F1414140B1FBF3F603FB1611A2FBFE
:1010F0000645001BA94102D2761E8018594180EA9C
:10110000010221FA0EF3C7F1200462FA0EF20CFA82
:1011100007F05A402CFA04F13043F0BD80EA010296
:1011200021FA0EF3002162FA0EF260465A40F0BD39
:101130008C46B1FBF2F102FB11C31B0243EA1063C0
:10114000B3FBF2FC02FB1C331B024CEA002043EA17
:101150001063B3FBF2FC02FB1C331B024CEA0020C1
:1011600043EA1063B3FBF2FC02FB1C331B024CEAA4
:10117000002043EA1063B3FBF2FC02FB1C324CEA92
:10118000002000237047000090420CD141EA030C7C
:1011900050EA4C0C07D0994205D14FF4001C1CEBCF
:1011A000410F38BF894270474FF4001C1CEB410FC0
:1011B00094BF1CEB430F09E041EA030C50EA4C0CCE
:1011C00052EA0C0C03D28B4208BF8242704714BF14
:1011D00099429042704700004FF4001C1CEB410FF5
:1011E00094BF1CEB430F09E041EA030C50EA4C0C9E
:1011F00052EA0C0C03D2994208BF9042704714BFC8
:101200008B42824270470000C1F30A5340F2FE3223
:101210009B1A14DDD3F120034FEAE17208DDC90205
:1012200041EA505141F00040D8408018504070478A
:1012300003F2E13010B1D24382F000407047002049
:1012400070470000C11768B14840401AB0FA80F2F8
:101250009040D21CC907C2F5846241EA025202EBF7
:10126000D021400570470000B0B581EA030C0CF0B6
:10127000004C40F2FF7515EA11541DBF15EA1357D3
:10128000AC42AF4239E0E41923EA455343F48013FA
:10129000C90241F0004141EA505EC7021100A7FBBC
:1012A000020200284FF00000EEFB01204FF0000189
:1012B000E3FB072118BF42F0010240180021494119
:1012C000E3FB0E01A4F580640F0302D252004041FB
:1012D000494154F101046CDD470872F1004250F1BC
:1012E000000051EB0451A1F580115CBF41EA0C01F3
:1012F000B0BD4CEA05510020B0BD05EA1357AC4221
:1013000014BFAF4241E050EA410E1CBF52EA430E07
:1013100002E061460020B0BD24423C441BD15FEA9C
:10132000070EF6D0090302BF01460020AEF1140EED
:10133000B1FA81F7AEEB070401FA07FE0C37C7F1EB
:10134000200100FA07F7C8404EEA000E23EA455391
:1013500043F48013A2E733F00043B3FA83F704BFEA
:10136000B2FA82FE77440B3FE41BB7F1200E2FBF89
:1013700002FA0EF3BB40C7F1200E22FA0EFE38BF70
:1013800043EA0E03BA40641C82E750EA410E14BFE0
:1013900052EA430E6FF000014FF4001717EB430FB2
:1013A0008ABF194617EB410FB5E74CEA05510020FB
:1013B000B0BDD4F10104B4F120070FDAC4F1200765
:1013C000520828BF42F0010210FA07F501FA07F7A8
:1013D000E1BF2A43E0403843E1400FE0352C98DC80
:1013E000C7F1200452EA400220FA07F218BF42F087
:1013F000010231FA07F0A1400A43002172F10042D4
:1014000050F1000051EB0C01B0BD0000400D491837
:1014100040EA81200CD2490DA1F58061491C40F0C1
:10142000004005DBD1F11F0154BFC840C017704711
:1014300000207047014648B1B0FA80F18840C91CCD
:10144000C1F58461090501EBD0214005704700001A
:1014500070B44FF0004591EA030F40F173806B4088
:10146000841A71EB030603D2001BB14112197341B8
:101470004FF4001C1CEB410F34BF7CEB430442E0F3
:101480000C0DA4EB1356352E4FDC45EAC323DB0AC3
:1014900045EAC121C912B6F120050DDD63FA05F652
:1014A000EB4086EA0305124218BF45F00105C0185B
:1014B00051F100010CD213E062FA06F5F2405540FA
:1014C000F3415A40B340F3405A408018594107D382
:1014D00049085FEA30005FEA350528BF45F001059D
:1014E00001F58011420875F1004250F1000041EB16
:1014F00004514E0016F5001F70BC38BF7047002025
:10150000090D090570471CEB410F10D252EA430642
:101510000BD0BCEB410F05D80C0DAB43661E342E2F
:10152000B6DD02E0AB438018594170BC704770BC17
:101530007047000070B44FF0004591EA030F7FF54B
:101540008FAF6B40841A71EB030604D26E40001B10
:10155000B141121973414FF4001C1CEB410F34BF11
:101560007CEB430682E00C0DA4EB1356362E7BDC9D
:10157000012E45EAC32341DC43EA525312BFD20293
:1015800092025B08240545EAC12141EA5051D2EBA1
:10159000C020994125D407D1B0FA80F610FA06F19F
:1015A00062D00020203608E0B1FA81F6B140C6F1E1
:1015B000200220FA02F21143B0404FEAF474B4EB77
:1015C000465434F001064FEA74040AD8D6F50016E2
:1015D000760D04F00044F04061FA06F25040F1400C
:1015E0004840C00A40EA415021F0004128BF5FEA6C
:1015F000500550F1000044EBD12135E0DB0A45EA0B
:10160000C121C90AB6F120050EDD42EA0242120CE0
:10161000C5F1200603FA06F6EB4042EA06056D42E4
:10162000984161F100010DE062FA06F5F240554083
:1016300063FA06FC82EA0C02F3405A406D42904184
:1016400061EB030111F4801F05D1641E620502D015
:101650006D004041494121F48011430875F1004378
:1016600050F1000041EB045170BC70471CEB410F7E
:1016700015D223F0004352EA43060BD04FEA4C0C3C
:10168000BCEB410F04D80C0D661E342EB7DDEBE722
:10169000801A994150EA410608BF0021E4E708BFDB
:1016A0001CEB430F28BF6FF00001DDE7F0B540F2FF
:1016B000FF7581EA030C0CF0004C15EA11541DBFB4
:1016C00015EA1357AC42AF42E5E0BC41C1F3130148
:1016D000C3F31303801A994143F4801304D2641EA8
:1016E0004000494180185941C90241EA5051B1FBBB
:1016F000F3F603FB1611A2FB0675D7EBC020A94138
:1017000002D2761E80185941C90241EA5051B1FBFC
:10171000F3FE03FB1E11A2FB0E75D7EBC020A941FF
:1017200003D2AEF1010E80185941890241EA90516D
:10173000760546EA8E2EB1FBF3F603FB1611A2FBEB
:101740000675D7EB8020A94102D2761E8018594138
:10175000C90241EA50514EEA060EB1FBF3F603FB13
:101760001611A2FB0675D7EBC020A94102D2761E46
:1017700080185941C90241EA5051B1FBF3F703FB0C
:101780001711A2FB0735D3EBC020A94167F1000771
:101790000CBF004247F0010766F3D5274FEA1E3120
:1017A000B80814F5806412DDBD0775F1004250EBF6
:1017B0000E5051EB045111F5801F5CBF41EA0C0142
:1017C000F0BD4CF07F6141F0E0410020F0BDBD076D
:1017D0006D0840EA0E5041F48011D4F10104B4F1D7
:1017E00020060ADAC4F120060200E04001FA06F3FE
:1017F000E1401843B24015430EE0342C13DCC6F12F
:10180000200445EA40056D0820FA06F2154321FA46
:1018100006F0A1400D43002175F1004250F1000097
:1018200051EB0C01F0BD00205FEA0C01F0BDCFB917
:1018300092185B41B3FA83F704BFB2FA82F6BF197C
:101840000B3FB7F120062FBF02FA06F3BB40C7F1EA
:10185000200622FA06F638BF3343BA401CB1E41919
:10186000641E33E77F4231F00041B1FA81F404BFD6
:10187000B0FA80F6A4190B3CB4F120062FBF00FA91
:1018800006F1A140C4F1200620FA06F638BF314324
:10189000A0403C1B1AE7AC421ABF05EA1357AF42FF
:1018A00012E050EA41061CBF52EA4306BFE750EA85
:1018B0004107304661461CBF41EA0551F0BD52EA7E
:1018C000430C08BFC143F0BD00204FF4001616EBD7
:1018D000410F98BF16EB430F08BF16EB410F24BF13
:1018E000C14305E016EB430F0CBF61464CEA0551BE
:1018F000F0BD000070470000F8B5002604460096D1
:101900000CB90120F2BD04F130052869C10648D4A4
:10191000286998BB6E61E861A8612873204600F0D1
:101920006FFE20688168C80028D400F05FFB06467F
:101930002869C10622D4300020D12869DFF80023AD
:10194000DFF8003320F4885040F00200286120685E
:10195000816821F0405181602068816841F08051A8
:1019600081600A201168B1FBF3F34343009302E066
:101970000099491E009100980028F9D120688168DB
:10198000CA0002D5806881000BD500F0BCF86869F8
:1019900040F001006861286900F0B5F80126304682
:1019A000F2BD2869C106F7D43000F5D12768B868C0
:1019B0004107F1D42869DFF89022DFF89032DFF890
:1019C000901220F4807040F002002861B7F1A04F1F
:1019D000DFF880020ED0874208BF4FF0A04009D048
:1019E0009F42DFF8741208BF104603D097420CBF25
:1019F00018460020D7F808C00CF0030CBCF1010F0A
:101A000002D13F68FF070ED438B1876807F003079B
:101A1000012F02D10068C70705D40F68606827F45A
:101A2000403707430F606868E1680128607E14BF93
:101A30004FF48057002747EA40370F43A1680F4310
:101A400094F82010012911D130B9606A401E400479
:101A500040F48030074309E0286920F0020040F09C
:101A600020002861686940F001006861A16AD4F82B
:101A700000C0012917D09C4518BF944510D1B1F57D
:101A8000307F08BF4FF4E0710AD0B1F5807F08BF06
:101A90004FF4307104D0B1F5E07F08BF4FF480718E
:101AA000E06A01430F43DCF8080010F00C0F0CD182
:101AB000DCF80C10DFF88C040140CCF80C1029780D
:101AC000207E490041EA80310F432168DFF8780425
:101AD000CA6802401743CF60206901282068016B63
:101AE00005D1E2690909521E42EA011101E0090922
:101AF0000901016300206861286920F0020040F0BC
:101B0000010028614BE7286920F0020040F0100036
:101B1000286170472DE9F84F054688462868816896
:101B200014464A0700F1868005F13C0739780129FF
:101B300008BF022000F0818001223A70B0F1A04F6E
:101B4000434EDFF81491DFF80CA116BF5045306802
:101B5000D9F8000010F01F0068D1284600F086FC7C
:101B60000028834663D17968DFF88804014041F496
:101B7000807179602968B1F1A04F16BF5145306876
:101B8000D9F8000010F01F001EBFB1F1A04F2F4880
:101B9000814207D1786820F480107860C86881019C
:101BA00011D50EE0786840F480107860514507BF89
:101BB000DFF844140868DFF84404006810F000708F
:101BC00001D000F01DFA7868C10404D5B86820F08F
:101BD0000600B86001E00021B9600020387023469B
:101BE000A96BDFF82C0488624246A96BDFF8240455
:101BF000C862A96BDFF8200408631C202C682060F1
:101C00002868416841F0100141602868C16841F0CE
:101C10000101C160286800F14001A86B00F078FD67
:101C20002868816841F00401816005E09346002046
:101C3000387001E04FF0020B5846BDE8F28F00000B
:101C40003403002040420F00000500500004005003
:101C50000803005000010050080700502DE9F0472C
:101C60000446DFF898532168DFF88C830868DFF8B2
:101C7000AC93DFF8AC63DFF8AC73DFF8ACA34207DA
:101C800002D54868420705D40A68100755D5486848
:101C9000020752D5206CC20603D4206C40F40070B9
:101CA0002064B1F1A04F16BF51453068386810F07C
:101CB0001F0017D0B1F1A04F16BF514530683868EA
:101CC00000F01F0005280DD0B1F1A04F16BF5145FF
:101CD0003068386800F01F0009281CBFB1F1A04F20
:101CE000494501D1C86804E051450CBF404628462B
:101CF0000068CA6812F4406F19D1800417D40868CC
:101D0000020714D5886842070FD4486820F00C00F9
:101D10004860206C20F480702064206CC10406D4DC
:101D2000206C40F00100206401E000F00FF9204633
:101D300000F0B4FC21680C20086021680868820665
:101D400002D54868820606D40A68500601D548685C
:101D5000420640F17F80206C40F400502064B1F1D5
:101D6000A04F16BF51453068386810F01F0017D0DB
:101D7000B1F1A04F16BF51453068386800F01F0020
:101D800005280DD0B1F1A04F16BF51453068386815
:101D900000F01F0009281CBFB1F1A04F494501D137
:101DA000C86804E051450CBF404628460068CA6C2C
:101DB00012F0C00F07D0820146D4CA6812F4406FF7
:101DC00042D1800440D4086842063DD5B1F1A04F0D
:101DD00016BF51453068386810F01F0017D0B1F1B8
:101DE000A04F16BF51453068386800F01F00062824
:101DF0000DD0B1F1A04F16BF51453068386800F0E2
:101E00001F0007281CBFB1F1A04F494501D1C86888
:101E100003E0514508BF45462868800214D488680D
:101E200002070FD4486820F060004860206C20F45E
:101E300080502064206CC10506D4206C40F0010065
:101E4000206401E000F082F8204600F075FB216874
:101E500060200860206801680A060CD54068010609
:101E600009D5206C40F480302064204600F03EFD0F
:101E700021688020086020680168CA050DD5406887
:101E8000C1050AD5206C40F400302064204600F0E3
:101E90002EFD21684FF480700860206801688A0573
:101EA0000DD5406881050AD5206C40F4802020645F
:101EB000204600F01DFD21684FF400700860206886
:101EC0000168CA0624D54168CA0621D5616B01297B
:101ED00010D0B0F1A04F1CBF50453E46326812F002
:101EE0001F0F03D1C068C10704D40EE0316811F49C
:101EF000404F0AD0206C40F480602064606C40F059
:101F000002006064204600F0F4FC216810200860A4
:101F1000206801684A0512D541684A050FD5216C31
:101F200041F4804121644FF48062616C41F008010A
:101F3000616402602046BDE8F04700F0DBBCBDE80C
:101F4000F0870000FDBFFFFF07C0F0FF206C40F0EE
:101F500010002064606C40F0010060647047F8B5C8
:101F6000044604F13C050F462878012801D10220DF
:101F7000F2BD0121297000F039F806002ED10120B0
:101F80006860012F2068816821F08041816004D160
:101F90002068816841F0804181602068816841F05B
:101FA0000041816000F0A8FC074620688168002994
:101FB0000ED500F0A1FCC01B0B28F6D3686820F0FA
:101FC000020040F010006860002028700120F2BD7F
:101FD000686820F0020040F001006860002028706E
:101FE0003046F2BD0446206881687047204600F004
:101FF0005FBA0000FEF1FFFF0C0000500C0400501F
:10200000786820F4005040F48050786070470000F9
:102010000D24000851240008572400080004005033
:10202000080300500807005000010050F8B50A46A8
:10203000002100F13C0400912578012D01D10220FE
:10204000F2BD0123237003689D686E0700F1428191
:10205000576815681F26052F4FF0060C0BD20CFB96
:1020600007F7D3F830C0BE402CEA060605FA07F79A
:1020700037431F631DE00A2F08D27F1F17FB0CF7A1
:10208000D3F834C000F038F95D6312E00F2F08D2A6
:102090000A3F17FB0CF7D3F838C000F02DF99D6309
:1020A00007E00F3F17FB0CF7D3F83CC000F024F912
:1020B000DD6307250668B36813F00C0F6DD1136854
:1020C00097680A2B0DD30A3B03EB430CD6F818E0B4
:1020D00005FA0CF32EEA030307FA0CF71F43B76166
:1020E0000BE003EB430CD6F814E005FA0CF32EEAF0
:1020F000030307FA0CF71F43776103685769DE682B
:10210000D2F810E0F608760006F00606AEF1010EF1
:1021100007FA06F6BEF1030FDFF8FC731AD8DFE802
:102120000EF002080E14D3F860C000F0F1F81E663D
:1021300033E0D3F864C000F0EBF85E662DE0D3F82E
:1021400068C000F0E5F89E6627E0D3F86CC000F0A8
:10215000DFF821E01E6E00F0D5F803D11E6E26F0E8
:1021600000461E6603685E6E00F0CCF803D15E6E1A
:1021700026F000465E6603689E6E00F0C3F803D149
:102180009E6E26F000469E660368DE6E00F0BAF88A
:1021900003D1DE6E26F00046DE6603689E6806F018
:1021A0000306012E02D11F68FE073CD416680127E2
:1021B00007FA06F6D768012F06D0D3F8B05025EA03
:1021C0000606C3F8B0601AE0D3F8B0703E43C3F817
:1021D000B0601768936806680A2F08D3093F07EBB9
:1021E0004707D6F818C000F081F8B56107E07F1CFA
:1021F00007EB4707D6F814C000F078F8756103685C
:1022000039481268B3F1A04F16BF8342DFF80C5370
:10221000DFF80C53102A02D12E68370203E0112A8E
:1022200003D12E68F7015AD404E0122A57D12E6840
:10223000770254D4B3F1A04F0FD0834208BF4FF0C0
:10224000A0400AD0DFF8DC02DFF8D860834208BF84
:10225000304602D0B34218BF00209E6806F0030645
:10226000012E02D11F68FE0734D438B1866806F00B
:102270000306012E02D10068C6072BD4102A18D1FC
:10228000B3F1A04F2BD12868DFF89C3240F4000056
:1022900028600A221D68DFF89402B5FBF0F0504375
:1022A0000090009800281EBF009A521E0092F8D19C
:1022B00015E0112A07D1B3F1A04F10D1286840F0E2
:1022C000807028600BE0122A09D12A6842F480024B
:1022D0002A6004E0606840F0200060600121002076
:1022E00020700846F2BD000000010050BD402CEAFD
:1022F0000505BB401D437047BE402CEA0606BD40A5
:1023000035437047176806F0F846B6EB876F70479D
:1023100007EA0C07D2F800C047EA8C673E4346F054
:102320000046704700050050F8B50368804E002253
:10233000B3F1A04F07D1354600F13004277B012FC0
:102340000FD10220F2BDB34208BF4FF0A045F3D039
:10235000744D704CAB420CBF2546A342ECD001201B
:10236000F2BD012727739F687F0746D4AF687F07B8
:1023700043D4B3F1A04F16BFB342684E684E0B680A
:102380006C4F0BB3336823F4604C4B6843EA0C0C7E
:1023900023784CEA433333600068836803F0030317
:1023A000012B02D10068C3072CD4A86800F00300F9
:1023B000012802D12B68D80724D430680740086868
:1023C00007438868074316E0316821F460413160B3
:1023D0000068816801F00301012902D10068C1078A
:1023E00010D4A86800F00300012802D12968C807AA
:1023F00008D430680740376004E0206940F02000CE
:1024000020610122002020731046F2BD416A0A6C4F
:1024100012F0500F19D1086C40F4007008640A687B
:10242000D06810F4406F04BF487E00280AD10A6CBF
:1024300022F480720A64086CC20403D4086C40F071
:1024400001000864084600F029B9896B0A6B10473F
:10245000406A00F033B9406A016C41F04001016408
:10246000416C41F00401416400F043BA38B50446C0
:102470002168886800F00300012802D10A68D007AB
:1024800014D488686FF39E1078B9886840F0010012
:10249000886000F031FA054620680168CA0705D453
:1024A00000F02AFA401B0328F6D326E0002032BDB4
:1024B00038B5FFF797FD01F0030101291BD1026830
:1024C000D10718D5816801F00D01012912D1816869
:1024D00041F00201816003202168086000F00CFADD
:1024E000054620688168C80705D500F005FA401B3D
:1024F0000328F6D301E0002032BD00F001F832BD20
:10250000206C40F010002064606C40F001006064BA
:10251000012070470005005000F0FF8308030050C1
:1025200008070050000400503403002040420F0010
:1025300000010050E0F0FFFF7047000030B589B0A7
:1025400006AA00230024002582E8380068461821E6
:1025500000F0D8F900200121534C6060A0604FF0DA
:10256000A0450120206160762560002084F82000CD
:10257000E0620120A0620020E0600320E06104F13D
:102580003000017008216161002121764160204600
:10259000FFF7B2F908B100F04EFC0020069006A942
:1025A0002046FFF7C1FE08B100F045FC0120009075
:1025B0000190039006210020029104900590694645
:1025C0002046FFF733FD08B100F035FC03200090F2
:1025D000022100200191039069462046FFF726FD65
:1025E00008B100F028FC042003210090019120464E
:1025F0006946FFF71BFD08B100F01DFC09B030BDB6
:1026000038B586B0044601A8142100F07BF9216892
:10261000B1F1A04F40D12548254D026842F08052CB
:1026200002600322016801F0805100910099016865
:1026300041F4003101600F21006800F40030009087
:102640000098019100200390029201A94FF0904060
:1026500000F030FC1748286000206860A8608020E7
:10266000E8604FF4807028614FF48060686120203A
:10267000A8614FF40050E861284600F021F808B145
:1026800000F0D9FBA5636C6200220021122000F04B
:1026900021FD122000F03BFD07B030BD06490120AE
:1026A0000870704700000000280400201410024049
:1026B0007804002008000240E40500207047000074
:1026C00010B5040001D1012010BD022084F82100C2
:1026D00021680A6860686FF30D120243A068024324
:1026E000E06802432069024360690243A069024333
:1026F000E06902430A60204600F0D7F80020A0639A
:10270000012084F821000020FFE784F8200010BD9C
:10271000F8B50446002594F82000012801D10220D4
:10272000F2BD94F821000126012884F8206024D10C
:10273000022684F8216004F12C06F5602068076801
:102740007F087F000760204600F09EF8216830680F
:1027500020B10A6842F00E020A6008E0086840F002
:102760000A0008602068016821F004010160206807
:10277000026842F00102026002E084F82050022563
:102780002846F2BD38B590F821100024022900F146
:10279000340203D004205060012411E000F012F84C
:1027A0000D686D086D000D60D1688B4091684B60BD
:1027B000012380F8213080F82040116801B188475A
:1027C000204632BD01680B6823F00E030B60012325
:1027D00001687047F8B500F12802042351690C68BC
:1027E00001680D68966903FA06F73C4211D06F073D
:1027F0000FD50C68A50603D40D6825F004050D60FF
:1028000091698B4051694B605168D9B3BDE8F44080
:102810000847022303FA06F73C4217D0AF0715D545
:102820000C68A50606D40D6825F00A050D60012187
:1028300080F8211091698B4051694B60002380F82A
:1028400020301168F1B1BDE8F4400847082303FACD
:1028500006F6344216D02B0714D50B6823F00E036E
:102860000B60012491698C4051694C600123002167
:10287000136180F8201080F82130916811B1BDE813
:10288000F4400847F1BD000038B5046C0125A540AF
:10289000C46B6560046863604068102802D1A26060
:1028A000E16031BDA160E26031BD02680A498A423F
:1028B00007D20A498A181423B2FBF3F18900084AA7
:1028C00006E008498A181423B2FBF3F18900064A8E
:1028D0000164C2637047000008040240F8FFFDBFB6
:1028E00000000240F8FBFDBF000402407047704743
:1028F000704770477047000001484068704700BF4C
:1029000028030020002200F02DBC0000DFF8240482
:10291000016821F080710160026842F080720260FB
:10292000DFF81404016849084900016000210268C9
:1029300042F001020260416000BF00BF00BF40687A
:10294000401E8041C00F7047DFF8F0130868C00FC9
:102950001CD10868C0F3807008B1022016E0086836
:10296000C0F3407008B1032010E00868C0F30070A5
:1029700008B104200AE00868C0F3C06008B105206F
:1029800004E00868C0F3806000B10620DFF8B023DF
:1029900001211160704700002DE9F84F2DED088BE3
:1029A000ACB000F0F9FBFFF7CFFF044600F007FAE8
:1029B00000F004FC00F09EFCFFF7C0FD00F0BAFC44
:1029C00000F091FE00F032FDFFF7A0FF00902346DB
:1029D0000FF2644237211DA8FEF74AFA1DA800F045
:1029E00003FE00F0BBFD8C2000F0A0FD4FF4C8708A
:1029F00000F0A3FDD34C00224FF4807100F084F965
:102A000000224FF4007100F07FF900224FF4806142
:102A100000F07AF900224FF4006100F075F9CA4C19
:102A200000212046FFF79BFA0322C8492046FFF702
:102A300071F818B10FF23C4000F0D6FDC449C54A08
:102A40000020088010808246C34AC34950708046E7
:102A5000834608708870C8704FF40061BF4800F06A
:102A6000F9FABF4908700024BE4800F0C8FE9FED87
:102A7000ACBADFEDABBA0025A1469FED9E8ADFED33
:102A80009E8A9FED9E9ADFED9E9A9FED9EAADFEDB6
:102A9000A5AA13E0CDF80CB0CDF80880CDF804A0BD
:102AA00036B20FF2EC3200963BB23C2104A8FEF79E
:102AB000DFF904A800F098FD4FF00109AA4A107848
:102AC0000028FBD0A949086800230B60137000EEB2
:102AD00010BAA74909680A88B8EEC00A00EE902A21
:102AE00020EE2A0AF8EE600A00EE8A0ABDEEC00A5D
:102AF00010EE10BA0FFA8BFB594600EE101AB8EE22
:102B0000C00A9C49DFED880AC0EE200AC1ED000A28
:102B1000F0EE040A80EE200ABDEEC00A964910EEDF
:102B2000106A0E8000EE108A944909680A88A2F59E
:102B3000006200F039F9BDEEC00A10EE108A0FFAFB
:102B400088F8A6EB080636B200FB06F100EE101A74
:102B50008B490968098800F0DBF870EE2BBAA1F503
:102B6000006200EE10AA12B200F01EF985490F882B
:102B7000BDEEC00A10EE10AA0FFA8AFAA7EB0A07F8
:102B80003FB2784300EE100A7F4800F0C1F80078A9
:102B900030EE0BBAF8B16F486F4AC15E7B4B2BEE3B
:102BA000290ABDEEC00A10EE104A00EE101AB8EE67
:102BB000C00A20EE0B0ABDEEC00A10EE105A24B275
:102BC000201250702DB22812D07014709570704879
:102BD000704901F01DFAB4EE49BAF1EE10FAA8BF3F
:102BE000B0EE68BA06DAB4EE48BAF1EE10FA48BFB1
:102BF000B0EE48BAF4EE49BAF1EE10FAA8BFF0EE22
:102C000068BA06DAF4EE48BAF1EE10FA48BFF0EE10
:102C100048BA4F48B0F9000000EE100A5A48007850
:102C2000B8EEC00A60EE2B0A76007F0000EE106A54
:102C300001EE107ADFED3D1A0128B8EEC00AB8EEB9
:102C4000C11A6BEEA11A06D1204600F047F800F039
:102C50003DF8284609E05048B0F9000000F03EF881
:102C60004E48B0F9000000F031F800EE900AF8EE9E
:102C7000E00A71EEA00A30EE800ADFED290A30EE9C
:102C8000200A38B240F24F21BDEEC00A884210EE51
:102C9000106AA8BF40F24E2703DA41498842B8BF04
:102CA0000F4630B29728A8BF962602DA0028D8BF70
:102CB000012630B200F03AFC38B200F03EFC394850
:102CC00081453FF4E7AE09F10109F7E670EE810AAC
:102CD000FDEEE00A10EE907A7047000002EE100A56
:102CE000B8EEC22A70EE820A9FED0D2A70EE820ABB
:102CF00070470000CDCC4CBDCDCC4C3DCECC4C3D36
:102D000000409C46CDCCCC3D204600F0A9B9000047
:102D1000B8EEC00ADFED060A80EE200A7047000018
:102D2000000000006666663F00007A4400C05A4515
:102D30004054894CFCED00E0001000E024100240FB
:102D4000E00442420010004828040020CC05002086
:102D5000E0050020E20500202400002000080048D3
:102D6000E505002040050020E4050020041000E0F7
:102D70000800002024030020DC05002000000020C3
:102D800004000020DE05002028000020D8050020D7
:102D9000800500200C000020AC050020AE050020BE
:102DA000B2FDFFFF400D0300B8EEC00A00EE902A0E
:102DB00020EE2A0AF8EEE00A00EE8A0A704780B593
:102DC0009EB005A82821FFF79DFD68461421FFF756
:102DD00099FD0FA83C21FFF795FD012005900021EA
:102DE0004FF4803006900D9007914FF4E0100122CF
:102DF00002210E9009920C9105A801F0D7FA0F203C
:102E000002210090019100204FF480610290039113
:102E100004900221684601F04BFC41F282000F90C1
:102E200000214FF4807018901B9012910FA801F0B0
:102E30001DFD1FB000BD704753797374656D20533D
:102E40007461727420757021204C61737420526516
:102E500073657420466C61672069732025642C209B
:102E6000445754205374617475732025640D0A0A05
:102E7000000000004661696C656420746F20496E33
:102E8000697469616C697A65204144430D0A0000E8
:102E9000443A25642C207068693A25642C20493A0C
:102EA00025642C20566F3A25642056696E3A2564B5
:102EB000200D0A002DE9F84F4FF0000E704A714BBB
:102EC000DFF8C4814FF00F0982460F4633E06F4DA3
:102ED000AA4514BF052504258D40254343F82C50F1
:102EE000C143146801EA040C7C68E50348BF40EA6A
:102EF0000C0CC2F800C0546801EA040C7C68A503FD
:102F000048BF40EA0C0CC2F804C0946801EA040C03
:102F10007C68E50248BF40EA0C0CC2F808C0D468DF
:102F200001EA040C79688C0248BF40EA0C0CC2F834
:102F30000CC00EF1010E396831FA0EF000F08880F5
:102F4000012000FA0EFC1CEA0100F2D07C68022C81
:102F500018BF122C4FEA8E0110D14FEADE040AEBA3
:102F6000840401F01C05266A09FA05FB26EA0B0613
:102F7000D7F810B00BFA05F5354325624FEA4E0439
:102F80000325DAF8006097F804B0A540ED430BF094
:102F9000030B2E400BFA04FB4BEA0606CAF800604E
:102FA0007E68012E18BF022E03D0112E18BF122EDC
:102FB00017D1DAF80860D7F80CB02E400BFA04FBF2
:102FC0004BEA0606CAF80860DAF8046026EA0C0C38
:102FD0007E68C6F3001606FA0EF646EA0C06CAF834
:102FE0000460DAF80C603540BE6806FA04F42C433D
:102FF000CAF80C407C68E4009BD5D8F8004044F047
:103000000104C8F800404FEA9E0CD8F8005005F0C3
:103010000105009501F00C01009C53F82C5009FAB1
:1030200001F425EA0404BAF1904F08BF00250ED040
:10303000174DAA4508BF012509D0164DAA4508BF5E
:10304000022504D0144DAA457FF441AF032543E780
:10305000BDE8F18F0069084018BF0120C0B2704779
:1030600081B0002A14BF8161816201B0704781B0D4
:1030700042690A4218BF0904816101B0704700002B
:1030800000040140080001401810024000100048F0
:103090000004004800080048000C00480901020034
:1030A00081B002D42948815405E0294802F00F027A
:1030B000104400F8041C01B07047264A13684FF60C
:1030C000FF0100020B4000F4E0601843224908436E
:1030D0001060704738B51F4B1C68C4F30223C3F15E
:1030E0000704052C28BF04241D1D072D34BF002311
:1030F000DB1E012505FA04F4641E2140994005FAFF
:1031000003F35B1E1A401143BDE83440C6E70100DB
:1031100007D4012200F01F01104B8A40400943F8F8
:103120002020704710B5401EB0F1807F01D30120F0
:1031300010BD0B4C60600F214FF0FF30FFF7AEFF6A
:103140000022A26007202060002010BD00E400E003
:1031500018ED00E00CED00E00000FA0500E100E0F1
:1031600010E000E000B500BF130096469446103909
:1031700028BFA0E80C50FAD85FEA417C28BF0CC0F9
:1031800048BF40F8042BC90728BF20F8022B48BFCE
:1031900000F8012B00BD000080B50748016841F030
:1031A000100101600320FFF788FF002001F03AFCC6
:1031B00001F058FC002002BD0020024070B586B02E
:1031C00068461421FFF79EFB3E483F4E04683F4D82
:1031D00044F48004046001683D4C01F480010591D1
:1031E0000599016841F400310160026802F400327F
:1031F00005920599016841F400110160026802F42A
:10320000001205920599016841F4002101600268ED
:1032100002F4002205920599016841F480110160D1
:10322000026802F48012059200220599016841F4B7
:10323000802101604FF48041006800F480200590F7
:1032400005983046FFF70CFF00224FF460712046CE
:10325000FFF706FF002201212846FFF701FF4FF488
:10326000804000F03EF83046FFF724FE4FF46070D7
:1032700000F037F82046FFF71DFE4FF4807000F095
:103280002BF84FF090406946FFF714FE4FF4C05002
:1032900000F022F820466946FFF70CFE012000905E
:1032A000019069460020029003902846FFF702FE35
:1032B000C02000F011F869460648FFF7FBFD06B094
:1032C00070BD00001410024000100048000C0048BF
:1032D000000800480004004800210090019102917C
:1032E00070470090012100200191029003906946EF
:1032F0007047000080B50E48016841F0010101608F
:103300000022006800F001000090002100980B20CE
:10331000FFF7E0FE0B20FFF7FAFE0022002111204C
:10332000FFF7D8FEBDE802401120FFF7F0BE00BF56
:1033300014100240F0B599B015A81021FFF7E2FA79
:1033400007AC00F0A2F868461C21FFF7DBFA0AA8D8
:103350002C21FFF7D7FA9A4C9A482060656020200C
:10336000A0604FF416758020A061E560266166615B
:10337000204600F037FA08B1FFF75DFD4FF48050AA
:10338000159015A9204600F007FC08B1FFF753FD82
:10339000204600F059FA08B1FFF74DFD0796089650
:1033A000099607A9204601F09CFB08B1FFF743FDF1
:1033B000854800904FF49671019102960396049609
:1033C00005960696002200F02DF808B1FFF733FDB0
:1033D000042200F027F808B1FFF72DFD60200090CF
:1033E0000195082200F01EF808B1FFF724FD4FF404
:1033F00000514FF000700F9112900A960B960C96A8
:103400000D960E9610961196139614960AA92046BC
:1034100001F0A1FB08B1FFF70EFD204600F062F8B5
:1034200019B0F0BD6946204600F015BBF0B587B075
:1034300003A81021FFF766FA6C4600F026F8634CEB
:1034400063482060A56040F257206060256110202D
:10345000E060A561204600F0C5F908B1FFF7EBFC7C
:103460004FF48050039003A9204600F095FB08B16B
:10347000FFF7E1FC009502956946204601F031FB1B
:1034800008B1FFF7D8FC07B0F0BD002500260027E3
:1034900084E8E000704780B500684A4A4D49904290
:1034A00009D1086840F400600860096801F400610F
:1034B0000091009801BD464A904212D1486840F000
:1034C000020048600022486800F0020000900021DD
:1034D00000981D20FFF7FEFDBDE802401D20FFF70C
:1034E00016BE01BD10B586B0044601A81421FFF731
:1034F00009FA2168334A914216D13748026842F4EA
:10350000001202604FF43C51006800F4001000907B
:1035100002220098019100200390049002920592EB
:1035200001A92E48FFF7C6FC06B010BD2449096862
:103530004863C0F51670886370472149274B0968B6
:10354000012802DBC863002203E000F51672CA639B
:1035500001224FF480411846FFF782BD10B5184C88
:10356000002100F03DF808B1FFF765FC002120467E
:1035700001F09BFA08B1FFF75EFC042100F030F87F
:1035800008B1FFF758FC0421204601F08EFA08B17B
:10359000FFF751FC082100F023F808B1FFF74BFCBE
:1035A0000C2100F01DF808B1FFF745FC20684FF42E
:1035B0009671416381634FF4D271C16310BD000005
:1035C00000050020002C01406000010040050020A3
:1035D000000400401810024014100240001000487F
:1035E000204600F03EB9000070B50646714D724CA1
:1035F000284601F045FCC0B2212818BF232812D16B
:1036000004F1080001F066FE0246C2F16402314690
:1036100004F1080001F079FE2588304601F05AFED9
:103620004519258070BD6422314604F1080001F07F
:1036300081FE0020208004F1080001F04BFE04F11F
:10364000080182B211446160284604F10801BDE816
:10365000704001F019BB5749884200D0704700B54F
:1036600085B0C36F0FF2681214216846FDF700FCA5
:103670006846FFF7B9FF05B000BD38B504464D48B0
:1036800084422FD14C4D288848B368682A8805F1B8
:103690006C011044814205F108000ED201F01AFEBF
:1036A00005F108010144696000202880C1F164022D
:1036B00005F10800821892B20CE001F00BFE298897
:1036C00028444942084400F108026A6000202A8820
:1036D000288069682046BDE8384001F0D5BA05F178
:1036E0000800686031BD80B53248344901604FF44C
:1036F0006121416000218160C16001610C21416153
:1037000000218161C1610162416201F07DFA18B15D
:10371000BDE80140FFF78FBB01BD38B586B0044658
:1037200001A81421FFF7EEF82168244A91423ED106
:103730002348244D816841F4003181600222816870
:1037400001F4003100910099016841F48011016099
:103750006021006800F48010009000980191002022
:1037600003900321072004910590029201A91648B5
:10377000FFF7A0FB15482860102068600020A860B3
:103780008020E860002028616861A861E86128461F
:10379000FEF796FF08B1FFF74EFBA5666C620022AC
:1037A00000212620FFF796FC2620FFF7B0FC07B08B
:1037B00030BD00003C030020BC030020004400405A
:1037C00014100240BC040020000C0048800002409D
:1037D0007561727431206572726F722025640D0AF2
:1037E0000000000038B5040001D1012032BD00F016
:1037F00071F818B900F06AF8FFF74DFE13E00168A0
:10380000C86840F00100C8608A68DFF8D000024054
:10381000062A18BFB2F5803F03D0086840F00100C7
:1038200008600020704702206870211D206800F0A9
:103830000FFA01206870002032BD03D0086840F004
:1038400001000860002016BD38B5040001D1012038
:1038500032BD00F03FF818B900F038F801F0A2FDD1
:10386000E1E71CB500F02DF800F020F81CBFDFF8F0
:103870007000814209D000F010F81FBFDFF864002B
:103880008142DFF86400814201D100F00AF800F0C3
:1038900012F818BFB2F5803FCFE7DFF85000814241
:1038A0007047486C40F40040486470472168DFF876
:1038B0004020914270478A68DFF820000240062AC3
:1038C000704704460122206800F093BB0021297054
:1038D0002046704704F13C056878704707000100F6
:1038E00000340140004401400048014000400140D4
:1038F000002C014010B50446206801698A0715D5DF
:10390000C1688A0712D56FF0020202610121217796
:10391000806910F0030F204602D001F044FD03E05F
:1039200001F042FD00F094F8002020772068016942
:103930004A0715D5C1684A0712D56FF00402026123
:1039400002212177806910F4407F204602D001F0E7
:103950002AFD03E001F028FD00F07AF8002020772E
:10396000206801690A0715D5C1680A0712D56FF0EA
:103970000802026104212177C06910F0030F20467C
:1039800002D001F010FD03E001F00EFD00F060F840
:103990000020207720680169CA0615D5C168CA06CB
:1039A00012D56FF01002026108212177C06910F46E
:1039B000407F204602D001F0F6FC03E001F0F4FC69
:1039C00000F046F80020207720680169CA0708D572
:1039D000C168CA0705D56FF001020261204601F0F7
:1039E000E4FC206801690A0608D5C1680A0605D505
:1039F0006FF080020261204601F0D8FC2068016966
:103A0000CA0508D5C1680A0605D56FF4807202613F
:103A1000204601F0CCFC206801694A0608D5C1683F
:103A20004A0605D56FF040020261204601F0C0FC55
:103A3000206801698A060AD5C1688A0607D56FF031
:103A4000200202612046BDE8104001F0B2BC10BD6A
:103A5000204601F0AFBC70B500F092F801D1022011
:103A600070BD00F094F852B1042A1BD0082A2CD063
:103A70000C2A3DD0102A4ED0142A60D073E0306852
:103A8000294600F035F93068816941F0080100F0FD
:103A900073F821F00401816131688A692869024361
:103AA0008A6160E03068294600F064F93068816915
:103AB00041F4006100F060F821F4806100F05CF8EE
:103AC0002A6941EA022181614DE03068294600F00F
:103AD0008AF93068C16941F0080100F049F821F025
:103AE0000401C1613168CA6928690243CA613AE0C8
:103AF0003068294600F0AFF93068C16941F40061CF
:103B000000F036F821F4806100F032F82A6941EAC9
:103B10000221C16127E03068294600F0C6F930680B
:103B2000416D41F0080141653068416D21F00401AB
:103B3000416531684A6D286902434A6513E030687F
:103B4000294600F0DCF93068416D41F400614165BF
:103B50003068416D21F4806141653068416D2A69AA
:103B600041EA02214165012060700020207070BD93
:103B7000C1613068C169704781613068816970478F
:103B8000064606F13C040D462078012870470121C5
:103B9000217002206070704738B500F04EF801D1F6
:103BA000022032BD01222270022060702A68DFF8F4
:103BB000AC039368034093600868020018BF1028A4
:103BC0002DD0202818BF302829D0402823D05028B5
:103BD00016D0602818D0702803D0B0F5005F07D049
:103BE00021E000F025F82868816841F0770105E0C0
:103BF00000F01EF82868816841F48041816012E07D
:103C000000F012F850210BE0CA684968286800F0FB
:103C1000CCF9602104E000F007F8402100E0014603
:103C2000286800F0D4F90EE0CA6849682868ADE158
:103C3000CB684A6889682868D1E1054605F13C04EB
:103C4000207801287047012060700020207032BD6C
:103C50002DE9F041DFF80873D0F800C0DFF8043335
:103C6000DFF80443DFF80453DFF80463DFF804E30C
:103C7000DFF80483B84218BFB0F1804F04D040454C
:103C80001CBF7045B0420DD14A68B8422CF0700C90
:103C900018BFB0F1804F42EA0C0C0BD0404518BF62
:103CA000704507D0B04218BFA84203D0A04218BF49
:103CB000984204D1CA682CF4407C42EA0C0C4A6950
:103CC0002CF0800C42EA0C020260B8428A68C262A0
:103CD00018BFB0420A68826204D0A8421CBFA0424A
:103CE000984201D10969016301214161BDE8F08178
:103CF0002DE9F041026ADFF86882DFF874E2DFF84C
:103D00006462DFF86472DFF864C252085200026233
:103D1000056A43688469DFF8642214400A68144322
:103D20008A6825F002051543404518BF704504D048
:103D300060451CBFB842B0420DD1CA6825F00805E5
:103D40001543404518BF704525F0040505D0604572
:103D500018BFB84201D0B04205D14A6923F440737C
:103D600013438A6913434360846149684163056270
:103D7000BDE8F081F0B500F095F822F01002026283
:103D8000056A436884697E4A14400A6844EA02244A
:103D90008A6825F0200545EA0215754AB04218BF29
:103DA000904208D1CF6825F0800545EA0715B0425A
:103DB00025F040050AD090421CBF6C4A904205D0C5
:103DC000694A90421CBF674A904206D14E698A698F
:103DD00023F44063164343EA8603436084614968E1
:103DE00081630562F0BDF0B500F05CF822F48072EA
:103DF0000262056A4368C469604A14400A68144351
:103E00008A6825F4007545EA0225594AB04218BF70
:103E1000904208D1CF6825F4006545EA0725B042F5
:103E200025F480650AD090421CBF504A904205D0CC
:103E30004D4A90421CBF4B4A904206D14E698A6956
:103E400023F44053164343EA06134360C4614968B0
:103E5000C1630562F0BD70B500F024F822F4805211
:103E60000262036A4468C569454A00F06FF823F4AA
:103E700000531CBF3E4EB04243EA023307D03B4AD8
:103E800090421FBF384A9042364A904204D14A6954
:103E900024F4804444EA82144460C56149680164A2
:103EA000036270BD026A2E4E704770B5FFF7FAFFCD
:103EB00022F480320262036A4468456D314A15403B
:103EC0000A6815438A68B04223F400331CBF284EA9
:103ED000B04243EA024307D0244A90421FBF224A1D
:103EE0009042204A904204D14A6924F4803444EA42
:103EF00002244460456549688165036270BD70B500
:103F0000FFF7D0FF22F480120262036A4468456D15
:103F10001D4A00F01BF823F400131CBF144EB042DE
:103F200043EA025307D0114A90421FBF0E4A904203
:103F30000C4A904204D14A6924F4802444EA822441
:103F4000446045654968C165036270BD15400A68F3
:103F500045EA02258A68B042704700008800FEFFEB
:103F6000002C014000480140004401400040014055
:103F70000034014000080040000400408CFFFEFFB8
:103F8000FF8CFFFE8FFFFEFFFF8FFFFE10B5036A61
:103F9000046A64086400046223F00A03846924F05C
:103FA000F00444EA021484612EE010B5036A23F0A1
:103FB000100303628369046A23F4704343EA023303
:103FC00024F0A004836144EA0114046210BD8268F5
:103FD00022F07002114341F007018160704710B573
:103FE000846824F47F442143114341EA0321816022
:103FF00010BD10B501F01F01036A01248C40A343DA
:10400000036202FA01F1036A1943016210BD000064
:10401000F8B590F820400568AD68012C18BF022C57
:104020004FD115F0E05F48D0C5F30164032C03D3F2
:10403000416A41F4000146E00125A5401D602401CC
:104040000368CE6803F5C0758B681BB90B6846EA38
:10405000435603E04F6843EAC7031E432E510568E9
:104060000B6905F5C2763351097D012906D1036834
:1040700003F5C2710D5945F480750D519379D179CD
:1040800055791B0443EA0163117900F01FF8C1F868
:104090008C319378D17855781B0443EA0163117809
:1040A00000F014F8C1F88831006800F5C0700159BB
:1040B00041F0010101510020F2BD416A41F40011BB
:1040C00001E000F009F841620120F2BD43EA052356
:1040D0000B43016821447047416A41F480217047D5
:1040E00078B590F82040012C18BF022C57D1002938
:1040F000046801D1E56800E0256915F0030F03D1DC
:10410000416A41F400114CE00D0104F5D876745970
:1041100014F004049460066806F5D87603D1745947
:10412000640D146002E07659F6085660046804F5E0
:10413000D876765906F00206D66000F035F804F01D
:104140000F04146100F030F8C4F30724946100F008
:104150002BF8240C546102682A44D2F8B8211A7052
:1041600002682A44D2F8B821120A5A700468621907
:10417000D2F8B821120C9A7004686219D2F8B821EA
:10418000120EDA70006821B9C16841F02001C160E7
:1041900003E0016941F020010161002072BDFFF7D9
:1041A0009BFF4162012072BD04682C44D4F8B441E5
:1041B00070472DE9F84F05464FF00008286846691A
:1041C000D0F804B08468D0F80C90D0F810A08769BB
:1041D000F10745D5E10713D501218160A00703D57B
:1041E000284601F0E8F80BE0600748BF4FF400688C
:1041F00006D420074EBF4FF48058284601F0DCF863
:10420000E00515D529684FF480708860A00503D5B6
:10421000284601F0D2F80BE0600548BF48F400588A
:1042200006D420054EBF48F48048284601F0C6F861
:10423000E00315D529684FF480308860A00303D5CA
:10424000284601F0BCF80BE0600348BF48F4004882
:1042500006D420034EBF48F48038284601F0B0F859
:10426000300748BF5FEAC96004D52968102048F4C8
:104270000078C860700748BF5FEA097005D52968F3
:104280000820C860284601F09CF8B00707D52868C8
:10429000C16811F0030F1CBF284601F093F87006A7
:1042A00048BF5FEACA6004D52968102048F48068D6
:1042B0000861B00648BF5FEA0A7005D52968082082
:1042C0000861284601F0A0F8F00607D528680169C2
:1042D00011F0030F1CBF284601F097F8B00348BF48
:1042E0005FEACB6005D5296810204860284601F0B8
:1042F0008DF8F00348BF5FEA0B7005D529680820E8
:104300004860284601F083F8300440D55FEA4B70DE
:104310003AD5F00503D5F80748BF48F00108B005C5
:1043200003D5B80748BF48F00208700503D57807E1
:1043300048BF48F00408300526D517F0700F23D089
:1043400007F07007102F0CD0202F0DD0302F0ED07B
:10435000402F0FD0502F10D0602F08BF48F4807826
:104360000DE048F008080AE048F0100807E048F0BF
:10437000200804E048F0400801E048F08008286880
:10438000816921F070018161042029684860B8F1D9
:10439000000F08D0686A48EA000068622846BDE855
:1043A000F24F01F035B8BDE8F18F00002DE9F84378
:1043B000040019D02078DFF86454C10716D5686866
:1043C00000F00C0004280AD0686800F00C000828EF
:1043D00002BF686800F48030B0F5803F3FD100F044
:1043E000E0F918B16068002800F0F9802178DFF862
:1043F0003864880719D5686810F00C0F07D0686812
:1044000000F00C00082865D16868C10362D400F090
:10441000CCF91CBF2069012840F0E180296860695F
:1044200021F0F80141EAC00129602178080740F134
:10443000D880A069DFF8F413002869D001220A604F
:10444000FEF75AFA0746686A00F0B0F940F0C980F2
:10445000FEF752FAC01B0228F5D903201DE160685F
:10446000B0F5803F09D008B929680AE0B0F5A02F5F
:10447000296806D141F480212960286840F4803001
:1044800005E021F480312960286820F4802028602C
:10449000E96AA068090940EA0111E962606860B14F
:1044A000FEF72AFA064600F07CF900289ED1FEF7B6
:1044B00023FA801B6528F6D3CFE7FEF71DFA0646E0
:1044C00000F06FF9002891D0FEF716FA801B6528DE
:1044D000F6D3C2E7206970B101213160FEF70CFA12
:1044E000074600F062F940F0A780FEF705FAC01B0E
:1044F0000228F6D9B1E73060FEF7FEF9074600F072
:1045000054F992D0FEF7F8F9C01B0228F7D9A4E7B6
:104510000860FEF7F1F90746686A00F047F960D0D5
:10452000FEF7EAF9C01B0228F6D996E708B9286A0F
:1045300009E00528286A06D140F004002862286AAC
:1045400040F0010005E0400840002862286A20F0A1
:104550000400286241F28938E06868B1FEF7CCF9BE
:104560008146286A00F022F973D1FEF7C5F9A0EB65
:1045700009004045F5D370E7FEF7BEF98146286A89
:1045800000F014F965D0FEF7B7F9A0EB090040453B
:10459000F5D362E7FEF7B0F9C01B02286AD95CE7E1
:1045A000FEF7AAF9001B022873D956E700F07CF841
:1045B000044600F074F86FD0FEF79EF9001B022845
:1045C000F7D94AE701280AD06868226A00F48031E6
:1045D000914202BF00F47010616A88425CD00120F1
:1045E0005BE02078410739D5E8690027C10009D48C
:1045F000E86940F08050E8610127E86900F08050E8
:1046000000900098DFF82882D8F80010C8051BD465
:10461000D8F8000040F48070C8F80000FEF76CF98C
:104620008146D8F80010C8050ED4FEF765F9A0EB56
:1046300009006528F5D310E72868616920F0F800C3
:1046400040EAC1002860F0E6E06801287FF46EAF20
:1046500075E71FB1E86920F08050E861E069D8B1E2
:10466000696801F00C010829ACD002289ED100F045
:104670001BF8074600F013F88CD16968606A21F4D2
:1046800074110143206A01436960012000F00DF8B4
:10469000044600F004F883D00020BDE8F2832868C7
:1046A000C0F340600028704700203066FEF724B950
:1046B0002DE9F8430400884667D05E4E306800F06C
:1046C0000700404502D200F062F85ED12178534DD8
:1046D000880705D56968A06821F0F0010143696089
:1046E0002078C10749D56168012902D100F059F845
:1046F00004E00229286803D1C0F3406018B944E0FF
:1047000000F054F841D06868800841EA800169608F
:1047100041F28939FEF7F0F807466868616800F0F1
:104720000C00B0EB810F28D0FEF7E6F8C01B48451F
:10473000F3D303201FE02078410705D56968E068BE
:1047400021F4E061014369602078010706D56868BB
:10475000216920F4605040EAC100686000F02EF842
:104760006A683549C2F30312895C2D4AC84010605B
:1047700000F020F80020BDE8F283306800F0070068
:104780008045D8D200F003F8D5D00120F3E7316896
:10479000C90848EAC1013160306800F007004045AF
:1047A00070472868C0F3404070472868C0F3400055
:1047B000002870472148006800F034B920490A6891
:1047C00002F00C00082814D10FF28003C2F38340DA
:1047D000D203185C896A09D50FF28003114A01F0EF
:1047E0000F01595CB2FBF1F148437047154948434A
:1047F00070470C4870470A48114A0068136812490C
:10480000C3F3022206E006480D4A006813680E4909
:10481000C3F3C222895CC840704700000010024008
:104820003403002000127A00000042428004424219
:104830000070004000200240BC56000830030020F9
:104840000410024000093D009C57000802030405C3
:10485000060708090A0B0C0D0E0F101001020304C5
:1048600005060708090A0B0C0D0E0F102DE9FC4177
:104870000546DFF8A4612868C10354D5B069002457
:10488000C10009D4B06940F08050B0610124B06922
:1048900000F0805000900098DFF880713968C805FA
:1048A00017D4386840F480703860FEF725F88046E9
:1048B0003968C8050DD4FEF71FF8A0EB080065287D
:1048C000F6D30320A5E0FEF717F8C01B40451AD326
:1048D000F7E7F06910F440701EBF696801F4407199
:1048E000884215D0DFF83811F06901220A6020F4FF
:1048F000407000220A60F061C00709D5FDF7FCFF97
:10490000074641F28938F069C0F340000028DAD048
:10491000F169686821F440710143F1611CB1B0692B
:1049200020F08050B0612978C80705D5F16AA868E1
:10493000890840EA8101F1622878810705D5F16A8A
:10494000E86821F440310143F1622878410705D538
:10495000F16A286921F440210143F1622878810637
:1049600005D5F16AE86921F010010143F162286878
:10497000810305D53168A86B21F4800101433160C2
:104980002878410605D5F16A286A21F02001014303
:10499000F1622878010705D5F16A686921F44011B0
:1049A0000143F1622878C10605D5F16AA86921F4AE
:1049B00040010143F1622868810505D53168E86A44
:1049C00021F40001014331602878010605D5B16A60
:1049D000686A21F4F8710143B1622868C10505D500
:1049E000B16AA86A21F478510143B1622868C10410
:1049F00005D5F16A286B21F480710143F1622868C2
:104A0000810405D5F16A686B21F400710143F162FC
:104A10000020BDE8F6810000041002400070004054
:104A20004004424238B50D4D0D4A297804464FF4F2
:104A30007A70B0FBF1F11068B0FBF1F0FEF772FB99
:104A400050B9102C08D2002221464FF0FF30FEF75B
:104A500041FBAC60002032BD012032BD28030020A4
:104A6000340300200A4881B0016841F0010101606F
:104A7000026802F0010200920099416841F0805101
:104A80004160406800F080500090009801B070478D
:104A90001810024003D0086840F0010008600020B0
:104AA00010BD044600222068A0E010B50446042290
:104AB000FFF7F9FF00F004F818BFB2F5803FE9E70F
:104AC0002168486C40F4004048648A68DFF80401BB
:104AD0000240062A7047CA60002180F83C1000207E
:104AE00010BDF8B500F13C031A78012A01D102206B
:104AF000F2BD01241C7002225A700568DFF8D8C08C
:104B00006E68364FAC68654518BFBD4203D14A6830
:104B100026F4700616430A6826F0700616436E6087
:104B20000268624518BFB2F1804F0AD02C48824219
:104B30001CBF2C48824204D0BA421CBF2A48824281
:104B400004D1886824F080040443946001205870E4
:104B500000201870F2BD10B590F83C20012A01D158
:104B6000022010BD012380F83C30CC688B684A6875
:104B700024F440741C4324F4806414430B680A69D1
:104B800024F400641C4324F4805414434B698A6A5F
:104B900024F400541C4324F4804414438B690E4ACB
:104BA00024F4702444EA0344036893421CBF0B4A74
:104BB00093420CD14A6A24F4700444EA0254CA694C
:104BC000096A24F08074144324F000740C435C647C
:104BD00082E7000007000100002C01400034014082
:104BE00000040040000800400040014010B501F002
:104BF0001F01036A04248C40A343036202FA01F1FB
:104C0000036A1943016210BD38B5040009D004F1EC
:104C10007005686808B900F028F800F00DF8012860
:104C200001D1012032BD606A08B100F023F800F024
:104C300014F821F02A0109E0242068602068016846
:104C4000490849000160204600F020B9816000F069
:104C500014F8BDE8324000F072BA2068416821F4CF
:104C6000904141602068816870470021297020468A
:104C7000FEF753BD204600F0FFB92068016841F0FF
:104C8000010101602046704770B5044604F17005CB
:104C90001346686820283CD169B318002BD02878C7
:104CA000012836D001222A7004F15006E1643380D5
:104CB00073800020E86021206860B069E8B10FF2DD
:104CC000795181620FF2A150B169C862B1690FF2E6
:104CD000A15008630020B16948632068E16C00F1CD
:104CE0002802B069FDF714FD38B11020E8600020FB
:104CF000287020206860012070BD21684020086273
:104D0000002028702068816841F0800181600020C7
:104D100070BD022070BD38B5044640F60F0025680E
:104D2000E9692A68AB6808400AD188067AD59006F6
:104D300078D5216E002974D02046BDE8344008475C
:104D4000D80702D412F4907F6CD0C80707D5D005DD
:104D500005D501202862E06F40F00100E067880778
:104D600008D5D80706D5256802202862E06F40F0F4
:104D70000400E067480708D5D80706D52568042051
:104D80002862E06F40F00200E06708070AD590064D
:104D900001D4D80706D5236808201862E06F40F0D8
:104DA0000800E067080509D5500107D523684FF4CE
:104DB00000601862E06F40F02000E067E06F0028BC
:104DC00057D0890605D5900603D5216E09B1204636
:104DD0008847E06F21688A68510602D410F0280FD6
:104DE0001AD0204600F018FA206881684A060ED5CD
:104DF00000F040F858B10FF2CD414163E06EFDF78D
:104E0000C1FCB0B3E06E416BBDE8344008472046BA
:104E1000BDE83240FEF71FBC2046FEF71CFC002018
:104E2000E06731BDC80209D5580207D54FF480109C
:104E300028622046BDE8324000F0EBBA080607D5EC
:104E4000100605D5616EA1B12046BDE83440084783
:104E500048060ED550060CD5286820F04000286082
:104E600020216167002060662046BDE83240FEF7E1
:104E700004BC31BD816821F040018160E06E704763
:104E80000146486F896F0843704700007CB50446AF
:104E90007048226813680340A068034320690343F5
:104EA00060690343E0690343136000215368E068CD
:104EB00023F440530343536000259368A06923F40F
:104EC00030630343206A034393606348634B9A4211
:104ED0000AD1006800F00300032815D8DFE800F0CD
:104EE000024B5F38012010E05D4B9A4220D10068F0
:104EF00010F4403051D0B0F5803F3CD0B0F5003FC9
:104F00004DD0B0F5403F23D01020E269B2F5004FFC
:104F10004FF6F0766AD140B1012842D0022843D042
:104F2000042846D008284DD054E0FFF764FC42E046
:104F30004C4B9A420ED1006810F440202DD0B0F5B1
:104F4000802F18D0B0F5002F29D0B0F5402FDBD13D
:104F50000220DAE7444B9A420FD1006810F4401067
:104F60001BD0B0F5801F06D0B0F5001F17D0B0F5EC
:104F7000401FEDD0C8E70420C7E73C4B9A42C3D19D
:104F8000006810F4400008D0B0F5800FF3D0B0F501
:104F9000000F04D0B0F5400FEBE70020B5E7082084
:104FA000B3E7FFF730FC06E06068314901EB5001E0
:104FB0000CE0FFF703FC61684A0802EB4002B2FB19
:104FC000F1F105E06068410801F58031B1FBF0F1D5
:104FD00089B200E00125A1F11000B04233D20E40A9
:104FE000C1F3420006432068C6602DE040B10128AD
:104FF00009D002280AD004280DD0082813D01AE0BE
:10500000FFF7F9FB09E0FFF7FEFB06E060681949CE
:1050100001EB50010BE0FFF7D1FB616800EB5100A1
:10502000B0FBF1F105E06068410801F50041B1FB1A
:10503000F0F189B200E00125A1F11000B04202D2E6
:105040002068C16000E001250021216661662846D4
:1050500076BD0000F369FFFF3010024000380140C8
:105060000044004000480040004C00400050004018
:105070000024F40000127A0090F82410CA0706D524
:1050800002685368816A23F400330B43536090F83D
:1050900024108A0706D502685368C16A23F4803356
:1050A0000B43536090F824104A0706D502685368F2
:1050B000016B23F480230B43536090F824100A07FC
:1050C00006D502685368416B23F400430B435360D9
:1050D00090F82410CA0606D502689368816B23F401
:1050E00080530B43936090F824108A0606D502681B
:1050F0009368C16B23F400530B43936090F8241022
:105100004A0610D502685368016C23F480130B43E0
:105110005360016CB1F5801F05D15368416C23F4D5
:10512000C0030B43536090F824100A0606D50168AB
:105130004A68806C22F4002202434A607047F8B546
:10514000044604F170050020E8606FF07E47FDF72B
:10515000D3FB0646206801680A0708D50097334646
:1051600000224FF40011204600F016F860B92068C4
:1051700001684A070AD50097334600224FF48001A0
:10518000204600F009F808B10320F2BD2020686035
:10519000A86000202870F2BD2DE9F041069C05466C
:1051A0000E4690461F462868C1693140B1420CBF87
:1051B0000120002040451CD114F1010FF3D0FDF770
:1051C0009BFBC01B844200D314B900F015F80CE01F
:1051D000286801684A07E6D5C1690A05E3D54FF496
:1051E0000062026200F008F8C16000210170032033
:1051F00000E00020BDE8F0812868016821F4D0714A
:1052000001602868816849084900816005F17000E3
:10521000202141608160704701680A6822F4907221
:105220000A6001688A68520852008A6020218167FA
:105230000021016670470000416A8069202804BF90
:105240000846FEF71ABA0022A1F8522008688268C0
:1052500022F0800282600868FFE7016841F04001A7
:105260000160704700000000406A00F0D3B8000001
:10527000F8B5446A04F1740504F1520029686A68BB
:1052800023689E68370609D5212907D100210180AE
:10529000196821F0C001196020232B6023689968E8
:1052A0004B0606D5222A04D1002101812046FFF7B2
:1052B000B3FFA86840F01000A8602046BDE8F240A7
:1052C000FEF7C9B9406A00F1520100220A810A8042
:1052D000FEF7C1B900F10103810704D010F8011BEA
:1052E00089B18107FAD10268B2F10131914311F01D
:1052F000803F04BF50F8042FF6E710F8011B11B1EE
:1053000010F8011BFBE7C01A704730B4054600E0F7
:105310006D1C2C78002CFBD13AB10B782BB111F815
:10532000014B05F8014B521EF6E70021297030BCF5
:105330007047000001B58B071AD1830724D1121FD3
:1053400021D351F8043BA3F1013C2CEA030C1CF0DF
:10535000803C04BF40F8043BF1E79CFA8CFCBCFAAB
:105360008CF1C1F118018B40CB4040F8043B13E0B5
:10537000042A09D311F8013B521E00F8013B5BB12E
:105380008B07F7D1D9E7121D5AB111F8013B521E14
:1053900000F8013B03B1F8D111001CBF002200F05E
:1053A0003BF801BD704770477047704770477047C2
:1053B0007047704770477047704770477047704735
:1053C0007047704738B5044601210D480D4DFDF773
:1053D0004EFE2B4605F1080200212046FEF780FE16
:1053E00018B1BDE83140FDF726BD2878697840EA5C
:1053F0000120A880E978A87840EA0120E88031BD42
:10540000000C0048A805002070477047704770479F
:105410007047704770470000401810F0030308D031
:10542000C91A1FD3DB0748BF00F8012D28BF20F899
:10543000022D130030B414461546103928BF20E958
:105440003C00FAD8490728BF20E90C0048BF40F8C3
:10545000042D890028BF20F8022D48BF00F8012D37
:1054600030BC7047C91818BF00F8012DCB0728BF02
:1054700000F8012D704700000FF23010FEF7B4B8AD
:1054800080B50FF23810FEF7AFF8FEE780B50FF2E7
:105490003C10FEF7A9F8FEE780B50FF24010FEF7CA
:1054A000A3F8FEE780B50FF24410FEF79DF8FEE783
:1054B00070470FF24810FEF797B8704700F0ACB88D
:1054C0002948FDF787B92948FDF784B92848FCF732
:1054D000C5BB2848FEF76DBE70B5274C274D207818
:1054E000274E7728B4BF401C002000F031F83178F7
:1054F000814207D001212348FDF7B9FD002000F0CB
:1055000027F8307020782049204A91ED000A32F9BE
:1055100010101F4ADFED130A60EE200A00EE101A89
:10552000B8EEC00A20EE800ABDEEC00A10EE101AD6
:105530001180184A32F81010174A1180174A18497A
:1055400032F810000880BDE870401648FEF7D2B966
:1055500020704FF400612846FDF77CBD1248FFF72C
:10556000DABB00006666663F78040020BC040020B9
:10557000280400208005002038030020000800488F
:10558000E5050020000C0048240300205400002002
:10559000DE05002044010020E00500203402002048
:1055A000E2050020400500203C0300204E4D49202C
:1055B0005472696767657265640D0A0048617264B8
:1055C000204661756C74210D0A0000004D656D6FF9
:1055D0007279204661756C74210D0A004275732042
:1055E0004661756C74210D0A0000000055736167F7
:1055F00065204661756C74210D0A00004465627572
:1056000067204D6F6E69746F7220547269676765A9
:105610007265640D0A00000002484168027889182A
:10562000416070472803002019E050F8042BD3078D
:1056300044BFA9F101039A18091F0023042942F865
:10564000043BF9D25FEA817C134604D54FF0000C8D
:10565000A2F800C09B1CC90744BF0021197050F874
:10566000041B0029E1D1704730B5016884684218F5
:10567000416802EB5103C9070BD54C4409E012F90C
:10568000011B12F8015B002904F8015B05D5491CD8
:10569000F9D19A42F3D10C3030BD491EF1D5F8E76B
:1056A0000448054A016841F4700101604FF0006050
:1056B0001060704788ED00E008ED00E00000000099
:1056C00000000000010203040607080910B507499D
:1056D00079441831064C7C44163404E00A68081DED
:1056E000114488470146A142F8D110BD2C000000AA
:1056F000480000004EF68851CEF20001086840F4E0
:1057000070000860BFF34F8FBFF36F8F4FF00070D2
:10571000E1EE100A7047000011FFFFFFAC0200002D
:105720003C0300200000000041FFFFFF6801000073
:10573000E60400000000002000F00DF8002801D071
:10574000FFF7C4FFAFF300800020AFF30080FDF748
:1057500023F900F002F80120704700F001B80000C2
:105760000746384600F002F8FBE7000080B5AFF3CB
:105770000080024A11001820ABBEFBE726000200A1
:105780000148804701480047A1560008915700088A
:10579000AFF30080FFF7AEFFFFF7CEFF0000000081
:1057A00001020304FFF7FEBFFFF7FEBFFFF7FEBFD6
:1057B000FFF7FEBFFFF7FEBFFFF7FEBFFFF7FEBF1D
:1057C000FFF7FEBFFFF7FEBFFFF7FEBFFFF7FEBF0D
:1057D000FFF7FEBFFFF7FEBFFFF7FEBFFFF7FEBFFD
:1057E000FFF7FEBFFFF7FEBFFFF7FEBFFFF7FEBFED
:1057F000FFF7FEBFFFF7FEBFFFF7FEBFFFF7FEBFDD
:10580000FFF7FEBFFFF7FEBFFFF7FEBFFFF7FEBFCC
:10581000FFF7FEBFFFF7FEBFFFF7FEBFFFF7FEBFBC
:10582000FFF7FEBFFFF7FEBFFFF7FEBFFFF7FEBFAC
:10583000FFF7FEBFFFF7FEBFFFF7FEBFFFF7FEBF9C
:10584000FFF7FEBFFFF7FEBFFFF7FEBFFFF7FEBF8C
:10585000FFF7FEBFFFF7FEBFFFF7FEBFFFF7FEBF7C
:10586000FFF7FEBFFFF7FEBFFFF7FEBFFFF7FEBF6C
:10587000FFF7FEBFFFF7FEBFFFF7FEBFFFF7FEBF5C
:10588000FFF7FEBFFFF7FEBFFFF7FEBFFFF7FEBF4C
:10589000FFF7FEBF0BCC050020CE050020D0050091
:1058A00020E4000001BF005E0A0015001F0029006F
:1058B00033003D00470050005A0063006B00720047
:1058C00078007D008200850088008A008B008A00B5
:1058D0008A008A008A008A008A008A008A008A0078
:1058E0008A008B008A0089008700850081007D0086
:1058F000780072006A005C00520049003F003500E9
:105900002B00210017000DE7005E0B0015001F00A3
:105910002A0034003E00470051005A0063006C002A
:10592000730079007E008200850088008A008B0069
:105930008A008A008A008A008A008A008A00890018
:1059400089008900890089008800860083007F0023
:105950007B0076006F0068005900500047003D0052
:10596000330029001F0015000AE7005F35FF6AFEBB
:105970009EFDCFFCFDFB27FB4CFA6AF97EF886F70B
:105980008EF6A2F5C2F4EFF32DF381F2F1F186F178
:1059900046F177F174F170F16DF169F165F160F143
:1059A0005BF156F150F149F15AF19BF106F295F293
:1059B00040F302F4D4F4B4F5A1F645F833F917FA3C
:1059C000F3FACAFB9DFC6DFD3AFE08FFE8005F316B
:1059D000FF63FE94FDC3FCEFFB18FB3BFA57F96B2A
:1059E000F872F779F68CF5ACF4DAF319F370F2E4A7
:1059F000F17DF143F17AF17DF17FF182F184F1865D
:105A0000F188F18AF18BF18DF18FF1A7F1EDF15B66
:105A1000F2EAF294F353F422F5FFF5E8F681F86C1C
:105A2000F94EFA28FBFEFBCFFC9EFD6AFE36FFE82E
:105A3000003A240148026F039804C605FA063608A6
:105A40007B09CE0A330C980DEB0E2E105D117512EA
:105A50006D133C14D6143215EC14F014F514FA142A
:105A6000001506150D1514151C1524152EFD1521F0
:105A7000B8141E145013591243111410D20E7D0D78
:105A8000200BCA09820844070F06E004B5038D0203
:105A90006501E8005F290152027D03A904DA0510BF
:105AA000074E089509EA0A500CB70D0B0F4E107CF3
:105AB00011921286134F14E3143615E714E314E021
:105AC00014DC14D914D614D314D114CE14CC14CAA3
:105AD00014A6144214A413D612E111CE10A40F661A
